{
	"contracts/ranking.sol": {
		"Ranking": {
			"abi": [
				{
					"inputs": [
						{
							"internalType": "string",
							"name": "source",
							"type": "string"
						}
					],
					"stateMutability": "nonpayable",
					"type": "constructor"
				},
				{
					"inputs": [
						{
							"internalType": "uint256",
							"name": "",
							"type": "uint256"
						}
					],
					"name": "Users",
					"outputs": [
						{
							"internalType": "bytes32",
							"name": "",
							"type": "bytes32"
						}
					],
					"stateMutability": "view",
					"type": "function"
				},
				{
					"inputs": [
						{
							"internalType": "bytes32",
							"name": "source",
							"type": "bytes32"
						}
					],
					"name": "_Bytes32ToString",
					"outputs": [
						{
							"internalType": "string",
							"name": "",
							"type": "string"
						}
					],
					"stateMutability": "nonpayable",
					"type": "function"
				},
				{
					"inputs": [
						{
							"internalType": "bytes32",
							"name": "User_name",
							"type": "bytes32"
						}
					],
					"name": "_createUserInfo",
					"outputs": [],
					"stateMutability": "nonpayable",
					"type": "function"
				},
				{
					"inputs": [
						{
							"internalType": "bytes32",
							"name": "User_name",
							"type": "bytes32"
						}
					],
					"name": "_getUserIndexByName",
					"outputs": [
						{
							"internalType": "int256",
							"name": "",
							"type": "int256"
						}
					],
					"stateMutability": "view",
					"type": "function"
				},
				{
					"inputs": [],
					"name": "_sortByScore",
					"outputs": [],
					"stateMutability": "nonpayable",
					"type": "function"
				},
				{
					"inputs": [],
					"name": "_sortByTimestamp",
					"outputs": [],
					"stateMutability": "nonpayable",
					"type": "function"
				},
				{
					"inputs": [
						{
							"internalType": "uint256",
							"name": "mode",
							"type": "uint256"
						}
					],
					"name": "_sortUsers",
					"outputs": [],
					"stateMutability": "nonpayable",
					"type": "function"
				},
				{
					"inputs": [
						{
							"internalType": "string",
							"name": "source",
							"type": "string"
						}
					],
					"name": "_stringToBytes32",
					"outputs": [
						{
							"internalType": "bytes32",
							"name": "result",
							"type": "bytes32"
						}
					],
					"stateMutability": "nonpayable",
					"type": "function"
				},
				{
					"inputs": [
						{
							"internalType": "bytes32",
							"name": "User_name",
							"type": "bytes32"
						}
					],
					"name": "_updateUserInfo",
					"outputs": [],
					"stateMutability": "nonpayable",
					"type": "function"
				},
				{
					"inputs": [
						{
							"internalType": "string",
							"name": "user_name",
							"type": "string"
						},
						{
							"internalType": "uint256",
							"name": "mode",
							"type": "uint256"
						}
					],
					"name": "getRankByName",
					"outputs": [
						{
							"internalType": "uint256",
							"name": "",
							"type": "uint256"
						}
					],
					"stateMutability": "nonpayable",
					"type": "function"
				},
				{
					"inputs": [
						{
							"internalType": "uint256",
							"name": "rank",
							"type": "uint256"
						},
						{
							"internalType": "uint256",
							"name": "mode",
							"type": "uint256"
						}
					],
					"name": "getRankerName",
					"outputs": [
						{
							"internalType": "bytes32",
							"name": "",
							"type": "bytes32"
						}
					],
					"stateMutability": "nonpayable",
					"type": "function"
				},
				{
					"inputs": [
						{
							"internalType": "bytes32",
							"name": "",
							"type": "bytes32"
						}
					],
					"name": "lastModifiedTime",
					"outputs": [
						{
							"internalType": "uint256",
							"name": "",
							"type": "uint256"
						}
					],
					"stateMutability": "view",
					"type": "function"
				},
				{
					"inputs": [
						{
							"internalType": "bytes32",
							"name": "",
							"type": "bytes32"
						}
					],
					"name": "numSolved",
					"outputs": [
						{
							"internalType": "uint8",
							"name": "",
							"type": "uint8"
						}
					],
					"stateMutability": "view",
					"type": "function"
				},
				{
					"inputs": [
						{
							"internalType": "string",
							"name": "User_name_string",
							"type": "string"
						}
					],
					"name": "numofSolved",
					"outputs": [
						{
							"internalType": "uint8",
							"name": "",
							"type": "uint8"
						}
					],
					"stateMutability": "nonpayable",
					"type": "function"
				},
				{
					"inputs": [
						{
							"internalType": "string",
							"name": "user_name",
							"type": "string"
						}
					],
					"name": "solvedProblem",
					"outputs": [],
					"stateMutability": "nonpayable",
					"type": "function"
				},
				{
					"inputs": [
						{
							"internalType": "uint256",
							"name": "mode",
							"type": "uint256"
						}
					],
					"name": "validMode",
					"outputs": [
						{
							"internalType": "bool",
							"name": "",
							"type": "bool"
						}
					],
					"stateMutability": "view",
					"type": "function"
				},
				{
					"inputs": [
						{
							"internalType": "bytes32",
							"name": "User_name",
							"type": "bytes32"
						}
					],
					"name": "validUser",
					"outputs": [
						{
							"internalType": "bool",
							"name": "",
							"type": "bool"
						}
					],
					"stateMutability": "view",
					"type": "function"
				}
			],
			"devdoc": {
				"kind": "dev",
				"methods": {},
				"version": 1
			},
			"evm": {
				"assembly": "    /* \"contracts/ranking.sol\":102:5178  contract Ranking {... */\n  mstore(0x40, 0x80)\n    /* \"contracts/ranking.sol\":561:633  constructor(string memory source ) public {... */\n  callvalue\n  dup1\n  iszero\n  tag_1\n  jumpi\n  0x00\n  dup1\n  revert\ntag_1:\n  pop\n  mload(0x40)\n  sub(codesize, bytecodeSize)\n  dup1\n  bytecodeSize\n  dup4\n  codecopy\n  dup2\n  dup2\n  add\n  0x40\n  mstore\n  dup2\n  add\n  swap1\n  tag_2\n  swap2\n  swap1\n  tag_3\n  jump\t// in\ntag_2:\n    /* \"contracts/ranking.sol\":620:626  source */\n  dup1\n    /* \"contracts/ranking.sol\":613:617  temp */\n  0x00\n    /* \"contracts/ranking.sol\":613:626  temp = source */\n  swap1\n  dup1\n  mload\n  swap1\n  0x20\n  add\n  swap1\n  tag_6\n  swap3\n  swap2\n  swap1\n  tag_7\n  jump\t// in\ntag_6:\n  pop\n    /* \"contracts/ranking.sol\":561:633  constructor(string memory source ) public {... */\n  pop\n    /* \"contracts/ranking.sol\":102:5178  contract Ranking {... */\n  jump(tag_8)\ntag_7:\n  dup3\n  dup1\n  sload\n  tag_9\n  swap1\n  tag_10\n  jump\t// in\ntag_9:\n  swap1\n  0x00\n  mstore\n  keccak256(0x00, 0x20)\n  swap1\n  0x1f\n  add\n  0x20\n  swap1\n  div\n  dup2\n  add\n  swap3\n  dup3\n  tag_12\n  jumpi\n  0x00\n  dup6\n  sstore\n  jump(tag_11)\ntag_12:\n  dup3\n  0x1f\n  lt\n  tag_13\n  jumpi\n  dup1\n  mload\n  not(0xff)\n  and\n  dup4\n  dup1\n  add\n  or\n  dup6\n  sstore\n  jump(tag_11)\ntag_13:\n  dup3\n  dup1\n  add\n  0x01\n  add\n  dup6\n  sstore\n  dup3\n  iszero\n  tag_11\n  jumpi\n  swap2\n  dup3\n  add\ntag_14:\n  dup3\n  dup2\n  gt\n  iszero\n  tag_15\n  jumpi\n  dup3\n  mload\n  dup3\n  sstore\n  swap2\n  0x20\n  add\n  swap2\n  swap1\n  0x01\n  add\n  swap1\n  jump(tag_14)\ntag_15:\ntag_11:\n  pop\n  swap1\n  pop\n  tag_16\n  swap2\n  swap1\n  tag_17\n  jump\t// in\ntag_16:\n  pop\n  swap1\n  jump\t// out\ntag_17:\ntag_18:\n  dup1\n  dup3\n  gt\n  iszero\n  tag_19\n  jumpi\n  0x00\n  dup2\n  0x00\n  swap1\n  sstore\n  pop\n  0x01\n  add\n  jump(tag_18)\ntag_19:\n  pop\n  swap1\n  jump\t// out\n    /* \"#utility.yul\":7:360   */\ntag_21:\n  0x00\n    /* \"#utility.yul\":121:186   */\n  tag_23\n    /* \"#utility.yul\":136:185   */\n  tag_24\n    /* \"#utility.yul\":178:184   */\n  dup5\n    /* \"#utility.yul\":136:185   */\n  tag_25\n  jump\t// in\ntag_24:\n    /* \"#utility.yul\":121:186   */\n  tag_26\n  jump\t// in\ntag_23:\n    /* \"#utility.yul\":112:186   */\n  swap1\n  pop\n    /* \"#utility.yul\":209:215   */\n  dup3\n    /* \"#utility.yul\":202:207   */\n  dup2\n    /* \"#utility.yul\":195:216   */\n  mstore\n    /* \"#utility.yul\":247:251   */\n  0x20\n    /* \"#utility.yul\":240:245   */\n  dup2\n    /* \"#utility.yul\":236:252   */\n  add\n    /* \"#utility.yul\":285:288   */\n  dup5\n    /* \"#utility.yul\":276:282   */\n  dup5\n    /* \"#utility.yul\":271:274   */\n  dup5\n    /* \"#utility.yul\":267:283   */\n  add\n    /* \"#utility.yul\":264:289   */\n  gt\n    /* \"#utility.yul\":261:263   */\n  iszero\n  tag_27\n  jumpi\n    /* \"#utility.yul\":302:303   */\n  0x00\n    /* \"#utility.yul\":299:300   */\n  dup1\n    /* \"#utility.yul\":292:304   */\n  revert\n    /* \"#utility.yul\":261:263   */\ntag_27:\n    /* \"#utility.yul\":315:354   */\n  tag_28\n    /* \"#utility.yul\":347:353   */\n  dup5\n    /* \"#utility.yul\":342:345   */\n  dup3\n    /* \"#utility.yul\":337:340   */\n  dup6\n    /* \"#utility.yul\":315:354   */\n  tag_29\n  jump\t// in\ntag_28:\n    /* \"#utility.yul\":102:360   */\n  pop\n  swap4\n  swap3\n  pop\n  pop\n  pop\n  jump\t// out\n    /* \"#utility.yul\":380:668   */\ntag_30:\n  0x00\n    /* \"#utility.yul\":496:499   */\n  dup3\n    /* \"#utility.yul\":489:493   */\n  0x1f\n    /* \"#utility.yul\":481:487   */\n  dup4\n    /* \"#utility.yul\":477:494   */\n  add\n    /* \"#utility.yul\":473:500   */\n  slt\n    /* \"#utility.yul\":463:465   */\n  tag_32\n  jumpi\n    /* \"#utility.yul\":514:515   */\n  0x00\n    /* \"#utility.yul\":511:512   */\n  dup1\n    /* \"#utility.yul\":504:516   */\n  revert\n    /* \"#utility.yul\":463:465   */\ntag_32:\n    /* \"#utility.yul\":547:553   */\n  dup2\n    /* \"#utility.yul\":541:554   */\n  mload\n    /* \"#utility.yul\":572:662   */\n  tag_33\n    /* \"#utility.yul\":658:661   */\n  dup5\n    /* \"#utility.yul\":650:656   */\n  dup3\n    /* \"#utility.yul\":643:647   */\n  0x20\n    /* \"#utility.yul\":635:641   */\n  dup7\n    /* \"#utility.yul\":631:648   */\n  add\n    /* \"#utility.yul\":572:662   */\n  tag_21\n  jump\t// in\ntag_33:\n    /* \"#utility.yul\":563:662   */\n  swap2\n  pop\n    /* \"#utility.yul\":453:668   */\n  pop\n  swap3\n  swap2\n  pop\n  pop\n  jump\t// out\n    /* \"#utility.yul\":674:1064   */\ntag_3:\n  0x00\n    /* \"#utility.yul\":803:805   */\n  0x20\n    /* \"#utility.yul\":791:800   */\n  dup3\n    /* \"#utility.yul\":782:789   */\n  dup5\n    /* \"#utility.yul\":778:801   */\n  sub\n    /* \"#utility.yul\":774:806   */\n  slt\n    /* \"#utility.yul\":771:773   */\n  iszero\n  tag_35\n  jumpi\n    /* \"#utility.yul\":819:820   */\n  0x00\n    /* \"#utility.yul\":816:817   */\n  dup1\n    /* \"#utility.yul\":809:821   */\n  revert\n    /* \"#utility.yul\":771:773   */\ntag_35:\n    /* \"#utility.yul\":883:884   */\n  0x00\n    /* \"#utility.yul\":872:881   */\n  dup3\n    /* \"#utility.yul\":868:885   */\n  add\n    /* \"#utility.yul\":862:886   */\n  mload\n    /* \"#utility.yul\":913:931   */\n  0xffffffffffffffff\n    /* \"#utility.yul\":905:911   */\n  dup2\n    /* \"#utility.yul\":902:932   */\n  gt\n    /* \"#utility.yul\":899:901   */\n  iszero\n  tag_36\n  jumpi\n    /* \"#utility.yul\":945:946   */\n  0x00\n    /* \"#utility.yul\":942:943   */\n  dup1\n    /* \"#utility.yul\":935:947   */\n  revert\n    /* \"#utility.yul\":899:901   */\ntag_36:\n    /* \"#utility.yul\":973:1047   */\n  tag_37\n    /* \"#utility.yul\":1039:1046   */\n  dup5\n    /* \"#utility.yul\":1030:1036   */\n  dup3\n    /* \"#utility.yul\":1019:1028   */\n  dup6\n    /* \"#utility.yul\":1015:1037   */\n  add\n    /* \"#utility.yul\":973:1047   */\n  tag_30\n  jump\t// in\ntag_37:\n    /* \"#utility.yul\":963:1047   */\n  swap2\n  pop\n    /* \"#utility.yul\":833:1057   */\n  pop\n    /* \"#utility.yul\":761:1064   */\n  swap3\n  swap2\n  pop\n  pop\n  jump\t// out\n    /* \"#utility.yul\":1070:1353   */\ntag_26:\n  0x00\n    /* \"#utility.yul\":1136:1138   */\n  0x40\n    /* \"#utility.yul\":1130:1139   */\n  mload\n    /* \"#utility.yul\":1120:1139   */\n  swap1\n  pop\n    /* \"#utility.yul\":1178:1182   */\n  dup2\n    /* \"#utility.yul\":1170:1176   */\n  dup2\n    /* \"#utility.yul\":1166:1183   */\n  add\n    /* \"#utility.yul\":1285:1291   */\n  dup2\n    /* \"#utility.yul\":1273:1283   */\n  dup2\n    /* \"#utility.yul\":1270:1292   */\n  lt\n    /* \"#utility.yul\":1249:1267   */\n  0xffffffffffffffff\n    /* \"#utility.yul\":1237:1247   */\n  dup3\n    /* \"#utility.yul\":1234:1268   */\n  gt\n    /* \"#utility.yul\":1231:1293   */\n  or\n    /* \"#utility.yul\":1228:1230   */\n  iszero\n  tag_39\n  jumpi\n    /* \"#utility.yul\":1296:1314   */\n  tag_40\n  tag_41\n  jump\t// in\ntag_40:\n    /* \"#utility.yul\":1228:1230   */\ntag_39:\n    /* \"#utility.yul\":1336:1346   */\n  dup1\n    /* \"#utility.yul\":1332:1334   */\n  0x40\n    /* \"#utility.yul\":1325:1347   */\n  mstore\n    /* \"#utility.yul\":1110:1353   */\n  pop\n  swap2\n  swap1\n  pop\n  jump\t// out\n    /* \"#utility.yul\":1359:1691   */\ntag_25:\n  0x00\n    /* \"#utility.yul\":1511:1529   */\n  0xffffffffffffffff\n    /* \"#utility.yul\":1503:1509   */\n  dup3\n    /* \"#utility.yul\":1500:1530   */\n  gt\n    /* \"#utility.yul\":1497:1499   */\n  iszero\n  tag_43\n  jumpi\n    /* \"#utility.yul\":1533:1551   */\n  tag_44\n  tag_41\n  jump\t// in\ntag_44:\n    /* \"#utility.yul\":1497:1499   */\ntag_43:\n    /* \"#utility.yul\":1618:1622   */\n  0x1f\n    /* \"#utility.yul\":1614:1623   */\n  not\n    /* \"#utility.yul\":1607:1611   */\n  0x1f\n    /* \"#utility.yul\":1599:1605   */\n  dup4\n    /* \"#utility.yul\":1595:1612   */\n  add\n    /* \"#utility.yul\":1591:1624   */\n  and\n    /* \"#utility.yul\":1583:1624   */\n  swap1\n  pop\n    /* \"#utility.yul\":1679:1683   */\n  0x20\n    /* \"#utility.yul\":1673:1677   */\n  dup2\n    /* \"#utility.yul\":1669:1684   */\n  add\n    /* \"#utility.yul\":1661:1684   */\n  swap1\n  pop\n    /* \"#utility.yul\":1426:1691   */\n  swap2\n  swap1\n  pop\n  jump\t// out\n    /* \"#utility.yul\":1697:2004   */\ntag_29:\n    /* \"#utility.yul\":1765:1766   */\n  0x00\n    /* \"#utility.yul\":1775:1888   */\ntag_46:\n    /* \"#utility.yul\":1789:1795   */\n  dup4\n    /* \"#utility.yul\":1786:1787   */\n  dup2\n    /* \"#utility.yul\":1783:1796   */\n  lt\n    /* \"#utility.yul\":1775:1888   */\n  iszero\n  tag_48\n  jumpi\n    /* \"#utility.yul\":1874:1875   */\n  dup1\n    /* \"#utility.yul\":1869:1872   */\n  dup3\n    /* \"#utility.yul\":1865:1876   */\n  add\n    /* \"#utility.yul\":1859:1877   */\n  mload\n    /* \"#utility.yul\":1855:1856   */\n  dup2\n    /* \"#utility.yul\":1850:1853   */\n  dup5\n    /* \"#utility.yul\":1846:1857   */\n  add\n    /* \"#utility.yul\":1839:1878   */\n  mstore\n    /* \"#utility.yul\":1811:1813   */\n  0x20\n    /* \"#utility.yul\":1808:1809   */\n  dup2\n    /* \"#utility.yul\":1804:1814   */\n  add\n    /* \"#utility.yul\":1799:1814   */\n  swap1\n  pop\n    /* \"#utility.yul\":1775:1888   */\n  jump(tag_46)\ntag_48:\n    /* \"#utility.yul\":1906:1912   */\n  dup4\n    /* \"#utility.yul\":1903:1904   */\n  dup2\n    /* \"#utility.yul\":1900:1913   */\n  gt\n    /* \"#utility.yul\":1897:1899   */\n  iszero\n  tag_49\n  jumpi\n    /* \"#utility.yul\":1986:1987   */\n  0x00\n    /* \"#utility.yul\":1977:1983   */\n  dup5\n    /* \"#utility.yul\":1972:1975   */\n  dup5\n    /* \"#utility.yul\":1968:1984   */\n  add\n    /* \"#utility.yul\":1961:1988   */\n  mstore\n    /* \"#utility.yul\":1897:1899   */\ntag_49:\n    /* \"#utility.yul\":1746:2004   */\n  pop\n  pop\n  pop\n  pop\n  jump\t// out\n    /* \"#utility.yul\":2010:2330   */\ntag_10:\n  0x00\n    /* \"#utility.yul\":2091:2092   */\n  0x02\n    /* \"#utility.yul\":2085:2089   */\n  dup3\n    /* \"#utility.yul\":2081:2093   */\n  div\n    /* \"#utility.yul\":2071:2093   */\n  swap1\n  pop\n    /* \"#utility.yul\":2138:2139   */\n  0x01\n    /* \"#utility.yul\":2132:2136   */\n  dup3\n    /* \"#utility.yul\":2128:2140   */\n  and\n    /* \"#utility.yul\":2159:2177   */\n  dup1\n    /* \"#utility.yul\":2149:2151   */\n  tag_51\n  jumpi\n    /* \"#utility.yul\":2215:2219   */\n  0x7f\n    /* \"#utility.yul\":2207:2213   */\n  dup3\n    /* \"#utility.yul\":2203:2220   */\n  and\n    /* \"#utility.yul\":2193:2220   */\n  swap2\n  pop\n    /* \"#utility.yul\":2149:2151   */\ntag_51:\n    /* \"#utility.yul\":2277:2279   */\n  0x20\n    /* \"#utility.yul\":2269:2275   */\n  dup3\n    /* \"#utility.yul\":2266:2280   */\n  lt\n    /* \"#utility.yul\":2246:2264   */\n  dup2\n    /* \"#utility.yul\":2243:2281   */\n  eq\n    /* \"#utility.yul\":2240:2242   */\n  iszero\n  tag_52\n  jumpi\n    /* \"#utility.yul\":2296:2314   */\n  tag_53\n  tag_54\n  jump\t// in\ntag_53:\n    /* \"#utility.yul\":2240:2242   */\ntag_52:\n    /* \"#utility.yul\":2061:2330   */\n  pop\n  swap2\n  swap1\n  pop\n  jump\t// out\n    /* \"#utility.yul\":2336:2516   */\ntag_54:\n    /* \"#utility.yul\":2384:2461   */\n  0x4e487b7100000000000000000000000000000000000000000000000000000000\n    /* \"#utility.yul\":2381:2382   */\n  0x00\n    /* \"#utility.yul\":2374:2462   */\n  mstore\n    /* \"#utility.yul\":2481:2485   */\n  0x22\n    /* \"#utility.yul\":2478:2479   */\n  0x04\n    /* \"#utility.yul\":2471:2486   */\n  mstore\n    /* \"#utility.yul\":2505:2509   */\n  0x24\n    /* \"#utility.yul\":2502:2503   */\n  0x00\n    /* \"#utility.yul\":2495:2510   */\n  revert\n    /* \"#utility.yul\":2522:2702   */\ntag_41:\n    /* \"#utility.yul\":2570:2647   */\n  0x4e487b7100000000000000000000000000000000000000000000000000000000\n    /* \"#utility.yul\":2567:2568   */\n  0x00\n    /* \"#utility.yul\":2560:2648   */\n  mstore\n    /* \"#utility.yul\":2667:2671   */\n  0x41\n    /* \"#utility.yul\":2664:2665   */\n  0x04\n    /* \"#utility.yul\":2657:2672   */\n  mstore\n    /* \"#utility.yul\":2691:2695   */\n  0x24\n    /* \"#utility.yul\":2688:2689   */\n  0x00\n    /* \"#utility.yul\":2681:2696   */\n  revert\n    /* \"contracts/ranking.sol\":102:5178  contract Ranking {... */\ntag_8:\n  dataSize(sub_0)\n  dup1\n  dataOffset(sub_0)\n  0x00\n  codecopy\n  0x00\n  return\nstop\n\nsub_0: assembly {\n        /* \"contracts/ranking.sol\":102:5178  contract Ranking {... */\n      mstore(0x40, 0x80)\n      callvalue\n      dup1\n      iszero\n      tag_1\n      jumpi\n      0x00\n      dup1\n      revert\n    tag_1:\n      pop\n      jumpi(tag_2, lt(calldatasize, 0x04))\n      shr(0xe0, calldataload(0x00))\n      dup1\n      0x5e7e6e3d\n      gt\n      tag_20\n      jumpi\n      dup1\n      0xa689f61b\n      gt\n      tag_21\n      jumpi\n      dup1\n      0xa689f61b\n      eq\n      tag_15\n      jumpi\n      dup1\n      0xbf6a8f9c\n      eq\n      tag_16\n      jumpi\n      dup1\n      0xc0a3c39c\n      eq\n      tag_17\n      jumpi\n      dup1\n      0xd34daa92\n      eq\n      tag_18\n      jumpi\n      dup1\n      0xf880a1be\n      eq\n      tag_19\n      jumpi\n      jump(tag_2)\n    tag_21:\n      dup1\n      0x5e7e6e3d\n      eq\n      tag_11\n      jumpi\n      dup1\n      0x78d208fe\n      eq\n      tag_12\n      jumpi\n      dup1\n      0x921fb249\n      eq\n      tag_13\n      jumpi\n      dup1\n      0x9c72b233\n      eq\n      tag_14\n      jumpi\n      jump(tag_2)\n    tag_20:\n      dup1\n      0x28565cc3\n      gt\n      tag_22\n      jumpi\n      dup1\n      0x28565cc3\n      eq\n      tag_7\n      jumpi\n      dup1\n      0x30dea1f4\n      eq\n      tag_8\n      jumpi\n      dup1\n      0x32d73713\n      eq\n      tag_9\n      jumpi\n      dup1\n      0x4b5e8119\n      eq\n      tag_10\n      jumpi\n      jump(tag_2)\n    tag_22:\n      dup1\n      0x01dc7830\n      eq\n      tag_3\n      jumpi\n      dup1\n      0x0b0edf7d\n      eq\n      tag_4\n      jumpi\n      dup1\n      0x1c661037\n      eq\n      tag_5\n      jumpi\n      dup1\n      0x1e98fd1c\n      eq\n      tag_6\n      jumpi\n    tag_2:\n      0x00\n      dup1\n      revert\n        /* \"contracts/ranking.sol\":1445:1647  function numofSolved(string memory User_name_string) public returns (uint8)... */\n    tag_3:\n      tag_23\n      0x04\n      dup1\n      calldatasize\n      sub\n      dup2\n      add\n      swap1\n      tag_24\n      swap2\n      swap1\n      tag_25\n      jump\t// in\n    tag_24:\n      tag_26\n      jump\t// in\n    tag_23:\n      mload(0x40)\n      tag_27\n      swap2\n      swap1\n      tag_28\n      jump\t// in\n    tag_27:\n      mload(0x40)\n      dup1\n      swap2\n      sub\n      swap1\n      return\n        /* \"contracts/ranking.sol\":1204:1439  function _createUserInfo(bytes32 User_name) public {... */\n    tag_4:\n      tag_29\n      0x04\n      dup1\n      calldatasize\n      sub\n      dup2\n      add\n      swap1\n      tag_30\n      swap2\n      swap1\n      tag_31\n      jump\t// in\n    tag_30:\n      tag_32\n      jump\t// in\n    tag_29:\n      stop\n        /* \"contracts/ranking.sol\":465:508  mapping (bytes32 => uint8) public numSolved */\n    tag_5:\n      tag_33\n      0x04\n      dup1\n      calldatasize\n      sub\n      dup2\n      add\n      swap1\n      tag_34\n      swap2\n      swap1\n      tag_31\n      jump\t// in\n    tag_34:\n      tag_35\n      jump\t// in\n    tag_33:\n      mload(0x40)\n      tag_36\n      swap2\n      swap1\n      tag_28\n      jump\t// in\n    tag_36:\n      mload(0x40)\n      dup1\n      swap2\n      sub\n      swap1\n      return\n        /* \"contracts/ranking.sol\":329:351  bytes32[] public Users */\n    tag_6:\n      tag_37\n      0x04\n      dup1\n      calldatasize\n      sub\n      dup2\n      add\n      swap1\n      tag_38\n      swap2\n      swap1\n      tag_39\n      jump\t// in\n    tag_38:\n      tag_40\n      jump\t// in\n    tag_37:\n      mload(0x40)\n      tag_41\n      swap2\n      swap1\n      tag_42\n      jump\t// in\n    tag_41:\n      mload(0x40)\n      dup1\n      swap2\n      sub\n      swap1\n      return\n        /* \"contracts/ranking.sol\":1984:2178  function _sortUsers(uint mode) public {... */\n    tag_7:\n      tag_43\n      0x04\n      dup1\n      calldatasize\n      sub\n      dup2\n      add\n      swap1\n      tag_44\n      swap2\n      swap1\n      tag_39\n      jump\t// in\n    tag_44:\n      tag_45\n      jump\t// in\n    tag_43:\n      stop\n        /* \"contracts/ranking.sol\":639:967  function solvedProblem(string memory user_name) public {... */\n    tag_8:\n      tag_46\n      0x04\n      dup1\n      calldatasize\n      sub\n      dup2\n      add\n      swap1\n      tag_47\n      swap2\n      swap1\n      tag_25\n      jump\t// in\n    tag_47:\n      tag_48\n      jump\t// in\n    tag_46:\n      stop\n        /* \"contracts/ranking.sol\":1653:1978  function _getUserIndexByName(bytes32 User_name) view public returns (int)... */\n    tag_9:\n      tag_49\n      0x04\n      dup1\n      calldatasize\n      sub\n      dup2\n      add\n      swap1\n      tag_50\n      swap2\n      swap1\n      tag_31\n      jump\t// in\n    tag_50:\n      tag_51\n      jump\t// in\n    tag_49:\n      mload(0x40)\n      tag_52\n      swap2\n      swap1\n      tag_53\n      jump\t// in\n    tag_52:\n      mload(0x40)\n      dup1\n      swap2\n      sub\n      swap1\n      return\n        /* \"contracts/ranking.sol\":2186:2785  function _sortByScore() public  {... */\n    tag_10:\n      tag_54\n      tag_55\n      jump\t// in\n    tag_54:\n      stop\n        /* \"contracts/ranking.sol\":2791:3352  function _sortByTimestamp() public  {... */\n    tag_11:\n      tag_56\n      tag_57\n      jump\t// in\n    tag_56:\n      stop\n        /* \"contracts/ranking.sol\":973:1198  function _updateUserInfo(bytes32 User_name) public {... */\n    tag_12:\n      tag_58\n      0x04\n      dup1\n      calldatasize\n      sub\n      dup2\n      add\n      swap1\n      tag_59\n      swap2\n      swap1\n      tag_31\n      jump\t// in\n    tag_59:\n      tag_60\n      jump\t// in\n    tag_58:\n      stop\n        /* \"contracts/ranking.sol\":4220:4475  function validUser(bytes32 User_name) view public returns(bool)... */\n    tag_13:\n      tag_61\n      0x04\n      dup1\n      calldatasize\n      sub\n      dup2\n      add\n      swap1\n      tag_62\n      swap2\n      swap1\n      tag_31\n      jump\t// in\n    tag_62:\n      tag_63\n      jump\t// in\n    tag_61:\n      mload(0x40)\n      tag_64\n      swap2\n      swap1\n      tag_65\n      jump\t// in\n    tag_64:\n      mload(0x40)\n      dup1\n      swap2\n      sub\n      swap1\n      return\n        /* \"contracts/ranking.sol\":3670:3907  function getRankerName(uint rank, uint mode) public returns (bytes32)... */\n    tag_14:\n      tag_66\n      0x04\n      dup1\n      calldatasize\n      sub\n      dup2\n      add\n      swap1\n      tag_67\n      swap2\n      swap1\n      tag_68\n      jump\t// in\n    tag_67:\n      tag_69\n      jump\t// in\n    tag_66:\n      mload(0x40)\n      tag_70\n      swap2\n      swap1\n      tag_42\n      jump\t// in\n    tag_70:\n      mload(0x40)\n      dup1\n      swap2\n      sub\n      swap1\n      return\n        /* \"contracts/ranking.sol\":357:409  mapping (bytes32 => uint256) public lastModifiedTime */\n    tag_15:\n      tag_71\n      0x04\n      dup1\n      calldatasize\n      sub\n      dup2\n      add\n      swap1\n      tag_72\n      swap2\n      swap1\n      tag_31\n      jump\t// in\n    tag_72:\n      tag_73\n      jump\t// in\n    tag_71:\n      mload(0x40)\n      tag_74\n      swap2\n      swap1\n      tag_75\n      jump\t// in\n    tag_74:\n      mload(0x40)\n      dup1\n      swap2\n      sub\n      swap1\n      return\n        /* \"contracts/ranking.sol\":4692:4998  function _stringToBytes32(string memory source) public returns (bytes32 result) ... */\n    tag_16:\n      tag_76\n      0x04\n      dup1\n      calldatasize\n      sub\n      dup2\n      add\n      swap1\n      tag_77\n      swap2\n      swap1\n      tag_25\n      jump\t// in\n    tag_77:\n      tag_78\n      jump\t// in\n    tag_76:\n      mload(0x40)\n      tag_79\n      swap2\n      swap1\n      tag_42\n      jump\t// in\n    tag_79:\n      mload(0x40)\n      dup1\n      swap2\n      sub\n      swap1\n      return\n        /* \"contracts/ranking.sol\":4481:4686  function validMode(uint mode) view public returns(bool)... */\n    tag_17:\n      tag_80\n      0x04\n      dup1\n      calldatasize\n      sub\n      dup2\n      add\n      swap1\n      tag_81\n      swap2\n      swap1\n      tag_39\n      jump\t// in\n    tag_81:\n      tag_82\n      jump\t// in\n    tag_80:\n      mload(0x40)\n      tag_83\n      swap2\n      swap1\n      tag_65\n      jump\t// in\n    tag_83:\n      mload(0x40)\n      dup1\n      swap2\n      sub\n      swap1\n      return\n        /* \"contracts/ranking.sol\":3913:4214  function getRankByName(string memory user_name, uint mode) public returns (uint)... */\n    tag_18:\n      tag_84\n      0x04\n      dup1\n      calldatasize\n      sub\n      dup2\n      add\n      swap1\n      tag_85\n      swap2\n      swap1\n      tag_86\n      jump\t// in\n    tag_85:\n      tag_87\n      jump\t// in\n    tag_84:\n      mload(0x40)\n      tag_88\n      swap2\n      swap1\n      tag_75\n      jump\t// in\n    tag_88:\n      mload(0x40)\n      dup1\n      swap2\n      sub\n      swap1\n      return\n        /* \"contracts/ranking.sol\":5004:5173  function _Bytes32ToString(bytes32  source) public returns (string memory) {... */\n    tag_19:\n      tag_89\n      0x04\n      dup1\n      calldatasize\n      sub\n      dup2\n      add\n      swap1\n      tag_90\n      swap2\n      swap1\n      tag_31\n      jump\t// in\n    tag_90:\n      tag_91\n      jump\t// in\n    tag_89:\n      mload(0x40)\n      tag_92\n      swap2\n      swap1\n      tag_93\n      jump\t// in\n    tag_92:\n      mload(0x40)\n      dup1\n      swap2\n      sub\n      swap1\n      return\n        /* \"contracts/ranking.sol\":1445:1647  function numofSolved(string memory User_name_string) public returns (uint8)... */\n    tag_26:\n        /* \"contracts/ranking.sol\":1514:1519  uint8 */\n      0x00\n        /* \"contracts/ranking.sol\":1535:1558  bytes32 User_name_bytes */\n      dup1\n        /* \"contracts/ranking.sol\":1561:1595  _stringToBytes32(User_name_string) */\n      tag_95\n        /* \"contracts/ranking.sol\":1578:1594  User_name_string */\n      dup4\n        /* \"contracts/ranking.sol\":1561:1577  _stringToBytes32 */\n      tag_78\n        /* \"contracts/ranking.sol\":1561:1595  _stringToBytes32(User_name_string) */\n      jump\t// in\n    tag_95:\n        /* \"contracts/ranking.sol\":1535:1595  bytes32 User_name_bytes = _stringToBytes32(User_name_string) */\n      swap1\n      pop\n        /* \"contracts/ranking.sol\":1613:1622  numSolved */\n      0x03\n        /* \"contracts/ranking.sol\":1613:1639  numSolved[User_name_bytes] */\n      0x00\n        /* \"contracts/ranking.sol\":1623:1638  User_name_bytes */\n      dup3\n        /* \"contracts/ranking.sol\":1613:1639  numSolved[User_name_bytes] */\n      dup2\n      mstore\n      0x20\n      add\n      swap1\n      dup2\n      mstore\n      0x20\n      add\n      0x00\n      keccak256\n      0x00\n      swap1\n      sload\n      swap1\n      0x0100\n      exp\n      swap1\n      div\n      0xff\n      and\n        /* \"contracts/ranking.sol\":1605:1640  return (numSolved[User_name_bytes]) */\n      swap2\n      pop\n      pop\n        /* \"contracts/ranking.sol\":1445:1647  function numofSolved(string memory User_name_string) public returns (uint8)... */\n      swap2\n      swap1\n      pop\n      jump\t// out\n        /* \"contracts/ranking.sol\":1204:1439  function _createUserInfo(bytes32 User_name) public {... */\n    tag_32:\n        /* \"contracts/ranking.sol\":1288:1289  1 */\n      0x01\n        /* \"contracts/ranking.sol\":1265:1274  numSolved */\n      0x03\n        /* \"contracts/ranking.sol\":1265:1285  numSolved[User_name] */\n      0x00\n        /* \"contracts/ranking.sol\":1275:1284  User_name */\n      dup4\n        /* \"contracts/ranking.sol\":1265:1285  numSolved[User_name] */\n      dup2\n      mstore\n      0x20\n      add\n      swap1\n      dup2\n      mstore\n      0x20\n      add\n      0x00\n      keccak256\n      0x00\n        /* \"contracts/ranking.sol\":1265:1289  numSolved[User_name] = 1 */\n      0x0100\n      exp\n      dup2\n      sload\n      dup2\n      0xff\n      mul\n      not\n      and\n      swap1\n      dup4\n      0xff\n      and\n      mul\n      or\n      swap1\n      sstore\n      pop\n        /* \"contracts/ranking.sol\":1299:1304  Users */\n      0x01\n        /* \"contracts/ranking.sol\":1310:1319  User_name */\n      dup2\n        /* \"contracts/ranking.sol\":1299:1320  Users.push(User_name) */\n      swap1\n      dup1\n      0x01\n      dup2\n      sload\n      add\n      dup1\n      dup3\n      sstore\n      dup1\n      swap2\n      pop\n      pop\n      0x01\n      swap1\n      sub\n      swap1\n      0x00\n      mstore\n      keccak256(0x00, 0x20)\n      add\n      0x00\n      swap1\n      swap2\n      swap1\n      swap2\n      swap1\n      swap2\n      pop\n      sstore\n        /* \"contracts/ranking.sol\":1360:1375  block.timestamp */\n      timestamp\n        /* \"contracts/ranking.sol\":1330:1346  lastModifiedTime */\n      0x02\n        /* \"contracts/ranking.sol\":1330:1357  lastModifiedTime[User_name] */\n      0x00\n        /* \"contracts/ranking.sol\":1347:1356  User_name */\n      dup4\n        /* \"contracts/ranking.sol\":1330:1357  lastModifiedTime[User_name] */\n      dup2\n      mstore\n      0x20\n      add\n      swap1\n      dup2\n      mstore\n      0x20\n      add\n      0x00\n      keccak256\n        /* \"contracts/ranking.sol\":1330:1375  lastModifiedTime[User_name] = block.timestamp */\n      dup2\n      swap1\n      sstore\n      pop\n        /* \"contracts/ranking.sol\":1204:1439  function _createUserInfo(bytes32 User_name) public {... */\n      pop\n      jump\t// out\n        /* \"contracts/ranking.sol\":465:508  mapping (bytes32 => uint8) public numSolved */\n    tag_35:\n      mstore(0x20, 0x03)\n      dup1\n      0x00\n      mstore\n      keccak256(0x00, 0x40)\n      0x00\n      swap2\n      pop\n      sload\n      swap1\n      0x0100\n      exp\n      swap1\n      div\n      0xff\n      and\n      dup2\n      jump\t// out\n        /* \"contracts/ranking.sol\":329:351  bytes32[] public Users */\n    tag_40:\n      0x01\n      dup2\n      dup2\n      sload\n      dup2\n      lt\n      tag_98\n      jumpi\n      0x00\n      dup1\n      revert\n    tag_98:\n      swap1\n      0x00\n      mstore\n      keccak256(0x00, 0x20)\n      add\n      0x00\n      swap2\n      pop\n      swap1\n      pop\n      sload\n      dup2\n      jump\t// out\n        /* \"contracts/ranking.sol\":1984:2178  function _sortUsers(uint mode) public {... */\n    tag_45:\n        /* \"contracts/ranking.sol\":2043:2044  1 */\n      0x01\n        /* \"contracts/ranking.sol\":2035:2039  mode */\n      dup2\n        /* \"contracts/ranking.sol\":2035:2044  mode == 1 */\n      eq\n        /* \"contracts/ranking.sol\":2032:2172  if(mode == 1)... */\n      iszero\n      tag_101\n      jumpi\n        /* \"contracts/ranking.sol\":2068:2082  _sortByScore() */\n      tag_102\n        /* \"contracts/ranking.sol\":2068:2080  _sortByScore */\n      tag_55\n        /* \"contracts/ranking.sol\":2068:2082  _sortByScore() */\n      jump\t// in\n    tag_102:\n        /* \"contracts/ranking.sol\":2032:2172  if(mode == 1)... */\n      jump(tag_103)\n    tag_101:\n        /* \"contracts/ranking.sol\":2118:2119  2 */\n      0x02\n        /* \"contracts/ranking.sol\":2110:2114  mode */\n      dup2\n        /* \"contracts/ranking.sol\":2110:2119  mode == 2 */\n      eq\n        /* \"contracts/ranking.sol\":2107:2172  if(mode == 2)... */\n      iszero\n      tag_104\n      jumpi\n        /* \"contracts/ranking.sol\":2143:2161  _sortByTimestamp() */\n      tag_105\n        /* \"contracts/ranking.sol\":2143:2159  _sortByTimestamp */\n      tag_57\n        /* \"contracts/ranking.sol\":2143:2161  _sortByTimestamp() */\n      jump\t// in\n    tag_105:\n        /* \"contracts/ranking.sol\":2107:2172  if(mode == 2)... */\n    tag_104:\n        /* \"contracts/ranking.sol\":2032:2172  if(mode == 1)... */\n    tag_103:\n        /* \"contracts/ranking.sol\":1984:2178  function _sortUsers(uint mode) public {... */\n      pop\n      jump\t// out\n        /* \"contracts/ranking.sol\":639:967  function solvedProblem(string memory user_name) public {... */\n    tag_48:\n        /* \"contracts/ranking.sol\":704:721  bytes32 User_name */\n      0x00\n        /* \"contracts/ranking.sol\":724:751  _stringToBytes32(user_name) */\n      tag_107\n        /* \"contracts/ranking.sol\":741:750  user_name */\n      dup3\n        /* \"contracts/ranking.sol\":724:740  _stringToBytes32 */\n      tag_78\n        /* \"contracts/ranking.sol\":724:751  _stringToBytes32(user_name) */\n      jump\t// in\n    tag_107:\n        /* \"contracts/ranking.sol\":704:751  bytes32 User_name = _stringToBytes32(user_name) */\n      swap1\n      pop\n        /* \"contracts/ranking.sol\":761:770  int index */\n      0x00\n        /* \"contracts/ranking.sol\":773:803  _getUserIndexByName(User_name) */\n      tag_108\n        /* \"contracts/ranking.sol\":793:802  User_name */\n      dup3\n        /* \"contracts/ranking.sol\":773:792  _getUserIndexByName */\n      tag_51\n        /* \"contracts/ranking.sol\":773:803  _getUserIndexByName(User_name) */\n      jump\t// in\n    tag_108:\n        /* \"contracts/ranking.sol\":761:803  int index = _getUserIndexByName(User_name) */\n      swap1\n      pop\n        /* \"contracts/ranking.sol\":825:827  -1 */\n      0xffffffffffffffffffffffffffffffffffffffffffffffffffffffffffffffff\n        /* \"contracts/ranking.sol\":816:821  index */\n      dup2\n        /* \"contracts/ranking.sol\":816:827  index == -1 */\n      eq\n        /* \"contracts/ranking.sol\":813:961  if(index == -1)... */\n      iszero\n      tag_109\n      jumpi\n        /* \"contracts/ranking.sol\":851:877  _createUserInfo(User_name) */\n      tag_110\n        /* \"contracts/ranking.sol\":867:876  User_name */\n      dup3\n        /* \"contracts/ranking.sol\":851:866  _createUserInfo */\n      tag_32\n        /* \"contracts/ranking.sol\":851:877  _createUserInfo(User_name) */\n      jump\t// in\n    tag_110:\n        /* \"contracts/ranking.sol\":813:961  if(index == -1)... */\n      jump(tag_111)\n    tag_109:\n        /* \"contracts/ranking.sol\":924:950  _updateUserInfo(User_name) */\n      tag_112\n        /* \"contracts/ranking.sol\":940:949  User_name */\n      dup3\n        /* \"contracts/ranking.sol\":924:939  _updateUserInfo */\n      tag_60\n        /* \"contracts/ranking.sol\":924:950  _updateUserInfo(User_name) */\n      jump\t// in\n    tag_112:\n        /* \"contracts/ranking.sol\":813:961  if(index == -1)... */\n    tag_111:\n        /* \"contracts/ranking.sol\":639:967  function solvedProblem(string memory user_name) public {... */\n      pop\n      pop\n      pop\n      jump\t// out\n        /* \"contracts/ranking.sol\":1653:1978  function _getUserIndexByName(bytes32 User_name) view public returns (int)... */\n    tag_51:\n        /* \"contracts/ranking.sol\":1722:1725  int */\n      0x00\n        /* \"contracts/ranking.sol\":1742:1751  int index */\n      dup1\n        /* \"contracts/ranking.sol\":1754:1756  -1 */\n      0xffffffffffffffffffffffffffffffffffffffffffffffffffffffffffffffff\n        /* \"contracts/ranking.sol\":1742:1756  int index = -1 */\n      swap1\n      pop\n        /* \"contracts/ranking.sol\":1770:1775  int i */\n      0x00\n        /* \"contracts/ranking.sol\":1766:1950  for(int i = 0; i < int(Users.length); i++)... */\n    tag_114:\n        /* \"contracts/ranking.sol\":1789:1794  Users */\n      0x01\n        /* \"contracts/ranking.sol\":1789:1801  Users.length */\n      dup1\n      sload\n      swap1\n      pop\n        /* \"contracts/ranking.sol\":1781:1782  i */\n      dup2\n        /* \"contracts/ranking.sol\":1781:1802  i < int(Users.length) */\n      slt\n        /* \"contracts/ranking.sol\":1766:1950  for(int i = 0; i < int(Users.length); i++)... */\n      iszero\n      tag_115\n      jumpi\n        /* \"contracts/ranking.sol\":1852:1861  User_name */\n      dup4\n        /* \"contracts/ranking.sol\":1834:1839  Users */\n      0x01\n        /* \"contracts/ranking.sol\":1845:1846  i */\n      dup3\n        /* \"contracts/ranking.sol\":1834:1848  Users[uint(i)] */\n      dup2\n      sload\n      dup2\n      lt\n      tag_117\n      jumpi\n      mstore(0x00, 0x4e487b7100000000000000000000000000000000000000000000000000000000)\n      mstore(0x04, 0x32)\n      revert(0x00, 0x24)\n    tag_117:\n      swap1\n      0x00\n      mstore\n      keccak256(0x00, 0x20)\n      add\n      sload\n        /* \"contracts/ranking.sol\":1834:1861  Users[uint(i)] == User_name */\n      eq\n        /* \"contracts/ranking.sol\":1831:1940  if(Users[uint(i)] == User_name)... */\n      iszero\n      tag_119\n      jumpi\n        /* \"contracts/ranking.sol\":1901:1902  i */\n      dup1\n        /* \"contracts/ranking.sol\":1893:1902  index = i */\n      swap2\n      pop\n        /* \"contracts/ranking.sol\":1920:1925  break */\n      jump(tag_115)\n        /* \"contracts/ranking.sol\":1831:1940  if(Users[uint(i)] == User_name)... */\n    tag_119:\n        /* \"contracts/ranking.sol\":1804:1807  i++ */\n      dup1\n      dup1\n      tag_120\n      swap1\n      tag_121\n      jump\t// in\n    tag_120:\n      swap2\n      pop\n      pop\n        /* \"contracts/ranking.sol\":1766:1950  for(int i = 0; i < int(Users.length); i++)... */\n      jump(tag_114)\n    tag_115:\n      pop\n        /* \"contracts/ranking.sol\":1966:1971  index */\n      dup1\n        /* \"contracts/ranking.sol\":1959:1971  return index */\n      swap2\n      pop\n      pop\n        /* \"contracts/ranking.sol\":1653:1978  function _getUserIndexByName(bytes32 User_name) view public returns (int)... */\n      swap2\n      swap1\n      pop\n      jump\t// out\n        /* \"contracts/ranking.sol\":2186:2785  function _sortByScore() public  {... */\n    tag_55:\n        /* \"contracts/ranking.sol\":2232:2243  uint length */\n      0x00\n        /* \"contracts/ranking.sol\":2246:2251  Users */\n      0x01\n        /* \"contracts/ranking.sol\":2246:2258  Users.length */\n      dup1\n      sload\n      swap1\n      pop\n        /* \"contracts/ranking.sol\":2232:2258  uint length = Users.length */\n      swap1\n      pop\n        /* \"contracts/ranking.sol\":2277:2283  uint i */\n      0x00\n        /* \"contracts/ranking.sol\":2286:2287  1 */\n      0x01\n        /* \"contracts/ranking.sol\":2277:2287  uint i = 1 */\n      swap1\n      pop\n        /* \"contracts/ranking.sol\":2272:2775  for (uint i = 1; i < length; i++) {... */\n    tag_123:\n        /* \"contracts/ranking.sol\":2293:2299  length */\n      dup2\n        /* \"contracts/ranking.sol\":2289:2290  i */\n      dup2\n        /* \"contracts/ranking.sol\":2289:2299  i < length */\n      lt\n        /* \"contracts/ranking.sol\":2272:2775  for (uint i = 1; i < length; i++) {... */\n      iszero\n      tag_124\n      jumpi\n        /* \"contracts/ranking.sol\":2324:2332  uint key */\n      0x00\n        /* \"contracts/ranking.sol\":2335:2344  numSolved */\n      0x03\n        /* \"contracts/ranking.sol\":2335:2354  numSolved[Users[i]] */\n      0x00\n        /* \"contracts/ranking.sol\":2345:2350  Users */\n      0x01\n        /* \"contracts/ranking.sol\":2351:2352  i */\n      dup5\n        /* \"contracts/ranking.sol\":2345:2353  Users[i] */\n      dup2\n      sload\n      dup2\n      lt\n      tag_126\n      jumpi\n      mstore(0x00, 0x4e487b7100000000000000000000000000000000000000000000000000000000)\n      mstore(0x04, 0x32)\n      revert(0x00, 0x24)\n    tag_126:\n      swap1\n      0x00\n      mstore\n      keccak256(0x00, 0x20)\n      add\n      sload\n        /* \"contracts/ranking.sol\":2335:2354  numSolved[Users[i]] */\n      dup2\n      mstore\n      0x20\n      add\n      swap1\n      dup2\n      mstore\n      0x20\n      add\n      0x00\n      keccak256\n      0x00\n      swap1\n      sload\n      swap1\n      0x0100\n      exp\n      swap1\n      div\n      0xff\n      and\n        /* \"contracts/ranking.sol\":2324:2354  uint key = numSolved[Users[i]] */\n      0xff\n      and\n      swap1\n      pop\n        /* \"contracts/ranking.sol\":2372:2388  bytes32 keyOwner */\n      0x00\n        /* \"contracts/ranking.sol\":2391:2396  Users */\n      0x01\n        /* \"contracts/ranking.sol\":2397:2398  i */\n      dup4\n        /* \"contracts/ranking.sol\":2391:2399  Users[i] */\n      dup2\n      sload\n      dup2\n      lt\n      tag_128\n      jumpi\n      mstore(0x00, 0x4e487b7100000000000000000000000000000000000000000000000000000000)\n      mstore(0x04, 0x32)\n      revert(0x00, 0x24)\n    tag_128:\n      swap1\n      0x00\n      mstore\n      keccak256(0x00, 0x20)\n      add\n      sload\n        /* \"contracts/ranking.sol\":2372:2399  bytes32 keyOwner = Users[i] */\n      swap1\n      pop\n        /* \"contracts/ranking.sol\":2417:2422  int j */\n      0x00\n        /* \"contracts/ranking.sol\":2434:2435  1 */\n      0x01\n        /* \"contracts/ranking.sol\":2429:2430  i */\n      dup5\n        /* \"contracts/ranking.sol\":2425:2435  int(i) - 1 */\n      tag_130\n      swap2\n      swap1\n      tag_131\n      jump\t// in\n    tag_130:\n        /* \"contracts/ranking.sol\":2417:2435  int j = int(i) - 1 */\n      swap1\n      pop\n        /* \"contracts/ranking.sol\":2453:2672  while ((int(j) >= 0) && (numSolved[ Users[uint(j)] ] < key)) {... */\n    tag_132:\n        /* \"contracts/ranking.sol\":2471:2472  0 */\n      0x00\n        /* \"contracts/ranking.sol\":2465:2466  j */\n      dup2\n        /* \"contracts/ranking.sol\":2461:2472  int(j) >= 0 */\n      slt\n      iszero\n        /* \"contracts/ranking.sol\":2460:2512  (int(j) >= 0) && (numSolved[ Users[uint(j)] ] < key) */\n      dup1\n      iszero\n      tag_134\n      jumpi\n      pop\n        /* \"contracts/ranking.sol\":2508:2511  key */\n      dup3\n        /* \"contracts/ranking.sol\":2478:2487  numSolved */\n      0x03\n        /* \"contracts/ranking.sol\":2478:2505  numSolved[ Users[uint(j)] ] */\n      0x00\n        /* \"contracts/ranking.sol\":2489:2494  Users */\n      0x01\n        /* \"contracts/ranking.sol\":2500:2501  j */\n      dup5\n        /* \"contracts/ranking.sol\":2489:2503  Users[uint(j)] */\n      dup2\n      sload\n      dup2\n      lt\n      tag_135\n      jumpi\n      mstore(0x00, 0x4e487b7100000000000000000000000000000000000000000000000000000000)\n      mstore(0x04, 0x32)\n      revert(0x00, 0x24)\n    tag_135:\n      swap1\n      0x00\n      mstore\n      keccak256(0x00, 0x20)\n      add\n      sload\n        /* \"contracts/ranking.sol\":2478:2505  numSolved[ Users[uint(j)] ] */\n      dup2\n      mstore\n      0x20\n      add\n      swap1\n      dup2\n      mstore\n      0x20\n      add\n      0x00\n      keccak256\n      0x00\n      swap1\n      sload\n      swap1\n      0x0100\n      exp\n      swap1\n      div\n      0xff\n      and\n        /* \"contracts/ranking.sol\":2478:2511  numSolved[ Users[uint(j)] ] < key */\n      0xff\n      and\n      lt\n        /* \"contracts/ranking.sol\":2460:2512  (int(j) >= 0) && (numSolved[ Users[uint(j)] ] < key) */\n    tag_134:\n        /* \"contracts/ranking.sol\":2453:2672  while ((int(j) >= 0) && (numSolved[ Users[uint(j)] ] < key)) {... */\n      iszero\n      tag_133\n      jumpi\n        /* \"contracts/ranking.sol\":2555:2560  Users */\n      0x01\n        /* \"contracts/ranking.sol\":2566:2567  j */\n      dup2\n        /* \"contracts/ranking.sol\":2555:2569  Users[uint(j)] */\n      dup2\n      sload\n      dup2\n      lt\n      tag_137\n      jumpi\n      mstore(0x00, 0x4e487b7100000000000000000000000000000000000000000000000000000000)\n      mstore(0x04, 0x32)\n      revert(0x00, 0x24)\n    tag_137:\n      swap1\n      0x00\n      mstore\n      keccak256(0x00, 0x20)\n      add\n      sload\n        /* \"contracts/ranking.sol\":2536:2541  Users */\n      0x01\n        /* \"contracts/ranking.sol\":2549:2550  1 */\n      dup1\n        /* \"contracts/ranking.sol\":2547:2548  j */\n      dup4\n        /* \"contracts/ranking.sol\":2547:2550  j+1 */\n      tag_139\n      swap2\n      swap1\n      tag_140\n      jump\t// in\n    tag_139:\n        /* \"contracts/ranking.sol\":2536:2552  Users[uint(j+1)] */\n      dup2\n      sload\n      dup2\n      lt\n      tag_141\n      jumpi\n      mstore(0x00, 0x4e487b7100000000000000000000000000000000000000000000000000000000)\n      mstore(0x04, 0x32)\n      revert(0x00, 0x24)\n    tag_141:\n      swap1\n      0x00\n      mstore\n      keccak256(0x00, 0x20)\n      add\n        /* \"contracts/ranking.sol\":2536:2569  Users[uint(j+1)] = Users[uint(j)] */\n      dup2\n      swap1\n      sstore\n      pop\n        /* \"contracts/ranking.sol\":2650:2653  j-- */\n      dup1\n      dup1\n      tag_143\n      swap1\n      tag_144\n      jump\t// in\n    tag_143:\n      swap2\n      pop\n      pop\n        /* \"contracts/ranking.sol\":2453:2672  while ((int(j) >= 0) && (numSolved[ Users[uint(j)] ] < key)) {... */\n      jump(tag_132)\n    tag_133:\n        /* \"contracts/ranking.sol\":2708:2716  keyOwner */\n      dup2\n        /* \"contracts/ranking.sol\":2689:2694  Users */\n      0x01\n        /* \"contracts/ranking.sol\":2702:2703  1 */\n      dup1\n        /* \"contracts/ranking.sol\":2700:2701  j */\n      dup4\n        /* \"contracts/ranking.sol\":2700:2703  j+1 */\n      tag_145\n      swap2\n      swap1\n      tag_140\n      jump\t// in\n    tag_145:\n        /* \"contracts/ranking.sol\":2689:2705  Users[uint(j+1)] */\n      dup2\n      sload\n      dup2\n      lt\n      tag_146\n      jumpi\n      mstore(0x00, 0x4e487b7100000000000000000000000000000000000000000000000000000000)\n      mstore(0x04, 0x32)\n      revert(0x00, 0x24)\n    tag_146:\n      swap1\n      0x00\n      mstore\n      keccak256(0x00, 0x20)\n      add\n        /* \"contracts/ranking.sol\":2689:2716  Users[uint(j+1)] = keyOwner */\n      dup2\n      swap1\n      sstore\n      pop\n        /* \"contracts/ranking.sol\":2272:2775  for (uint i = 1; i < length; i++) {... */\n      pop\n      pop\n      pop\n        /* \"contracts/ranking.sol\":2301:2304  i++ */\n      dup1\n      dup1\n      tag_148\n      swap1\n      tag_149\n      jump\t// in\n    tag_148:\n      swap2\n      pop\n      pop\n        /* \"contracts/ranking.sol\":2272:2775  for (uint i = 1; i < length; i++) {... */\n      jump(tag_123)\n    tag_124:\n      pop\n        /* \"contracts/ranking.sol\":2186:2785  function _sortByScore() public  {... */\n      pop\n      jump\t// out\n        /* \"contracts/ranking.sol\":2791:3352  function _sortByTimestamp() public  {... */\n    tag_57:\n        /* \"contracts/ranking.sol\":2837:2848  uint length */\n      0x00\n        /* \"contracts/ranking.sol\":2851:2856  Users */\n      0x01\n        /* \"contracts/ranking.sol\":2851:2863  Users.length */\n      dup1\n      sload\n      swap1\n      pop\n        /* \"contracts/ranking.sol\":2837:2863  uint length = Users.length */\n      swap1\n      pop\n        /* \"contracts/ranking.sol\":2878:2884  uint i */\n      0x00\n        /* \"contracts/ranking.sol\":2887:2888  1 */\n      0x01\n        /* \"contracts/ranking.sol\":2878:2888  uint i = 1 */\n      swap1\n      pop\n        /* \"contracts/ranking.sol\":2873:3346  for (uint i = 1; i < length; i++) {... */\n    tag_151:\n        /* \"contracts/ranking.sol\":2894:2900  length */\n      dup2\n        /* \"contracts/ranking.sol\":2890:2891  i */\n      dup2\n        /* \"contracts/ranking.sol\":2890:2900  i < length */\n      lt\n        /* \"contracts/ranking.sol\":2873:3346  for (uint i = 1; i < length; i++) {... */\n      iszero\n      tag_152\n      jumpi\n        /* \"contracts/ranking.sol\":2921:2929  uint key */\n      0x00\n        /* \"contracts/ranking.sol\":2932:2948  lastModifiedTime */\n      0x02\n        /* \"contracts/ranking.sol\":2932:2958  lastModifiedTime[Users[i]] */\n      0x00\n        /* \"contracts/ranking.sol\":2949:2954  Users */\n      0x01\n        /* \"contracts/ranking.sol\":2955:2956  i */\n      dup5\n        /* \"contracts/ranking.sol\":2949:2957  Users[i] */\n      dup2\n      sload\n      dup2\n      lt\n      tag_154\n      jumpi\n      mstore(0x00, 0x4e487b7100000000000000000000000000000000000000000000000000000000)\n      mstore(0x04, 0x32)\n      revert(0x00, 0x24)\n    tag_154:\n      swap1\n      0x00\n      mstore\n      keccak256(0x00, 0x20)\n      add\n      sload\n        /* \"contracts/ranking.sol\":2932:2958  lastModifiedTime[Users[i]] */\n      dup2\n      mstore\n      0x20\n      add\n      swap1\n      dup2\n      mstore\n      0x20\n      add\n      0x00\n      keccak256\n      sload\n        /* \"contracts/ranking.sol\":2921:2958  uint key = lastModifiedTime[Users[i]] */\n      swap1\n      pop\n        /* \"contracts/ranking.sol\":2972:2988  bytes32 keyOwner */\n      0x00\n        /* \"contracts/ranking.sol\":2991:2996  Users */\n      0x01\n        /* \"contracts/ranking.sol\":2997:2998  i */\n      dup4\n        /* \"contracts/ranking.sol\":2991:2999  Users[i] */\n      dup2\n      sload\n      dup2\n      lt\n      tag_156\n      jumpi\n      mstore(0x00, 0x4e487b7100000000000000000000000000000000000000000000000000000000)\n      mstore(0x04, 0x32)\n      revert(0x00, 0x24)\n    tag_156:\n      swap1\n      0x00\n      mstore\n      keccak256(0x00, 0x20)\n      add\n      sload\n        /* \"contracts/ranking.sol\":2972:2999  bytes32 keyOwner = Users[i] */\n      swap1\n      pop\n        /* \"contracts/ranking.sol\":3013:3018  int j */\n      0x00\n        /* \"contracts/ranking.sol\":3030:3031  1 */\n      0x01\n        /* \"contracts/ranking.sol\":3025:3026  i */\n      dup5\n        /* \"contracts/ranking.sol\":3021:3031  int(i) - 1 */\n      tag_158\n      swap2\n      swap1\n      tag_131\n      jump\t// in\n    tag_158:\n        /* \"contracts/ranking.sol\":3013:3031  int j = int(i) - 1 */\n      swap1\n      pop\n        /* \"contracts/ranking.sol\":3045:3255  while ((int(j) >= 0) && (lastModifiedTime[ Users[uint(j)] ] > key)) {... */\n    tag_159:\n        /* \"contracts/ranking.sol\":3063:3064  0 */\n      0x00\n        /* \"contracts/ranking.sol\":3057:3058  j */\n      dup2\n        /* \"contracts/ranking.sol\":3053:3064  int(j) >= 0 */\n      slt\n      iszero\n        /* \"contracts/ranking.sol\":3052:3111  (int(j) >= 0) && (lastModifiedTime[ Users[uint(j)] ] > key) */\n      dup1\n      iszero\n      tag_161\n      jumpi\n      pop\n        /* \"contracts/ranking.sol\":3107:3110  key */\n      dup3\n        /* \"contracts/ranking.sol\":3070:3086  lastModifiedTime */\n      0x02\n        /* \"contracts/ranking.sol\":3070:3104  lastModifiedTime[ Users[uint(j)] ] */\n      0x00\n        /* \"contracts/ranking.sol\":3088:3093  Users */\n      0x01\n        /* \"contracts/ranking.sol\":3099:3100  j */\n      dup5\n        /* \"contracts/ranking.sol\":3088:3102  Users[uint(j)] */\n      dup2\n      sload\n      dup2\n      lt\n      tag_162\n      jumpi\n      mstore(0x00, 0x4e487b7100000000000000000000000000000000000000000000000000000000)\n      mstore(0x04, 0x32)\n      revert(0x00, 0x24)\n    tag_162:\n      swap1\n      0x00\n      mstore\n      keccak256(0x00, 0x20)\n      add\n      sload\n        /* \"contracts/ranking.sol\":3070:3104  lastModifiedTime[ Users[uint(j)] ] */\n      dup2\n      mstore\n      0x20\n      add\n      swap1\n      dup2\n      mstore\n      0x20\n      add\n      0x00\n      keccak256\n      sload\n        /* \"contracts/ranking.sol\":3070:3110  lastModifiedTime[ Users[uint(j)] ] > key */\n      gt\n        /* \"contracts/ranking.sol\":3052:3111  (int(j) >= 0) && (lastModifiedTime[ Users[uint(j)] ] > key) */\n    tag_161:\n        /* \"contracts/ranking.sol\":3045:3255  while ((int(j) >= 0) && (lastModifiedTime[ Users[uint(j)] ] > key)) {... */\n      iszero\n      tag_160\n      jumpi\n        /* \"contracts/ranking.sol\":3150:3155  Users */\n      0x01\n        /* \"contracts/ranking.sol\":3161:3162  j */\n      dup2\n        /* \"contracts/ranking.sol\":3150:3164  Users[uint(j)] */\n      dup2\n      sload\n      dup2\n      lt\n      tag_164\n      jumpi\n      mstore(0x00, 0x4e487b7100000000000000000000000000000000000000000000000000000000)\n      mstore(0x04, 0x32)\n      revert(0x00, 0x24)\n    tag_164:\n      swap1\n      0x00\n      mstore\n      keccak256(0x00, 0x20)\n      add\n      sload\n        /* \"contracts/ranking.sol\":3131:3136  Users */\n      0x01\n        /* \"contracts/ranking.sol\":3144:3145  1 */\n      dup1\n        /* \"contracts/ranking.sol\":3142:3143  j */\n      dup4\n        /* \"contracts/ranking.sol\":3142:3145  j+1 */\n      tag_166\n      swap2\n      swap1\n      tag_140\n      jump\t// in\n    tag_166:\n        /* \"contracts/ranking.sol\":3131:3147  Users[uint(j+1)] */\n      dup2\n      sload\n      dup2\n      lt\n      tag_167\n      jumpi\n      mstore(0x00, 0x4e487b7100000000000000000000000000000000000000000000000000000000)\n      mstore(0x04, 0x32)\n      revert(0x00, 0x24)\n    tag_167:\n      swap1\n      0x00\n      mstore\n      keccak256(0x00, 0x20)\n      add\n        /* \"contracts/ranking.sol\":3131:3164  Users[uint(j+1)] = Users[uint(j)] */\n      dup2\n      swap1\n      sstore\n      pop\n        /* \"contracts/ranking.sol\":3237:3240  j-- */\n      dup1\n      dup1\n      tag_169\n      swap1\n      tag_144\n      jump\t// in\n    tag_169:\n      swap2\n      pop\n      pop\n        /* \"contracts/ranking.sol\":3045:3255  while ((int(j) >= 0) && (lastModifiedTime[ Users[uint(j)] ] > key)) {... */\n      jump(tag_159)\n    tag_160:\n        /* \"contracts/ranking.sol\":3287:3295  keyOwner */\n      dup2\n        /* \"contracts/ranking.sol\":3268:3273  Users */\n      0x01\n        /* \"contracts/ranking.sol\":3281:3282  1 */\n      dup1\n        /* \"contracts/ranking.sol\":3279:3280  j */\n      dup4\n        /* \"contracts/ranking.sol\":3279:3282  j+1 */\n      tag_170\n      swap2\n      swap1\n      tag_140\n      jump\t// in\n    tag_170:\n        /* \"contracts/ranking.sol\":3268:3284  Users[uint(j+1)] */\n      dup2\n      sload\n      dup2\n      lt\n      tag_171\n      jumpi\n      mstore(0x00, 0x4e487b7100000000000000000000000000000000000000000000000000000000)\n      mstore(0x04, 0x32)\n      revert(0x00, 0x24)\n    tag_171:\n      swap1\n      0x00\n      mstore\n      keccak256(0x00, 0x20)\n      add\n        /* \"contracts/ranking.sol\":3268:3295  Users[uint(j+1)] = keyOwner */\n      dup2\n      swap1\n      sstore\n      pop\n        /* \"contracts/ranking.sol\":2873:3346  for (uint i = 1; i < length; i++) {... */\n      pop\n      pop\n      pop\n        /* \"contracts/ranking.sol\":2902:2905  i++ */\n      dup1\n      dup1\n      tag_173\n      swap1\n      tag_149\n      jump\t// in\n    tag_173:\n      swap2\n      pop\n      pop\n        /* \"contracts/ranking.sol\":2873:3346  for (uint i = 1; i < length; i++) {... */\n      jump(tag_151)\n    tag_152:\n      pop\n        /* \"contracts/ranking.sol\":2791:3352  function _sortByTimestamp() public  {... */\n      pop\n      jump\t// out\n        /* \"contracts/ranking.sol\":973:1198  function _updateUserInfo(bytes32 User_name) public {... */\n    tag_60:\n        /* \"contracts/ranking.sol\":1066:1067  1 */\n      0x01\n        /* \"contracts/ranking.sol\":1043:1052  numSolved */\n      0x03\n        /* \"contracts/ranking.sol\":1043:1063  numSolved[User_name] */\n      0x00\n        /* \"contracts/ranking.sol\":1053:1062  User_name */\n      dup4\n        /* \"contracts/ranking.sol\":1043:1063  numSolved[User_name] */\n      dup2\n      mstore\n      0x20\n      add\n      swap1\n      dup2\n      mstore\n      0x20\n      add\n      0x00\n      keccak256\n      0x00\n        /* \"contracts/ranking.sol\":1043:1067  numSolved[User_name] +=1 */\n      dup3\n      dup3\n      dup3\n      swap1\n      sload\n      swap1\n      0x0100\n      exp\n      swap1\n      div\n      0xff\n      and\n      tag_175\n      swap2\n      swap1\n      tag_176\n      jump\t// in\n    tag_175:\n      swap3\n      pop\n      0x0100\n      exp\n      dup2\n      sload\n      dup2\n      0xff\n      mul\n      not\n      and\n      swap1\n      dup4\n      0xff\n      and\n      mul\n      or\n      swap1\n      sstore\n      pop\n        /* \"contracts/ranking.sol\":1107:1122  block.timestamp */\n      timestamp\n        /* \"contracts/ranking.sol\":1077:1093  lastModifiedTime */\n      0x02\n        /* \"contracts/ranking.sol\":1077:1104  lastModifiedTime[User_name] */\n      0x00\n        /* \"contracts/ranking.sol\":1094:1103  User_name */\n      dup4\n        /* \"contracts/ranking.sol\":1077:1104  lastModifiedTime[User_name] */\n      dup2\n      mstore\n      0x20\n      add\n      swap1\n      dup2\n      mstore\n      0x20\n      add\n      0x00\n      keccak256\n        /* \"contracts/ranking.sol\":1077:1122  lastModifiedTime[User_name] = block.timestamp */\n      dup2\n      swap1\n      sstore\n      pop\n        /* \"contracts/ranking.sol\":973:1198  function _updateUserInfo(bytes32 User_name) public {... */\n      pop\n      jump\t// out\n        /* \"contracts/ranking.sol\":4220:4475  function validUser(bytes32 User_name) view public returns(bool)... */\n    tag_63:\n        /* \"contracts/ranking.sol\":4278:4282  bool */\n      0x00\n        /* \"contracts/ranking.sol\":4298:4307  int index */\n      dup1\n        /* \"contracts/ranking.sol\":4310:4340  _getUserIndexByName(User_name) */\n      tag_178\n        /* \"contracts/ranking.sol\":4330:4339  User_name */\n      dup4\n        /* \"contracts/ranking.sol\":4310:4329  _getUserIndexByName */\n      tag_51\n        /* \"contracts/ranking.sol\":4310:4340  _getUserIndexByName(User_name) */\n      jump\t// in\n    tag_178:\n        /* \"contracts/ranking.sol\":4298:4340  int index = _getUserIndexByName(User_name) */\n      swap1\n      pop\n        /* \"contracts/ranking.sol\":4362:4364  -1 */\n      0xffffffffffffffffffffffffffffffffffffffffffffffffffffffffffffffff\n        /* \"contracts/ranking.sol\":4353:4358  index */\n      dup2\n        /* \"contracts/ranking.sol\":4353:4364  index == -1 */\n      eq\n        /* \"contracts/ranking.sol\":4350:4469  if(index == -1)... */\n      iszero\n      tag_179\n      jumpi\n        /* \"contracts/ranking.sol\":4395:4400  false */\n      0x00\n        /* \"contracts/ranking.sol\":4388:4400  return false */\n      swap2\n      pop\n      pop\n      jump(tag_177)\n        /* \"contracts/ranking.sol\":4350:4469  if(index == -1)... */\n    tag_179:\n        /* \"contracts/ranking.sol\":4454:4458  true */\n      0x01\n        /* \"contracts/ranking.sol\":4447:4458  return true */\n      swap2\n      pop\n      pop\n        /* \"contracts/ranking.sol\":4220:4475  function validUser(bytes32 User_name) view public returns(bool)... */\n    tag_177:\n      swap2\n      swap1\n      pop\n      jump\t// out\n        /* \"contracts/ranking.sol\":3670:3907  function getRankerName(uint rank, uint mode) public returns (bytes32)... */\n    tag_69:\n        /* \"contracts/ranking.sol\":3731:3738  bytes32 */\n      0x00\n        /* \"contracts/ranking.sol\":3762:3777  validMode(mode) */\n      tag_182\n        /* \"contracts/ranking.sol\":3772:3776  mode */\n      dup3\n        /* \"contracts/ranking.sol\":3762:3771  validMode */\n      tag_82\n        /* \"contracts/ranking.sol\":3762:3777  validMode(mode) */\n      jump\t// in\n    tag_182:\n        /* \"contracts/ranking.sol\":3754:3778  require(validMode(mode)) */\n      tag_183\n      jumpi\n      0x00\n      dup1\n      revert\n    tag_183:\n        /* \"contracts/ranking.sol\":3788:3804  _sortUsers(mode) */\n      tag_184\n        /* \"contracts/ranking.sol\":3799:3803  mode */\n      dup3\n        /* \"contracts/ranking.sol\":3788:3798  _sortUsers */\n      tag_45\n        /* \"contracts/ranking.sol\":3788:3804  _sortUsers(mode) */\n      jump\t// in\n    tag_184:\n        /* \"contracts/ranking.sol\":3839:3851  bytes32 user */\n      0x00\n        /* \"contracts/ranking.sol\":3868:3873  Users */\n      0x01\n        /* \"contracts/ranking.sol\":3874:3878  rank */\n      dup5\n        /* \"contracts/ranking.sol\":3868:3879  Users[rank] */\n      dup2\n      sload\n      dup2\n      lt\n      tag_185\n      jumpi\n      mstore(0x00, 0x4e487b7100000000000000000000000000000000000000000000000000000000)\n      mstore(0x04, 0x32)\n      revert(0x00, 0x24)\n    tag_185:\n      swap1\n      0x00\n      mstore\n      keccak256(0x00, 0x20)\n      add\n      sload\n        /* \"contracts/ranking.sol\":3861:3879  user = Users[rank] */\n      swap1\n      pop\n        /* \"contracts/ranking.sol\":3896:3900  user */\n      dup1\n        /* \"contracts/ranking.sol\":3889:3900  return user */\n      swap2\n      pop\n      pop\n        /* \"contracts/ranking.sol\":3670:3907  function getRankerName(uint rank, uint mode) public returns (bytes32)... */\n      swap3\n      swap2\n      pop\n      pop\n      jump\t// out\n        /* \"contracts/ranking.sol\":357:409  mapping (bytes32 => uint256) public lastModifiedTime */\n    tag_73:\n      mstore(0x20, 0x02)\n      dup1\n      0x00\n      mstore\n      keccak256(0x00, 0x40)\n      0x00\n      swap2\n      pop\n      swap1\n      pop\n      sload\n      dup2\n      jump\t// out\n        /* \"contracts/ranking.sol\":4692:4998  function _stringToBytes32(string memory source) public returns (bytes32 result) ... */\n    tag_78:\n        /* \"contracts/ranking.sol\":4756:4770  bytes32 result */\n      0x00\n        /* \"contracts/ranking.sol\":4787:4819  bytes memory tempEmptyStringTest */\n      dup1\n        /* \"contracts/ranking.sol\":4828:4834  source */\n      dup3\n        /* \"contracts/ranking.sol\":4787:4835  bytes memory tempEmptyStringTest = bytes(source) */\n      swap1\n      pop\n        /* \"contracts/ranking.sol\":4879:4880  0 */\n      0x00\n        /* \"contracts/ranking.sol\":4849:4868  tempEmptyStringTest */\n      dup2\n        /* \"contracts/ranking.sol\":4849:4875  tempEmptyStringTest.length */\n      mload\n        /* \"contracts/ranking.sol\":4849:4880  tempEmptyStringTest.length == 0 */\n      eq\n        /* \"contracts/ranking.sol\":4845:4917  if (tempEmptyStringTest.length == 0) {... */\n      iszero\n      tag_188\n      jumpi\n        /* \"contracts/ranking.sol\":4903:4906  0x0 */\n      0x00\n        /* \"contracts/ranking.sol\":4896:4906  return 0x0 */\n      dup1\n      shl\n      swap2\n      pop\n      pop\n      jump(tag_187)\n        /* \"contracts/ranking.sol\":4845:4917  if (tempEmptyStringTest.length == 0) {... */\n    tag_188:\n        /* \"contracts/ranking.sol\":4978:4980  32 */\n      0x20\n        /* \"contracts/ranking.sol\":4970:4976  source */\n      dup4\n        /* \"contracts/ranking.sol\":4966:4981  add(source, 32) */\n      add\n        /* \"contracts/ranking.sol\":4960:4982  mload(add(source, 32)) */\n      mload\n        /* \"contracts/ranking.sol\":4950:4982  result := mload(add(source, 32)) */\n      swap2\n      pop\n        /* \"contracts/ranking.sol\":4936:4992  {... */\n      pop\n    tag_187:\n      swap2\n      swap1\n      pop\n      jump\t// out\n        /* \"contracts/ranking.sol\":4481:4686  function validMode(uint mode) view public returns(bool)... */\n    tag_82:\n        /* \"contracts/ranking.sol\":4531:4535  bool */\n      0x00\n        /* \"contracts/ranking.sol\":4561:4562  1 */\n      0x01\n        /* \"contracts/ranking.sol\":4554:4558  mode */\n      dup3\n        /* \"contracts/ranking.sol\":4554:4562  mode ==1 */\n      eq\n        /* \"contracts/ranking.sol\":4554:4574  mode ==1 || mode ==2 */\n      dup1\n      tag_190\n      jumpi\n      pop\n        /* \"contracts/ranking.sol\":4573:4574  2 */\n      0x02\n        /* \"contracts/ranking.sol\":4566:4570  mode */\n      dup3\n        /* \"contracts/ranking.sol\":4566:4574  mode ==2 */\n      eq\n        /* \"contracts/ranking.sol\":4554:4574  mode ==1 || mode ==2 */\n    tag_190:\n        /* \"contracts/ranking.sol\":4551:4680  if(mode ==1 || mode ==2)... */\n      iszero\n      tag_191\n      jumpi\n        /* \"contracts/ranking.sol\":4605:4609  true */\n      0x01\n        /* \"contracts/ranking.sol\":4598:4609  return true */\n      swap1\n      pop\n      jump(tag_189)\n        /* \"contracts/ranking.sol\":4551:4680  if(mode ==1 || mode ==2)... */\n    tag_191:\n        /* \"contracts/ranking.sol\":4664:4669  false */\n      0x00\n        /* \"contracts/ranking.sol\":4657:4669  return false */\n      swap1\n      pop\n        /* \"contracts/ranking.sol\":4481:4686  function validMode(uint mode) view public returns(bool)... */\n    tag_189:\n      swap2\n      swap1\n      pop\n      jump\t// out\n        /* \"contracts/ranking.sol\":3913:4214  function getRankByName(string memory user_name, uint mode) public returns (uint)... */\n    tag_87:\n        /* \"contracts/ranking.sol\":3988:3992  uint */\n      0x00\n        /* \"contracts/ranking.sol\":4008:4025  bytes32 User_name */\n      dup1\n        /* \"contracts/ranking.sol\":4028:4055  _stringToBytes32(user_name) */\n      tag_194\n        /* \"contracts/ranking.sol\":4045:4054  user_name */\n      dup5\n        /* \"contracts/ranking.sol\":4028:4044  _stringToBytes32 */\n      tag_78\n        /* \"contracts/ranking.sol\":4028:4055  _stringToBytes32(user_name) */\n      jump\t// in\n    tag_194:\n        /* \"contracts/ranking.sol\":4008:4055  bytes32 User_name = _stringToBytes32(user_name) */\n      swap1\n      pop\n        /* \"contracts/ranking.sol\":4073:4093  validUser(User_name) */\n      tag_195\n        /* \"contracts/ranking.sol\":4083:4092  User_name */\n      dup2\n        /* \"contracts/ranking.sol\":4073:4082  validUser */\n      tag_63\n        /* \"contracts/ranking.sol\":4073:4093  validUser(User_name) */\n      jump\t// in\n    tag_195:\n        /* \"contracts/ranking.sol\":4065:4094  require(validUser(User_name)) */\n      tag_196\n      jumpi\n      0x00\n      dup1\n      revert\n    tag_196:\n        /* \"contracts/ranking.sol\":4112:4127  validMode(mode) */\n      tag_197\n        /* \"contracts/ranking.sol\":4122:4126  mode */\n      dup4\n        /* \"contracts/ranking.sol\":4112:4121  validMode */\n      tag_82\n        /* \"contracts/ranking.sol\":4112:4127  validMode(mode) */\n      jump\t// in\n    tag_197:\n        /* \"contracts/ranking.sol\":4104:4128  require(validMode(mode)) */\n      tag_198\n      jumpi\n      0x00\n      dup1\n      revert\n    tag_198:\n        /* \"contracts/ranking.sol\":4138:4154  _sortUsers(mode) */\n      tag_199\n        /* \"contracts/ranking.sol\":4149:4153  mode */\n      dup4\n        /* \"contracts/ranking.sol\":4138:4148  _sortUsers */\n      tag_45\n        /* \"contracts/ranking.sol\":4138:4154  _sortUsers(mode) */\n      jump\t// in\n    tag_199:\n        /* \"contracts/ranking.sol\":4176:4206  _getUserIndexByName(User_name) */\n      tag_200\n        /* \"contracts/ranking.sol\":4196:4205  User_name */\n      dup2\n        /* \"contracts/ranking.sol\":4176:4195  _getUserIndexByName */\n      tag_51\n        /* \"contracts/ranking.sol\":4176:4206  _getUserIndexByName(User_name) */\n      jump\t// in\n    tag_200:\n        /* \"contracts/ranking.sol\":4164:4207  return uint(_getUserIndexByName(User_name)) */\n      swap2\n      pop\n      pop\n        /* \"contracts/ranking.sol\":3913:4214  function getRankByName(string memory user_name, uint mode) public returns (uint)... */\n      swap3\n      swap2\n      pop\n      pop\n      jump\t// out\n        /* \"contracts/ranking.sol\":5004:5173  function _Bytes32ToString(bytes32  source) public returns (string memory) {... */\n    tag_91:\n        /* \"contracts/ranking.sol\":5063:5076  string memory */\n      0x60\n        /* \"contracts/ranking.sol\":5088:5108  string memory result */\n      0x00\n        /* \"contracts/ranking.sol\":5135:5141  source */\n      dup3\n        /* \"contracts/ranking.sol\":5118:5142  abi.encodePacked(source) */\n      add(0x20, mload(0x40))\n      tag_202\n      swap2\n      swap1\n      tag_203\n      jump\t// in\n    tag_202:\n      mload(0x40)\n      0x20\n      dup2\n      dup4\n      sub\n      sub\n      dup2\n      mstore\n      swap1\n      0x40\n      mstore\n        /* \"contracts/ranking.sol\":5088:5143  string memory result = string(abi.encodePacked(source)) */\n      swap1\n      pop\n        /* \"contracts/ranking.sol\":5160:5166  result */\n      dup1\n        /* \"contracts/ranking.sol\":5153:5166  return result */\n      swap2\n      pop\n      pop\n        /* \"contracts/ranking.sol\":5004:5173  function _Bytes32ToString(bytes32  source) public returns (string memory) {... */\n      swap2\n      swap1\n      pop\n      jump\t// out\n        /* \"#utility.yul\":7:351   */\n    tag_205:\n      0x00\n        /* \"#utility.yul\":110:175   */\n      tag_207\n        /* \"#utility.yul\":125:174   */\n      tag_208\n        /* \"#utility.yul\":167:173   */\n      dup5\n        /* \"#utility.yul\":125:174   */\n      tag_209\n      jump\t// in\n    tag_208:\n        /* \"#utility.yul\":110:175   */\n      tag_210\n      jump\t// in\n    tag_207:\n        /* \"#utility.yul\":101:175   */\n      swap1\n      pop\n        /* \"#utility.yul\":198:204   */\n      dup3\n        /* \"#utility.yul\":191:196   */\n      dup2\n        /* \"#utility.yul\":184:205   */\n      mstore\n        /* \"#utility.yul\":236:240   */\n      0x20\n        /* \"#utility.yul\":229:234   */\n      dup2\n        /* \"#utility.yul\":225:241   */\n      add\n        /* \"#utility.yul\":274:277   */\n      dup5\n        /* \"#utility.yul\":265:271   */\n      dup5\n        /* \"#utility.yul\":260:263   */\n      dup5\n        /* \"#utility.yul\":256:272   */\n      add\n        /* \"#utility.yul\":253:278   */\n      gt\n        /* \"#utility.yul\":250:252   */\n      iszero\n      tag_211\n      jumpi\n        /* \"#utility.yul\":291:292   */\n      0x00\n        /* \"#utility.yul\":288:289   */\n      dup1\n        /* \"#utility.yul\":281:293   */\n      revert\n        /* \"#utility.yul\":250:252   */\n    tag_211:\n        /* \"#utility.yul\":304:345   */\n      tag_212\n        /* \"#utility.yul\":338:344   */\n      dup5\n        /* \"#utility.yul\":333:336   */\n      dup3\n        /* \"#utility.yul\":328:331   */\n      dup6\n        /* \"#utility.yul\":304:345   */\n      tag_213\n      jump\t// in\n    tag_212:\n        /* \"#utility.yul\":91:351   */\n      pop\n      swap4\n      swap3\n      pop\n      pop\n      pop\n      jump\t// out\n        /* \"#utility.yul\":357:496   */\n    tag_214:\n      0x00\n        /* \"#utility.yul\":441:447   */\n      dup2\n        /* \"#utility.yul\":428:448   */\n      calldataload\n        /* \"#utility.yul\":419:448   */\n      swap1\n      pop\n        /* \"#utility.yul\":457:490   */\n      tag_216\n        /* \"#utility.yul\":484:489   */\n      dup2\n        /* \"#utility.yul\":457:490   */\n      tag_217\n      jump\t// in\n    tag_216:\n        /* \"#utility.yul\":409:496   */\n      swap3\n      swap2\n      pop\n      pop\n      jump\t// out\n        /* \"#utility.yul\":516:789   */\n    tag_218:\n      0x00\n        /* \"#utility.yul\":621:624   */\n      dup3\n        /* \"#utility.yul\":614:618   */\n      0x1f\n        /* \"#utility.yul\":606:612   */\n      dup4\n        /* \"#utility.yul\":602:619   */\n      add\n        /* \"#utility.yul\":598:625   */\n      slt\n        /* \"#utility.yul\":588:590   */\n      tag_220\n      jumpi\n        /* \"#utility.yul\":639:640   */\n      0x00\n        /* \"#utility.yul\":636:637   */\n      dup1\n        /* \"#utility.yul\":629:641   */\n      revert\n        /* \"#utility.yul\":588:590   */\n    tag_220:\n        /* \"#utility.yul\":679:685   */\n      dup2\n        /* \"#utility.yul\":666:686   */\n      calldataload\n        /* \"#utility.yul\":704:783   */\n      tag_221\n        /* \"#utility.yul\":779:782   */\n      dup5\n        /* \"#utility.yul\":771:777   */\n      dup3\n        /* \"#utility.yul\":764:768   */\n      0x20\n        /* \"#utility.yul\":756:762   */\n      dup7\n        /* \"#utility.yul\":752:769   */\n      add\n        /* \"#utility.yul\":704:783   */\n      tag_205\n      jump\t// in\n    tag_221:\n        /* \"#utility.yul\":695:783   */\n      swap2\n      pop\n        /* \"#utility.yul\":578:789   */\n      pop\n      swap3\n      swap2\n      pop\n      pop\n      jump\t// out\n        /* \"#utility.yul\":795:934   */\n    tag_222:\n      0x00\n        /* \"#utility.yul\":879:885   */\n      dup2\n        /* \"#utility.yul\":866:886   */\n      calldataload\n        /* \"#utility.yul\":857:886   */\n      swap1\n      pop\n        /* \"#utility.yul\":895:928   */\n      tag_224\n        /* \"#utility.yul\":922:927   */\n      dup2\n        /* \"#utility.yul\":895:928   */\n      tag_225\n      jump\t// in\n    tag_224:\n        /* \"#utility.yul\":847:934   */\n      swap3\n      swap2\n      pop\n      pop\n      jump\t// out\n        /* \"#utility.yul\":940:1202   */\n    tag_31:\n      0x00\n        /* \"#utility.yul\":1048:1050   */\n      0x20\n        /* \"#utility.yul\":1036:1045   */\n      dup3\n        /* \"#utility.yul\":1027:1034   */\n      dup5\n        /* \"#utility.yul\":1023:1046   */\n      sub\n        /* \"#utility.yul\":1019:1051   */\n      slt\n        /* \"#utility.yul\":1016:1018   */\n      iszero\n      tag_227\n      jumpi\n        /* \"#utility.yul\":1064:1065   */\n      0x00\n        /* \"#utility.yul\":1061:1062   */\n      dup1\n        /* \"#utility.yul\":1054:1066   */\n      revert\n        /* \"#utility.yul\":1016:1018   */\n    tag_227:\n        /* \"#utility.yul\":1107:1108   */\n      0x00\n        /* \"#utility.yul\":1132:1185   */\n      tag_228\n        /* \"#utility.yul\":1177:1184   */\n      dup5\n        /* \"#utility.yul\":1168:1174   */\n      dup3\n        /* \"#utility.yul\":1157:1166   */\n      dup6\n        /* \"#utility.yul\":1153:1175   */\n      add\n        /* \"#utility.yul\":1132:1185   */\n      tag_214\n      jump\t// in\n    tag_228:\n        /* \"#utility.yul\":1122:1185   */\n      swap2\n      pop\n        /* \"#utility.yul\":1078:1195   */\n      pop\n        /* \"#utility.yul\":1006:1202   */\n      swap3\n      swap2\n      pop\n      pop\n      jump\t// out\n        /* \"#utility.yul\":1208:1583   */\n    tag_25:\n      0x00\n        /* \"#utility.yul\":1326:1328   */\n      0x20\n        /* \"#utility.yul\":1314:1323   */\n      dup3\n        /* \"#utility.yul\":1305:1312   */\n      dup5\n        /* \"#utility.yul\":1301:1324   */\n      sub\n        /* \"#utility.yul\":1297:1329   */\n      slt\n        /* \"#utility.yul\":1294:1296   */\n      iszero\n      tag_230\n      jumpi\n        /* \"#utility.yul\":1342:1343   */\n      0x00\n        /* \"#utility.yul\":1339:1340   */\n      dup1\n        /* \"#utility.yul\":1332:1344   */\n      revert\n        /* \"#utility.yul\":1294:1296   */\n    tag_230:\n        /* \"#utility.yul\":1413:1414   */\n      0x00\n        /* \"#utility.yul\":1402:1411   */\n      dup3\n        /* \"#utility.yul\":1398:1415   */\n      add\n        /* \"#utility.yul\":1385:1416   */\n      calldataload\n        /* \"#utility.yul\":1443:1461   */\n      0xffffffffffffffff\n        /* \"#utility.yul\":1435:1441   */\n      dup2\n        /* \"#utility.yul\":1432:1462   */\n      gt\n        /* \"#utility.yul\":1429:1431   */\n      iszero\n      tag_231\n      jumpi\n        /* \"#utility.yul\":1475:1476   */\n      0x00\n        /* \"#utility.yul\":1472:1473   */\n      dup1\n        /* \"#utility.yul\":1465:1477   */\n      revert\n        /* \"#utility.yul\":1429:1431   */\n    tag_231:\n        /* \"#utility.yul\":1503:1566   */\n      tag_232\n        /* \"#utility.yul\":1558:1565   */\n      dup5\n        /* \"#utility.yul\":1549:1555   */\n      dup3\n        /* \"#utility.yul\":1538:1547   */\n      dup6\n        /* \"#utility.yul\":1534:1556   */\n      add\n        /* \"#utility.yul\":1503:1566   */\n      tag_218\n      jump\t// in\n    tag_232:\n        /* \"#utility.yul\":1493:1566   */\n      swap2\n      pop\n        /* \"#utility.yul\":1356:1576   */\n      pop\n        /* \"#utility.yul\":1284:1583   */\n      swap3\n      swap2\n      pop\n      pop\n      jump\t// out\n        /* \"#utility.yul\":1589:2109   */\n    tag_86:\n      0x00\n      dup1\n        /* \"#utility.yul\":1724:1726   */\n      0x40\n        /* \"#utility.yul\":1712:1721   */\n      dup4\n        /* \"#utility.yul\":1703:1710   */\n      dup6\n        /* \"#utility.yul\":1699:1722   */\n      sub\n        /* \"#utility.yul\":1695:1727   */\n      slt\n        /* \"#utility.yul\":1692:1694   */\n      iszero\n      tag_234\n      jumpi\n        /* \"#utility.yul\":1740:1741   */\n      0x00\n        /* \"#utility.yul\":1737:1738   */\n      dup1\n        /* \"#utility.yul\":1730:1742   */\n      revert\n        /* \"#utility.yul\":1692:1694   */\n    tag_234:\n        /* \"#utility.yul\":1811:1812   */\n      0x00\n        /* \"#utility.yul\":1800:1809   */\n      dup4\n        /* \"#utility.yul\":1796:1813   */\n      add\n        /* \"#utility.yul\":1783:1814   */\n      calldataload\n        /* \"#utility.yul\":1841:1859   */\n      0xffffffffffffffff\n        /* \"#utility.yul\":1833:1839   */\n      dup2\n        /* \"#utility.yul\":1830:1860   */\n      gt\n        /* \"#utility.yul\":1827:1829   */\n      iszero\n      tag_235\n      jumpi\n        /* \"#utility.yul\":1873:1874   */\n      0x00\n        /* \"#utility.yul\":1870:1871   */\n      dup1\n        /* \"#utility.yul\":1863:1875   */\n      revert\n        /* \"#utility.yul\":1827:1829   */\n    tag_235:\n        /* \"#utility.yul\":1901:1964   */\n      tag_236\n        /* \"#utility.yul\":1956:1963   */\n      dup6\n        /* \"#utility.yul\":1947:1953   */\n      dup3\n        /* \"#utility.yul\":1936:1945   */\n      dup7\n        /* \"#utility.yul\":1932:1954   */\n      add\n        /* \"#utility.yul\":1901:1964   */\n      tag_218\n      jump\t// in\n    tag_236:\n        /* \"#utility.yul\":1891:1964   */\n      swap3\n      pop\n        /* \"#utility.yul\":1754:1974   */\n      pop\n        /* \"#utility.yul\":2013:2015   */\n      0x20\n        /* \"#utility.yul\":2039:2092   */\n      tag_237\n        /* \"#utility.yul\":2084:2091   */\n      dup6\n        /* \"#utility.yul\":2075:2081   */\n      dup3\n        /* \"#utility.yul\":2064:2073   */\n      dup7\n        /* \"#utility.yul\":2060:2082   */\n      add\n        /* \"#utility.yul\":2039:2092   */\n      tag_222\n      jump\t// in\n    tag_237:\n        /* \"#utility.yul\":2029:2092   */\n      swap2\n      pop\n        /* \"#utility.yul\":1984:2102   */\n      pop\n        /* \"#utility.yul\":1682:2109   */\n      swap3\n      pop\n      swap3\n      swap1\n      pop\n      jump\t// out\n        /* \"#utility.yul\":2115:2377   */\n    tag_39:\n      0x00\n        /* \"#utility.yul\":2223:2225   */\n      0x20\n        /* \"#utility.yul\":2211:2220   */\n      dup3\n        /* \"#utility.yul\":2202:2209   */\n      dup5\n        /* \"#utility.yul\":2198:2221   */\n      sub\n        /* \"#utility.yul\":2194:2226   */\n      slt\n        /* \"#utility.yul\":2191:2193   */\n      iszero\n      tag_239\n      jumpi\n        /* \"#utility.yul\":2239:2240   */\n      0x00\n        /* \"#utility.yul\":2236:2237   */\n      dup1\n        /* \"#utility.yul\":2229:2241   */\n      revert\n        /* \"#utility.yul\":2191:2193   */\n    tag_239:\n        /* \"#utility.yul\":2282:2283   */\n      0x00\n        /* \"#utility.yul\":2307:2360   */\n      tag_240\n        /* \"#utility.yul\":2352:2359   */\n      dup5\n        /* \"#utility.yul\":2343:2349   */\n      dup3\n        /* \"#utility.yul\":2332:2341   */\n      dup6\n        /* \"#utility.yul\":2328:2350   */\n      add\n        /* \"#utility.yul\":2307:2360   */\n      tag_222\n      jump\t// in\n    tag_240:\n        /* \"#utility.yul\":2297:2360   */\n      swap2\n      pop\n        /* \"#utility.yul\":2253:2370   */\n      pop\n        /* \"#utility.yul\":2181:2377   */\n      swap3\n      swap2\n      pop\n      pop\n      jump\t// out\n        /* \"#utility.yul\":2383:2790   */\n    tag_68:\n      0x00\n      dup1\n        /* \"#utility.yul\":2508:2510   */\n      0x40\n        /* \"#utility.yul\":2496:2505   */\n      dup4\n        /* \"#utility.yul\":2487:2494   */\n      dup6\n        /* \"#utility.yul\":2483:2506   */\n      sub\n        /* \"#utility.yul\":2479:2511   */\n      slt\n        /* \"#utility.yul\":2476:2478   */\n      iszero\n      tag_242\n      jumpi\n        /* \"#utility.yul\":2524:2525   */\n      0x00\n        /* \"#utility.yul\":2521:2522   */\n      dup1\n        /* \"#utility.yul\":2514:2526   */\n      revert\n        /* \"#utility.yul\":2476:2478   */\n    tag_242:\n        /* \"#utility.yul\":2567:2568   */\n      0x00\n        /* \"#utility.yul\":2592:2645   */\n      tag_243\n        /* \"#utility.yul\":2637:2644   */\n      dup6\n        /* \"#utility.yul\":2628:2634   */\n      dup3\n        /* \"#utility.yul\":2617:2626   */\n      dup7\n        /* \"#utility.yul\":2613:2635   */\n      add\n        /* \"#utility.yul\":2592:2645   */\n      tag_222\n      jump\t// in\n    tag_243:\n        /* \"#utility.yul\":2582:2645   */\n      swap3\n      pop\n        /* \"#utility.yul\":2538:2655   */\n      pop\n        /* \"#utility.yul\":2694:2696   */\n      0x20\n        /* \"#utility.yul\":2720:2773   */\n      tag_244\n        /* \"#utility.yul\":2765:2772   */\n      dup6\n        /* \"#utility.yul\":2756:2762   */\n      dup3\n        /* \"#utility.yul\":2745:2754   */\n      dup7\n        /* \"#utility.yul\":2741:2763   */\n      add\n        /* \"#utility.yul\":2720:2773   */\n      tag_222\n      jump\t// in\n    tag_244:\n        /* \"#utility.yul\":2710:2773   */\n      swap2\n      pop\n        /* \"#utility.yul\":2665:2783   */\n      pop\n        /* \"#utility.yul\":2466:2790   */\n      swap3\n      pop\n      swap3\n      swap1\n      pop\n      jump\t// out\n        /* \"#utility.yul\":2796:2905   */\n    tag_245:\n        /* \"#utility.yul\":2877:2898   */\n      tag_247\n        /* \"#utility.yul\":2892:2897   */\n      dup2\n        /* \"#utility.yul\":2877:2898   */\n      tag_248\n      jump\t// in\n    tag_247:\n        /* \"#utility.yul\":2872:2875   */\n      dup3\n        /* \"#utility.yul\":2865:2899   */\n      mstore\n        /* \"#utility.yul\":2855:2905   */\n      pop\n      pop\n      jump\t// out\n        /* \"#utility.yul\":2911:3029   */\n    tag_249:\n        /* \"#utility.yul\":2998:3022   */\n      tag_251\n        /* \"#utility.yul\":3016:3021   */\n      dup2\n        /* \"#utility.yul\":2998:3022   */\n      tag_252\n      jump\t// in\n    tag_251:\n        /* \"#utility.yul\":2993:2996   */\n      dup3\n        /* \"#utility.yul\":2986:3023   */\n      mstore\n        /* \"#utility.yul\":2976:3029   */\n      pop\n      pop\n      jump\t// out\n        /* \"#utility.yul\":3035:3192   */\n    tag_253:\n        /* \"#utility.yul\":3140:3185   */\n      tag_255\n        /* \"#utility.yul\":3160:3184   */\n      tag_256\n        /* \"#utility.yul\":3178:3183   */\n      dup3\n        /* \"#utility.yul\":3160:3184   */\n      tag_252\n      jump\t// in\n    tag_256:\n        /* \"#utility.yul\":3140:3185   */\n      tag_257\n      jump\t// in\n    tag_255:\n        /* \"#utility.yul\":3135:3138   */\n      dup3\n        /* \"#utility.yul\":3128:3186   */\n      mstore\n        /* \"#utility.yul\":3118:3192   */\n      pop\n      pop\n      jump\t// out\n        /* \"#utility.yul\":3198:3313   */\n    tag_258:\n        /* \"#utility.yul\":3283:3306   */\n      tag_260\n        /* \"#utility.yul\":3300:3305   */\n      dup2\n        /* \"#utility.yul\":3283:3306   */\n      tag_261\n      jump\t// in\n    tag_260:\n        /* \"#utility.yul\":3278:3281   */\n      dup3\n        /* \"#utility.yul\":3271:3307   */\n      mstore\n        /* \"#utility.yul\":3261:3313   */\n      pop\n      pop\n      jump\t// out\n        /* \"#utility.yul\":3319:3683   */\n    tag_262:\n      0x00\n        /* \"#utility.yul\":3435:3474   */\n      tag_264\n        /* \"#utility.yul\":3468:3473   */\n      dup3\n        /* \"#utility.yul\":3435:3474   */\n      tag_265\n      jump\t// in\n    tag_264:\n        /* \"#utility.yul\":3490:3561   */\n      tag_266\n        /* \"#utility.yul\":3554:3560   */\n      dup2\n        /* \"#utility.yul\":3549:3552   */\n      dup6\n        /* \"#utility.yul\":3490:3561   */\n      tag_267\n      jump\t// in\n    tag_266:\n        /* \"#utility.yul\":3483:3561   */\n      swap4\n      pop\n        /* \"#utility.yul\":3570:3622   */\n      tag_268\n        /* \"#utility.yul\":3615:3621   */\n      dup2\n        /* \"#utility.yul\":3610:3613   */\n      dup6\n        /* \"#utility.yul\":3603:3607   */\n      0x20\n        /* \"#utility.yul\":3596:3601   */\n      dup7\n        /* \"#utility.yul\":3592:3608   */\n      add\n        /* \"#utility.yul\":3570:3622   */\n      tag_269\n      jump\t// in\n    tag_268:\n        /* \"#utility.yul\":3647:3676   */\n      tag_270\n        /* \"#utility.yul\":3669:3675   */\n      dup2\n        /* \"#utility.yul\":3647:3676   */\n      tag_271\n      jump\t// in\n    tag_270:\n        /* \"#utility.yul\":3642:3645   */\n      dup5\n        /* \"#utility.yul\":3638:3677   */\n      add\n        /* \"#utility.yul\":3631:3677   */\n      swap2\n      pop\n        /* \"#utility.yul\":3411:3683   */\n      pop\n      swap3\n      swap2\n      pop\n      pop\n      jump\t// out\n        /* \"#utility.yul\":3689:3807   */\n    tag_272:\n        /* \"#utility.yul\":3776:3800   */\n      tag_274\n        /* \"#utility.yul\":3794:3799   */\n      dup2\n        /* \"#utility.yul\":3776:3800   */\n      tag_275\n      jump\t// in\n    tag_274:\n        /* \"#utility.yul\":3771:3774   */\n      dup3\n        /* \"#utility.yul\":3764:3801   */\n      mstore\n        /* \"#utility.yul\":3754:3807   */\n      pop\n      pop\n      jump\t// out\n        /* \"#utility.yul\":3813:3925   */\n    tag_276:\n        /* \"#utility.yul\":3896:3918   */\n      tag_278\n        /* \"#utility.yul\":3912:3917   */\n      dup2\n        /* \"#utility.yul\":3896:3918   */\n      tag_279\n      jump\t// in\n    tag_278:\n        /* \"#utility.yul\":3891:3894   */\n      dup3\n        /* \"#utility.yul\":3884:3919   */\n      mstore\n        /* \"#utility.yul\":3874:3925   */\n      pop\n      pop\n      jump\t// out\n        /* \"#utility.yul\":3931:4187   */\n    tag_203:\n      0x00\n        /* \"#utility.yul\":4058:4133   */\n      tag_281\n        /* \"#utility.yul\":4129:4132   */\n      dup3\n        /* \"#utility.yul\":4120:4126   */\n      dup5\n        /* \"#utility.yul\":4058:4133   */\n      tag_253\n      jump\t// in\n    tag_281:\n        /* \"#utility.yul\":4158:4160   */\n      0x20\n        /* \"#utility.yul\":4153:4156   */\n      dup3\n        /* \"#utility.yul\":4149:4161   */\n      add\n        /* \"#utility.yul\":4142:4161   */\n      swap2\n      pop\n        /* \"#utility.yul\":4178:4181   */\n      dup2\n        /* \"#utility.yul\":4171:4181   */\n      swap1\n      pop\n        /* \"#utility.yul\":4047:4187   */\n      swap3\n      swap2\n      pop\n      pop\n      jump\t// out\n        /* \"#utility.yul\":4193:4403   */\n    tag_65:\n      0x00\n        /* \"#utility.yul\":4318:4320   */\n      0x20\n        /* \"#utility.yul\":4307:4316   */\n      dup3\n        /* \"#utility.yul\":4303:4321   */\n      add\n        /* \"#utility.yul\":4295:4321   */\n      swap1\n      pop\n        /* \"#utility.yul\":4331:4396   */\n      tag_283\n        /* \"#utility.yul\":4393:4394   */\n      0x00\n        /* \"#utility.yul\":4382:4391   */\n      dup4\n        /* \"#utility.yul\":4378:4395   */\n      add\n        /* \"#utility.yul\":4369:4375   */\n      dup5\n        /* \"#utility.yul\":4331:4396   */\n      tag_245\n      jump\t// in\n    tag_283:\n        /* \"#utility.yul\":4285:4403   */\n      swap3\n      swap2\n      pop\n      pop\n      jump\t// out\n        /* \"#utility.yul\":4409:4631   */\n    tag_42:\n      0x00\n        /* \"#utility.yul\":4540:4542   */\n      0x20\n        /* \"#utility.yul\":4529:4538   */\n      dup3\n        /* \"#utility.yul\":4525:4543   */\n      add\n        /* \"#utility.yul\":4517:4543   */\n      swap1\n      pop\n        /* \"#utility.yul\":4553:4624   */\n      tag_285\n        /* \"#utility.yul\":4621:4622   */\n      0x00\n        /* \"#utility.yul\":4610:4619   */\n      dup4\n        /* \"#utility.yul\":4606:4623   */\n      add\n        /* \"#utility.yul\":4597:4603   */\n      dup5\n        /* \"#utility.yul\":4553:4624   */\n      tag_249\n      jump\t// in\n    tag_285:\n        /* \"#utility.yul\":4507:4631   */\n      swap3\n      swap2\n      pop\n      pop\n      jump\t// out\n        /* \"#utility.yul\":4637:4855   */\n    tag_53:\n      0x00\n        /* \"#utility.yul\":4766:4768   */\n      0x20\n        /* \"#utility.yul\":4755:4764   */\n      dup3\n        /* \"#utility.yul\":4751:4769   */\n      add\n        /* \"#utility.yul\":4743:4769   */\n      swap1\n      pop\n        /* \"#utility.yul\":4779:4848   */\n      tag_287\n        /* \"#utility.yul\":4845:4846   */\n      0x00\n        /* \"#utility.yul\":4834:4843   */\n      dup4\n        /* \"#utility.yul\":4830:4847   */\n      add\n        /* \"#utility.yul\":4821:4827   */\n      dup5\n        /* \"#utility.yul\":4779:4848   */\n      tag_258\n      jump\t// in\n    tag_287:\n        /* \"#utility.yul\":4733:4855   */\n      swap3\n      swap2\n      pop\n      pop\n      jump\t// out\n        /* \"#utility.yul\":4861:5174   */\n    tag_93:\n      0x00\n        /* \"#utility.yul\":5012:5014   */\n      0x20\n        /* \"#utility.yul\":5001:5010   */\n      dup3\n        /* \"#utility.yul\":4997:5015   */\n      add\n        /* \"#utility.yul\":4989:5015   */\n      swap1\n      pop\n        /* \"#utility.yul\":5061:5070   */\n      dup2\n        /* \"#utility.yul\":5055:5059   */\n      dup2\n        /* \"#utility.yul\":5051:5071   */\n      sub\n        /* \"#utility.yul\":5047:5048   */\n      0x00\n        /* \"#utility.yul\":5036:5045   */\n      dup4\n        /* \"#utility.yul\":5032:5049   */\n      add\n        /* \"#utility.yul\":5025:5072   */\n      mstore\n        /* \"#utility.yul\":5089:5167   */\n      tag_289\n        /* \"#utility.yul\":5162:5166   */\n      dup2\n        /* \"#utility.yul\":5153:5159   */\n      dup5\n        /* \"#utility.yul\":5089:5167   */\n      tag_262\n      jump\t// in\n    tag_289:\n        /* \"#utility.yul\":5081:5167   */\n      swap1\n      pop\n        /* \"#utility.yul\":4979:5174   */\n      swap3\n      swap2\n      pop\n      pop\n      jump\t// out\n        /* \"#utility.yul\":5180:5402   */\n    tag_75:\n      0x00\n        /* \"#utility.yul\":5311:5313   */\n      0x20\n        /* \"#utility.yul\":5300:5309   */\n      dup3\n        /* \"#utility.yul\":5296:5314   */\n      add\n        /* \"#utility.yul\":5288:5314   */\n      swap1\n      pop\n        /* \"#utility.yul\":5324:5395   */\n      tag_291\n        /* \"#utility.yul\":5392:5393   */\n      0x00\n        /* \"#utility.yul\":5381:5390   */\n      dup4\n        /* \"#utility.yul\":5377:5394   */\n      add\n        /* \"#utility.yul\":5368:5374   */\n      dup5\n        /* \"#utility.yul\":5324:5395   */\n      tag_272\n      jump\t// in\n    tag_291:\n        /* \"#utility.yul\":5278:5402   */\n      swap3\n      swap2\n      pop\n      pop\n      jump\t// out\n        /* \"#utility.yul\":5408:5622   */\n    tag_28:\n      0x00\n        /* \"#utility.yul\":5535:5537   */\n      0x20\n        /* \"#utility.yul\":5524:5533   */\n      dup3\n        /* \"#utility.yul\":5520:5538   */\n      add\n        /* \"#utility.yul\":5512:5538   */\n      swap1\n      pop\n        /* \"#utility.yul\":5548:5615   */\n      tag_293\n        /* \"#utility.yul\":5612:5613   */\n      0x00\n        /* \"#utility.yul\":5601:5610   */\n      dup4\n        /* \"#utility.yul\":5597:5614   */\n      add\n        /* \"#utility.yul\":5588:5594   */\n      dup5\n        /* \"#utility.yul\":5548:5615   */\n      tag_276\n      jump\t// in\n    tag_293:\n        /* \"#utility.yul\":5502:5622   */\n      swap3\n      swap2\n      pop\n      pop\n      jump\t// out\n        /* \"#utility.yul\":5628:5911   */\n    tag_210:\n      0x00\n        /* \"#utility.yul\":5694:5696   */\n      0x40\n        /* \"#utility.yul\":5688:5697   */\n      mload\n        /* \"#utility.yul\":5678:5697   */\n      swap1\n      pop\n        /* \"#utility.yul\":5736:5740   */\n      dup2\n        /* \"#utility.yul\":5728:5734   */\n      dup2\n        /* \"#utility.yul\":5724:5741   */\n      add\n        /* \"#utility.yul\":5843:5849   */\n      dup2\n        /* \"#utility.yul\":5831:5841   */\n      dup2\n        /* \"#utility.yul\":5828:5850   */\n      lt\n        /* \"#utility.yul\":5807:5825   */\n      0xffffffffffffffff\n        /* \"#utility.yul\":5795:5805   */\n      dup3\n        /* \"#utility.yul\":5792:5826   */\n      gt\n        /* \"#utility.yul\":5789:5851   */\n      or\n        /* \"#utility.yul\":5786:5788   */\n      iszero\n      tag_295\n      jumpi\n        /* \"#utility.yul\":5854:5872   */\n      tag_296\n      tag_297\n      jump\t// in\n    tag_296:\n        /* \"#utility.yul\":5786:5788   */\n    tag_295:\n        /* \"#utility.yul\":5894:5904   */\n      dup1\n        /* \"#utility.yul\":5890:5892   */\n      0x40\n        /* \"#utility.yul\":5883:5905   */\n      mstore\n        /* \"#utility.yul\":5668:5911   */\n      pop\n      swap2\n      swap1\n      pop\n      jump\t// out\n        /* \"#utility.yul\":5917:6249   */\n    tag_209:\n      0x00\n        /* \"#utility.yul\":6069:6087   */\n      0xffffffffffffffff\n        /* \"#utility.yul\":6061:6067   */\n      dup3\n        /* \"#utility.yul\":6058:6088   */\n      gt\n        /* \"#utility.yul\":6055:6057   */\n      iszero\n      tag_299\n      jumpi\n        /* \"#utility.yul\":6091:6109   */\n      tag_300\n      tag_297\n      jump\t// in\n    tag_300:\n        /* \"#utility.yul\":6055:6057   */\n    tag_299:\n        /* \"#utility.yul\":6176:6180   */\n      0x1f\n        /* \"#utility.yul\":6172:6181   */\n      not\n        /* \"#utility.yul\":6165:6169   */\n      0x1f\n        /* \"#utility.yul\":6157:6163   */\n      dup4\n        /* \"#utility.yul\":6153:6170   */\n      add\n        /* \"#utility.yul\":6149:6182   */\n      and\n        /* \"#utility.yul\":6141:6182   */\n      swap1\n      pop\n        /* \"#utility.yul\":6237:6241   */\n      0x20\n        /* \"#utility.yul\":6231:6235   */\n      dup2\n        /* \"#utility.yul\":6227:6242   */\n      add\n        /* \"#utility.yul\":6219:6242   */\n      swap1\n      pop\n        /* \"#utility.yul\":5984:6249   */\n      swap2\n      swap1\n      pop\n      jump\t// out\n        /* \"#utility.yul\":6255:6354   */\n    tag_265:\n      0x00\n        /* \"#utility.yul\":6341:6346   */\n      dup2\n        /* \"#utility.yul\":6335:6347   */\n      mload\n        /* \"#utility.yul\":6325:6347   */\n      swap1\n      pop\n        /* \"#utility.yul\":6314:6354   */\n      swap2\n      swap1\n      pop\n      jump\t// out\n        /* \"#utility.yul\":6360:6529   */\n    tag_267:\n      0x00\n        /* \"#utility.yul\":6478:6484   */\n      dup3\n        /* \"#utility.yul\":6473:6476   */\n      dup3\n        /* \"#utility.yul\":6466:6485   */\n      mstore\n        /* \"#utility.yul\":6518:6522   */\n      0x20\n        /* \"#utility.yul\":6513:6516   */\n      dup3\n        /* \"#utility.yul\":6509:6523   */\n      add\n        /* \"#utility.yul\":6494:6523   */\n      swap1\n      pop\n        /* \"#utility.yul\":6456:6529   */\n      swap3\n      swap2\n      pop\n      pop\n      jump\t// out\n        /* \"#utility.yul\":6535:7060   */\n    tag_140:\n      0x00\n        /* \"#utility.yul\":6593:6612   */\n      tag_304\n        /* \"#utility.yul\":6610:6611   */\n      dup3\n        /* \"#utility.yul\":6593:6612   */\n      tag_261\n      jump\t// in\n    tag_304:\n        /* \"#utility.yul\":6588:6612   */\n      swap2\n      pop\n        /* \"#utility.yul\":6626:6645   */\n      tag_305\n        /* \"#utility.yul\":6643:6644   */\n      dup4\n        /* \"#utility.yul\":6626:6645   */\n      tag_261\n      jump\t// in\n    tag_305:\n        /* \"#utility.yul\":6621:6645   */\n      swap3\n      pop\n        /* \"#utility.yul\":6814:6815   */\n      dup2\n        /* \"#utility.yul\":6746:6812   */\n      0x7fffffffffffffffffffffffffffffffffffffffffffffffffffffffffffffff\n        /* \"#utility.yul\":6742:6816   */\n      sub\n        /* \"#utility.yul\":6739:6740   */\n      dup4\n        /* \"#utility.yul\":6735:6817   */\n      sgt\n        /* \"#utility.yul\":6730:6731   */\n      0x00\n        /* \"#utility.yul\":6727:6728   */\n      dup4\n        /* \"#utility.yul\":6723:6732   */\n      slt\n        /* \"#utility.yul\":6716:6733   */\n      iszero\n        /* \"#utility.yul\":6712:6818   */\n      and\n        /* \"#utility.yul\":6709:6711   */\n      iszero\n      tag_306\n      jumpi\n        /* \"#utility.yul\":6821:6839   */\n      tag_307\n      tag_308\n      jump\t// in\n    tag_307:\n        /* \"#utility.yul\":6709:6711   */\n    tag_306:\n        /* \"#utility.yul\":7001:7002   */\n      dup2\n        /* \"#utility.yul\":6933:6999   */\n      0x8000000000000000000000000000000000000000000000000000000000000000\n        /* \"#utility.yul\":6929:7003   */\n      sub\n        /* \"#utility.yul\":6926:6927   */\n      dup4\n        /* \"#utility.yul\":6922:7004   */\n      slt\n        /* \"#utility.yul\":6918:6919   */\n      0x00\n        /* \"#utility.yul\":6915:6916   */\n      dup4\n        /* \"#utility.yul\":6911:6920   */\n      slt\n        /* \"#utility.yul\":6907:7005   */\n      and\n        /* \"#utility.yul\":6904:6906   */\n      iszero\n      tag_309\n      jumpi\n        /* \"#utility.yul\":7008:7026   */\n      tag_310\n      tag_308\n      jump\t// in\n    tag_310:\n        /* \"#utility.yul\":6904:6906   */\n    tag_309:\n        /* \"#utility.yul\":7052:7053   */\n      dup3\n        /* \"#utility.yul\":7049:7050   */\n      dup3\n        /* \"#utility.yul\":7045:7054   */\n      add\n        /* \"#utility.yul\":7038:7054   */\n      swap1\n      pop\n        /* \"#utility.yul\":6578:7060   */\n      swap3\n      swap2\n      pop\n      pop\n      jump\t// out\n        /* \"#utility.yul\":7066:7303   */\n    tag_176:\n      0x00\n        /* \"#utility.yul\":7123:7141   */\n      tag_312\n        /* \"#utility.yul\":7139:7140   */\n      dup3\n        /* \"#utility.yul\":7123:7141   */\n      tag_279\n      jump\t// in\n    tag_312:\n        /* \"#utility.yul\":7118:7141   */\n      swap2\n      pop\n        /* \"#utility.yul\":7155:7173   */\n      tag_313\n        /* \"#utility.yul\":7171:7172   */\n      dup4\n        /* \"#utility.yul\":7155:7173   */\n      tag_279\n      jump\t// in\n    tag_313:\n        /* \"#utility.yul\":7150:7173   */\n      swap3\n      pop\n        /* \"#utility.yul\":7245:7246   */\n      dup3\n        /* \"#utility.yul\":7239:7243   */\n      0xff\n        /* \"#utility.yul\":7235:7247   */\n      sub\n        /* \"#utility.yul\":7232:7233   */\n      dup3\n        /* \"#utility.yul\":7229:7248   */\n      gt\n        /* \"#utility.yul\":7226:7228   */\n      iszero\n      tag_314\n      jumpi\n        /* \"#utility.yul\":7251:7269   */\n      tag_315\n      tag_308\n      jump\t// in\n    tag_315:\n        /* \"#utility.yul\":7226:7228   */\n    tag_314:\n        /* \"#utility.yul\":7295:7296   */\n      dup3\n        /* \"#utility.yul\":7292:7293   */\n      dup3\n        /* \"#utility.yul\":7288:7297   */\n      add\n        /* \"#utility.yul\":7281:7297   */\n      swap1\n      pop\n        /* \"#utility.yul\":7108:7303   */\n      swap3\n      swap2\n      pop\n      pop\n      jump\t// out\n        /* \"#utility.yul\":7309:7836   */\n    tag_131:\n      0x00\n        /* \"#utility.yul\":7368:7387   */\n      tag_317\n        /* \"#utility.yul\":7385:7386   */\n      dup3\n        /* \"#utility.yul\":7368:7387   */\n      tag_261\n      jump\t// in\n    tag_317:\n        /* \"#utility.yul\":7363:7387   */\n      swap2\n      pop\n        /* \"#utility.yul\":7401:7420   */\n      tag_318\n        /* \"#utility.yul\":7418:7419   */\n      dup4\n        /* \"#utility.yul\":7401:7420   */\n      tag_261\n      jump\t// in\n    tag_318:\n        /* \"#utility.yul\":7396:7420   */\n      swap3\n      pop\n        /* \"#utility.yul\":7590:7591   */\n      dup3\n        /* \"#utility.yul\":7522:7588   */\n      0x8000000000000000000000000000000000000000000000000000000000000000\n        /* \"#utility.yul\":7518:7592   */\n      add\n        /* \"#utility.yul\":7515:7516   */\n      dup3\n        /* \"#utility.yul\":7511:7593   */\n      slt\n        /* \"#utility.yul\":7506:7507   */\n      0x00\n        /* \"#utility.yul\":7503:7504   */\n      dup5\n        /* \"#utility.yul\":7499:7508   */\n      slt\n        /* \"#utility.yul\":7492:7509   */\n      iszero\n        /* \"#utility.yul\":7488:7594   */\n      and\n        /* \"#utility.yul\":7485:7487   */\n      iszero\n      tag_319\n      jumpi\n        /* \"#utility.yul\":7597:7615   */\n      tag_320\n      tag_308\n      jump\t// in\n    tag_320:\n        /* \"#utility.yul\":7485:7487   */\n    tag_319:\n        /* \"#utility.yul\":7776:7777   */\n      dup3\n        /* \"#utility.yul\":7708:7774   */\n      0x7fffffffffffffffffffffffffffffffffffffffffffffffffffffffffffffff\n        /* \"#utility.yul\":7704:7778   */\n      add\n        /* \"#utility.yul\":7701:7702   */\n      dup3\n        /* \"#utility.yul\":7697:7779   */\n      sgt\n        /* \"#utility.yul\":7693:7694   */\n      0x00\n        /* \"#utility.yul\":7690:7691   */\n      dup5\n        /* \"#utility.yul\":7686:7695   */\n      slt\n        /* \"#utility.yul\":7682:7780   */\n      and\n        /* \"#utility.yul\":7679:7681   */\n      iszero\n      tag_321\n      jumpi\n        /* \"#utility.yul\":7783:7801   */\n      tag_322\n      tag_308\n      jump\t// in\n    tag_322:\n        /* \"#utility.yul\":7679:7681   */\n    tag_321:\n        /* \"#utility.yul\":7828:7829   */\n      dup3\n        /* \"#utility.yul\":7825:7826   */\n      dup3\n        /* \"#utility.yul\":7821:7830   */\n      sub\n        /* \"#utility.yul\":7813:7830   */\n      swap1\n      pop\n        /* \"#utility.yul\":7353:7836   */\n      swap3\n      swap2\n      pop\n      pop\n      jump\t// out\n        /* \"#utility.yul\":7842:7932   */\n    tag_248:\n      0x00\n        /* \"#utility.yul\":7919:7924   */\n      dup2\n        /* \"#utility.yul\":7912:7925   */\n      iszero\n        /* \"#utility.yul\":7905:7926   */\n      iszero\n        /* \"#utility.yul\":7894:7926   */\n      swap1\n      pop\n        /* \"#utility.yul\":7884:7932   */\n      swap2\n      swap1\n      pop\n      jump\t// out\n        /* \"#utility.yul\":7938:8015   */\n    tag_252:\n      0x00\n        /* \"#utility.yul\":8004:8009   */\n      dup2\n        /* \"#utility.yul\":7993:8009   */\n      swap1\n      pop\n        /* \"#utility.yul\":7983:8015   */\n      swap2\n      swap1\n      pop\n      jump\t// out\n        /* \"#utility.yul\":8021:8097   */\n    tag_261:\n      0x00\n        /* \"#utility.yul\":8086:8091   */\n      dup2\n        /* \"#utility.yul\":8075:8091   */\n      swap1\n      pop\n        /* \"#utility.yul\":8065:8097   */\n      swap2\n      swap1\n      pop\n      jump\t// out\n        /* \"#utility.yul\":8103:8180   */\n    tag_275:\n      0x00\n        /* \"#utility.yul\":8169:8174   */\n      dup2\n        /* \"#utility.yul\":8158:8174   */\n      swap1\n      pop\n        /* \"#utility.yul\":8148:8180   */\n      swap2\n      swap1\n      pop\n      jump\t// out\n        /* \"#utility.yul\":8186:8272   */\n    tag_279:\n      0x00\n        /* \"#utility.yul\":8261:8265   */\n      0xff\n        /* \"#utility.yul\":8254:8259   */\n      dup3\n        /* \"#utility.yul\":8250:8266   */\n      and\n        /* \"#utility.yul\":8239:8266   */\n      swap1\n      pop\n        /* \"#utility.yul\":8229:8272   */\n      swap2\n      swap1\n      pop\n      jump\t// out\n        /* \"#utility.yul\":8278:8432   */\n    tag_213:\n        /* \"#utility.yul\":8362:8368   */\n      dup3\n        /* \"#utility.yul\":8357:8360   */\n      dup2\n        /* \"#utility.yul\":8352:8355   */\n      dup4\n        /* \"#utility.yul\":8339:8369   */\n      calldatacopy\n        /* \"#utility.yul\":8424:8425   */\n      0x00\n        /* \"#utility.yul\":8415:8421   */\n      dup4\n        /* \"#utility.yul\":8410:8413   */\n      dup4\n        /* \"#utility.yul\":8406:8422   */\n      add\n        /* \"#utility.yul\":8399:8426   */\n      mstore\n        /* \"#utility.yul\":8329:8432   */\n      pop\n      pop\n      pop\n      jump\t// out\n        /* \"#utility.yul\":8438:8745   */\n    tag_269:\n        /* \"#utility.yul\":8506:8507   */\n      0x00\n        /* \"#utility.yul\":8516:8629   */\n    tag_330:\n        /* \"#utility.yul\":8530:8536   */\n      dup4\n        /* \"#utility.yul\":8527:8528   */\n      dup2\n        /* \"#utility.yul\":8524:8537   */\n      lt\n        /* \"#utility.yul\":8516:8629   */\n      iszero\n      tag_332\n      jumpi\n        /* \"#utility.yul\":8615:8616   */\n      dup1\n        /* \"#utility.yul\":8610:8613   */\n      dup3\n        /* \"#utility.yul\":8606:8617   */\n      add\n        /* \"#utility.yul\":8600:8618   */\n      mload\n        /* \"#utility.yul\":8596:8597   */\n      dup2\n        /* \"#utility.yul\":8591:8594   */\n      dup5\n        /* \"#utility.yul\":8587:8598   */\n      add\n        /* \"#utility.yul\":8580:8619   */\n      mstore\n        /* \"#utility.yul\":8552:8554   */\n      0x20\n        /* \"#utility.yul\":8549:8550   */\n      dup2\n        /* \"#utility.yul\":8545:8555   */\n      add\n        /* \"#utility.yul\":8540:8555   */\n      swap1\n      pop\n        /* \"#utility.yul\":8516:8629   */\n      jump(tag_330)\n    tag_332:\n        /* \"#utility.yul\":8647:8653   */\n      dup4\n        /* \"#utility.yul\":8644:8645   */\n      dup2\n        /* \"#utility.yul\":8641:8654   */\n      gt\n        /* \"#utility.yul\":8638:8640   */\n      iszero\n      tag_333\n      jumpi\n        /* \"#utility.yul\":8727:8728   */\n      0x00\n        /* \"#utility.yul\":8718:8724   */\n      dup5\n        /* \"#utility.yul\":8713:8716   */\n      dup5\n        /* \"#utility.yul\":8709:8725   */\n      add\n        /* \"#utility.yul\":8702:8729   */\n      mstore\n        /* \"#utility.yul\":8638:8640   */\n    tag_333:\n        /* \"#utility.yul\":8487:8745   */\n      pop\n      pop\n      pop\n      pop\n      jump\t// out\n        /* \"#utility.yul\":8751:8982   */\n    tag_144:\n      0x00\n        /* \"#utility.yul\":8812:8835   */\n      tag_335\n        /* \"#utility.yul\":8829:8834   */\n      dup3\n        /* \"#utility.yul\":8812:8835   */\n      tag_261\n      jump\t// in\n    tag_335:\n        /* \"#utility.yul\":8803:8835   */\n      swap2\n      pop\n        /* \"#utility.yul\":8857:8923   */\n      0x8000000000000000000000000000000000000000000000000000000000000000\n        /* \"#utility.yul\":8850:8855   */\n      dup3\n        /* \"#utility.yul\":8847:8924   */\n      eq\n        /* \"#utility.yul\":8844:8846   */\n      iszero\n      tag_336\n      jumpi\n        /* \"#utility.yul\":8927:8945   */\n      tag_337\n      tag_308\n      jump\t// in\n    tag_337:\n        /* \"#utility.yul\":8844:8846   */\n    tag_336:\n        /* \"#utility.yul\":8974:8975   */\n      0x01\n        /* \"#utility.yul\":8967:8972   */\n      dup3\n        /* \"#utility.yul\":8963:8976   */\n      sub\n        /* \"#utility.yul\":8956:8976   */\n      swap1\n      pop\n        /* \"#utility.yul\":8793:8982   */\n      swap2\n      swap1\n      pop\n      jump\t// out\n        /* \"#utility.yul\":8988:9219   */\n    tag_121:\n      0x00\n        /* \"#utility.yul\":9049:9072   */\n      tag_339\n        /* \"#utility.yul\":9066:9071   */\n      dup3\n        /* \"#utility.yul\":9049:9072   */\n      tag_261\n      jump\t// in\n    tag_339:\n        /* \"#utility.yul\":9040:9072   */\n      swap2\n      pop\n        /* \"#utility.yul\":9094:9160   */\n      0x7fffffffffffffffffffffffffffffffffffffffffffffffffffffffffffffff\n        /* \"#utility.yul\":9087:9092   */\n      dup3\n        /* \"#utility.yul\":9084:9161   */\n      eq\n        /* \"#utility.yul\":9081:9083   */\n      iszero\n      tag_340\n      jumpi\n        /* \"#utility.yul\":9164:9182   */\n      tag_341\n      tag_308\n      jump\t// in\n    tag_341:\n        /* \"#utility.yul\":9081:9083   */\n    tag_340:\n        /* \"#utility.yul\":9211:9212   */\n      0x01\n        /* \"#utility.yul\":9204:9209   */\n      dup3\n        /* \"#utility.yul\":9200:9213   */\n      add\n        /* \"#utility.yul\":9193:9213   */\n      swap1\n      pop\n        /* \"#utility.yul\":9030:9219   */\n      swap2\n      swap1\n      pop\n      jump\t// out\n        /* \"#utility.yul\":9225:9458   */\n    tag_149:\n      0x00\n        /* \"#utility.yul\":9287:9311   */\n      tag_343\n        /* \"#utility.yul\":9305:9310   */\n      dup3\n        /* \"#utility.yul\":9287:9311   */\n      tag_275\n      jump\t// in\n    tag_343:\n        /* \"#utility.yul\":9278:9311   */\n      swap2\n      pop\n        /* \"#utility.yul\":9333:9399   */\n      0xffffffffffffffffffffffffffffffffffffffffffffffffffffffffffffffff\n        /* \"#utility.yul\":9326:9331   */\n      dup3\n        /* \"#utility.yul\":9323:9400   */\n      eq\n        /* \"#utility.yul\":9320:9322   */\n      iszero\n      tag_344\n      jumpi\n        /* \"#utility.yul\":9403:9421   */\n      tag_345\n      tag_308\n      jump\t// in\n    tag_345:\n        /* \"#utility.yul\":9320:9322   */\n    tag_344:\n        /* \"#utility.yul\":9450:9451   */\n      0x01\n        /* \"#utility.yul\":9443:9448   */\n      dup3\n        /* \"#utility.yul\":9439:9452   */\n      add\n        /* \"#utility.yul\":9432:9452   */\n      swap1\n      pop\n        /* \"#utility.yul\":9268:9458   */\n      swap2\n      swap1\n      pop\n      jump\t// out\n        /* \"#utility.yul\":9464:9543   */\n    tag_257:\n      0x00\n        /* \"#utility.yul\":9532:9537   */\n      dup2\n        /* \"#utility.yul\":9521:9537   */\n      swap1\n      pop\n        /* \"#utility.yul\":9511:9543   */\n      swap2\n      swap1\n      pop\n      jump\t// out\n        /* \"#utility.yul\":9549:9729   */\n    tag_308:\n        /* \"#utility.yul\":9597:9674   */\n      0x4e487b7100000000000000000000000000000000000000000000000000000000\n        /* \"#utility.yul\":9594:9595   */\n      0x00\n        /* \"#utility.yul\":9587:9675   */\n      mstore\n        /* \"#utility.yul\":9694:9698   */\n      0x11\n        /* \"#utility.yul\":9691:9692   */\n      0x04\n        /* \"#utility.yul\":9684:9699   */\n      mstore\n        /* \"#utility.yul\":9718:9722   */\n      0x24\n        /* \"#utility.yul\":9715:9716   */\n      0x00\n        /* \"#utility.yul\":9708:9723   */\n      revert\n        /* \"#utility.yul\":9735:9915   */\n    tag_297:\n        /* \"#utility.yul\":9783:9860   */\n      0x4e487b7100000000000000000000000000000000000000000000000000000000\n        /* \"#utility.yul\":9780:9781   */\n      0x00\n        /* \"#utility.yul\":9773:9861   */\n      mstore\n        /* \"#utility.yul\":9880:9884   */\n      0x41\n        /* \"#utility.yul\":9877:9878   */\n      0x04\n        /* \"#utility.yul\":9870:9885   */\n      mstore\n        /* \"#utility.yul\":9904:9908   */\n      0x24\n        /* \"#utility.yul\":9901:9902   */\n      0x00\n        /* \"#utility.yul\":9894:9909   */\n      revert\n        /* \"#utility.yul\":9921:10023   */\n    tag_271:\n      0x00\n        /* \"#utility.yul\":10013:10015   */\n      0x1f\n        /* \"#utility.yul\":10009:10016   */\n      not\n        /* \"#utility.yul\":10004:10006   */\n      0x1f\n        /* \"#utility.yul\":9997:10002   */\n      dup4\n        /* \"#utility.yul\":9993:10007   */\n      add\n        /* \"#utility.yul\":9989:10017   */\n      and\n        /* \"#utility.yul\":9979:10017   */\n      swap1\n      pop\n        /* \"#utility.yul\":9969:10023   */\n      swap2\n      swap1\n      pop\n      jump\t// out\n        /* \"#utility.yul\":10029:10151   */\n    tag_217:\n        /* \"#utility.yul\":10102:10126   */\n      tag_351\n        /* \"#utility.yul\":10120:10125   */\n      dup2\n        /* \"#utility.yul\":10102:10126   */\n      tag_252\n      jump\t// in\n    tag_351:\n        /* \"#utility.yul\":10095:10100   */\n      dup2\n        /* \"#utility.yul\":10092:10127   */\n      eq\n        /* \"#utility.yul\":10082:10084   */\n      tag_352\n      jumpi\n        /* \"#utility.yul\":10141:10142   */\n      0x00\n        /* \"#utility.yul\":10138:10139   */\n      dup1\n        /* \"#utility.yul\":10131:10143   */\n      revert\n        /* \"#utility.yul\":10082:10084   */\n    tag_352:\n        /* \"#utility.yul\":10072:10151   */\n      pop\n      jump\t// out\n        /* \"#utility.yul\":10157:10279   */\n    tag_225:\n        /* \"#utility.yul\":10230:10254   */\n      tag_354\n        /* \"#utility.yul\":10248:10253   */\n      dup2\n        /* \"#utility.yul\":10230:10254   */\n      tag_275\n      jump\t// in\n    tag_354:\n        /* \"#utility.yul\":10223:10228   */\n      dup2\n        /* \"#utility.yul\":10220:10255   */\n      eq\n        /* \"#utility.yul\":10210:10212   */\n      tag_355\n      jumpi\n        /* \"#utility.yul\":10269:10270   */\n      0x00\n        /* \"#utility.yul\":10266:10267   */\n      dup1\n        /* \"#utility.yul\":10259:10271   */\n      revert\n        /* \"#utility.yul\":10210:10212   */\n    tag_355:\n        /* \"#utility.yul\":10200:10279   */\n      pop\n      jump\t// out\n\n    auxdata: 0xa2646970667358221220bf602c179ace6a64d5112b94902616f591b89d66a4c6ddf0581d66698170b4e764736f6c63430008000033\n}\n",
				"bytecode": {
					"linkReferences": {},
					"object": "60806040523480156200001157600080fd5b50604051620016b1380380620016b1833981810160405281019062000037919062000179565b80600090805190602001906200004f92919062000057565b5050620002ef565b82805462000065906200025b565b90600052602060002090601f016020900481019282620000895760008555620000d5565b82601f10620000a457805160ff1916838001178555620000d5565b82800160010185558215620000d5579182015b82811115620000d4578251825591602001919060010190620000b7565b5b509050620000e49190620000e8565b5090565b5b8082111562000103576000816000905550600101620000e9565b5090565b60006200011e6200011884620001f2565b620001be565b9050828152602081018484840111156200013757600080fd5b6200014484828562000225565b509392505050565b600082601f8301126200015e57600080fd5b81516200017084826020860162000107565b91505092915050565b6000602082840312156200018c57600080fd5b600082015167ffffffffffffffff811115620001a757600080fd5b620001b5848285016200014c565b91505092915050565b6000604051905081810181811067ffffffffffffffff82111715620001e857620001e7620002c0565b5b8060405250919050565b600067ffffffffffffffff82111562000210576200020f620002c0565b5b601f19601f8301169050602081019050919050565b60005b838110156200024557808201518184015260208101905062000228565b8381111562000255576000848401525b50505050565b600060028204905060018216806200027457607f821691505b602082108114156200028b576200028a62000291565b5b50919050565b7f4e487b7100000000000000000000000000000000000000000000000000000000600052602260045260246000fd5b7f4e487b7100000000000000000000000000000000000000000000000000000000600052604160045260246000fd5b6113b280620002ff6000396000f3fe608060405234801561001057600080fd5b506004361061010b5760003560e01c80635e7e6e3d116100a2578063a689f61b11610071578063a689f61b146102b4578063bf6a8f9c146102e4578063c0a3c39c14610314578063d34daa9214610344578063f880a1be146103745761010b565b80635e7e6e3d1461022e57806378d208fe14610238578063921fb249146102545780639c72b233146102845761010b565b806328565cc3116100de57806328565cc3146101bc57806330dea1f4146101d857806332d73713146101f45780634b5e8119146102245761010b565b806301dc7830146101105780630b0edf7d146101405780631c6610371461015c5780631e98fd1c1461018c575b600080fd5b61012a60048036038101906101259190610d4c565b6103a4565b6040516101379190610f8a565b60405180910390f35b61015a60048036038101906101559190610d23565b6103db565b005b61017660048036038101906101719190610d23565b61044c565b6040516101839190610f8a565b60405180910390f35b6101a660048036038101906101a19190610de1565b61046c565b6040516101b39190610f17565b60405180910390f35b6101d660048036038101906101d19190610de1565b610490565b005b6101f260048036038101906101ed9190610d4c565b6104bc565b005b61020e60048036038101906102099190610d23565b61051b565b60405161021b9190610f32565b60405180910390f35b61022c6105c2565b005b610236610837565b005b610252600480360381019061024d9190610d23565b610a8c565b005b61026e60048036038101906102699190610d23565b610aef565b60405161027b9190610efc565b60405180910390f35b61029e60048036038101906102999190610e0a565b610b3a565b6040516102ab9190610f17565b60405180910390f35b6102ce60048036038101906102c99190610d23565b610baa565b6040516102db9190610f6f565b60405180910390f35b6102fe60048036038101906102f99190610d4c565b610bc2565b60405161030b9190610f17565b60405180910390f35b61032e60048036038101906103299190610de1565b610bec565b60405161033b9190610efc565b60405180910390f35b61035e60048036038101906103599190610d8d565b610c15565b60405161036b9190610f6f565b60405180910390f35b61038e60048036038101906103899190610d23565b610c62565b60405161039b9190610f4d565b60405180910390f35b6000806103b083610bc2565b90506003600082815260200190815260200160002060009054906101000a900460ff16915050919050565b60016003600083815260200190815260200160002060006101000a81548160ff021916908360ff160217905550600181908060018154018082558091505060019003906000526020600020016000909190919091505542600260008381526020019081526020016000208190555050565b60036020528060005260406000206000915054906101000a900460ff1681565b6001818154811061047c57600080fd5b906000526020600020016000915090505481565b60018114156104a6576104a16105c2565b6104b9565b60028114156104b8576104b7610837565b5b5b50565b60006104c782610bc2565b905060006104d48261051b565b90507fffffffffffffffffffffffffffffffffffffffffffffffffffffffffffffffff81141561050c57610507826103db565b610516565b61051582610a8c565b5b505050565b6000807fffffffffffffffffffffffffffffffffffffffffffffffffffffffffffffffff905060005b6001805490508112156105b857836001828154811061058c577f4e487b7100000000000000000000000000000000000000000000000000000000600052603260045260246000fd5b906000526020600020015414156105a5578091506105b8565b80806105b090611243565b915050610544565b5080915050919050565b600060018054905090506000600190505b81811015610833576000600360006001848154811061061b577f4e487b7100000000000000000000000000000000000000000000000000000000600052603260045260246000fd5b9060005260206000200154815260200190815260200160002060009054906101000a900460ff1660ff169050600060018381548110610683577f4e487b7100000000000000000000000000000000000000000000000000000000600052603260045260246000fd5b90600052602060002001549050600060018461069f91906110ed565b90505b6000811215801561071957508260036000600184815481106106ed577f4e487b7100000000000000000000000000000000000000000000000000000000600052603260045260246000fd5b9060005260206000200154815260200190815260200160002060009054906101000a900460ff1660ff16105b156107c95760018181548110610758577f4e487b7100000000000000000000000000000000000000000000000000000000600052603260045260246000fd5b9060005260206000200154600180836107719190611022565b815481106107a8577f4e487b7100000000000000000000000000000000000000000000000000000000600052603260045260246000fd5b906000526020600020018190555080806107c1906111fa565b9150506106a2565b81600180836107d89190611022565b8154811061080f577f4e487b7100000000000000000000000000000000000000000000000000000000600052603260045260246000fd5b9060005260206000200181905550505050808061082b9061128c565b9150506105d3565b5050565b600060018054905090506000600190505b81811015610a885760006002600060018481548110610890577f4e487b7100000000000000000000000000000000000000000000000000000000600052603260045260246000fd5b906000526020600020015481526020019081526020016000205490506000600183815481106108e8577f4e487b7100000000000000000000000000000000000000000000000000000000600052603260045260246000fd5b90600052602060002001549050600060018461090491906110ed565b90505b6000811215801561096e5750826002600060018481548110610952577f4e487b7100000000000000000000000000000000000000000000000000000000600052603260045260246000fd5b9060005260206000200154815260200190815260200160002054115b15610a1e57600181815481106109ad577f4e487b7100000000000000000000000000000000000000000000000000000000600052603260045260246000fd5b9060005260206000200154600180836109c69190611022565b815481106109fd577f4e487b7100000000000000000000000000000000000000000000000000000000600052603260045260246000fd5b90600052602060002001819055508080610a16906111fa565b915050610907565b8160018083610a2d9190611022565b81548110610a64577f4e487b7100000000000000000000000000000000000000000000000000000000600052603260045260246000fd5b90600052602060002001819055505050508080610a809061128c565b915050610848565b5050565b60016003600083815260200190815260200160002060008282829054906101000a900460ff16610abc91906110b6565b92506101000a81548160ff021916908360ff16021790555042600260008381526020019081526020016000208190555050565b600080610afb8361051b565b90507fffffffffffffffffffffffffffffffffffffffffffffffffffffffffffffffff811415610b2f576000915050610b35565b60019150505b919050565b6000610b4582610bec565b610b4e57600080fd5b610b5782610490565b600060018481548110610b93577f4e487b7100000000000000000000000000000000000000000000000000000000600052603260045260246000fd5b906000526020600020015490508091505092915050565b60026020528060005260406000206000915090505481565b600080829050600081511415610bde576000801b915050610be7565b60208301519150505b919050565b60006001821480610bfd5750600282145b15610c0b5760019050610c10565b600090505b919050565b600080610c2184610bc2565b9050610c2c81610aef565b610c3557600080fd5b610c3e83610bec565b610c4757600080fd5b610c5083610490565b610c598161051b565b91505092915050565b6060600082604051602001610c779190610ee1565b604051602081830303815290604052905080915050919050565b6000610ca4610c9f84610fd6565b610fa5565b905082815260208101848484011115610cbc57600080fd5b610cc78482856111b8565b509392505050565b600081359050610cde8161134e565b92915050565b600082601f830112610cf557600080fd5b8135610d05848260208601610c91565b91505092915050565b600081359050610d1d81611365565b92915050565b600060208284031215610d3557600080fd5b6000610d4384828501610ccf565b91505092915050565b600060208284031215610d5e57600080fd5b600082013567ffffffffffffffff811115610d7857600080fd5b610d8484828501610ce4565b91505092915050565b60008060408385031215610da057600080fd5b600083013567ffffffffffffffff811115610dba57600080fd5b610dc685828601610ce4565b9250506020610dd785828601610d0e565b9150509250929050565b600060208284031215610df357600080fd5b6000610e0184828501610d0e565b91505092915050565b60008060408385031215610e1d57600080fd5b6000610e2b85828601610d0e565b9250506020610e3c85828601610d0e565b9150509250929050565b610e4f81611181565b82525050565b610e5e8161118d565b82525050565b610e75610e708261118d565b6112d5565b82525050565b610e8481611197565b82525050565b6000610e9582611006565b610e9f8185611011565b9350610eaf8185602086016111c7565b610eb88161133d565b840191505092915050565b610ecc816111a1565b82525050565b610edb816111ab565b82525050565b6000610eed8284610e64565b60208201915081905092915050565b6000602082019050610f116000830184610e46565b92915050565b6000602082019050610f2c6000830184610e55565b92915050565b6000602082019050610f476000830184610e7b565b92915050565b60006020820190508181036000830152610f678184610e8a565b905092915050565b6000602082019050610f846000830184610ec3565b92915050565b6000602082019050610f9f6000830184610ed2565b92915050565b6000604051905081810181811067ffffffffffffffff82111715610fcc57610fcb61130e565b5b8060405250919050565b600067ffffffffffffffff821115610ff157610ff061130e565b5b601f19601f8301169050602081019050919050565b600081519050919050565b600082825260208201905092915050565b600061102d82611197565b915061103883611197565b9250817f7fffffffffffffffffffffffffffffffffffffffffffffffffffffffffffffff03831360008312151615611073576110726112df565b5b817f80000000000000000000000000000000000000000000000000000000000000000383126000831216156110ab576110aa6112df565b5b828201905092915050565b60006110c1826111ab565b91506110cc836111ab565b92508260ff038211156110e2576110e16112df565b5b828201905092915050565b60006110f882611197565b915061110383611197565b9250827f80000000000000000000000000000000000000000000000000000000000000000182126000841215161561113e5761113d6112df565b5b827f7fffffffffffffffffffffffffffffffffffffffffffffffffffffffffffffff018213600084121615611176576111756112df565b5b828203905092915050565b60008115159050919050565b6000819050919050565b6000819050919050565b6000819050919050565b600060ff82169050919050565b82818337600083830152505050565b60005b838110156111e55780820151818401526020810190506111ca565b838111156111f4576000848401525b50505050565b600061120582611197565b91507f8000000000000000000000000000000000000000000000000000000000000000821415611238576112376112df565b5b600182039050919050565b600061124e82611197565b91507f7fffffffffffffffffffffffffffffffffffffffffffffffffffffffffffffff821415611281576112806112df565b5b600182019050919050565b6000611297826111a1565b91507fffffffffffffffffffffffffffffffffffffffffffffffffffffffffffffffff8214156112ca576112c96112df565b5b600182019050919050565b6000819050919050565b7f4e487b7100000000000000000000000000000000000000000000000000000000600052601160045260246000fd5b7f4e487b7100000000000000000000000000000000000000000000000000000000600052604160045260246000fd5b6000601f19601f8301169050919050565b6113578161118d565b811461136257600080fd5b50565b61136e816111a1565b811461137957600080fd5b5056fea2646970667358221220bf602c179ace6a64d5112b94902616f591b89d66a4c6ddf0581d66698170b4e764736f6c63430008000033",
					"opcodes": "PUSH1 0x80 PUSH1 0x40 MSTORE CALLVALUE DUP1 ISZERO PUSH3 0x11 JUMPI PUSH1 0x0 DUP1 REVERT JUMPDEST POP PUSH1 0x40 MLOAD PUSH3 0x16B1 CODESIZE SUB DUP1 PUSH3 0x16B1 DUP4 CODECOPY DUP2 DUP2 ADD PUSH1 0x40 MSTORE DUP2 ADD SWAP1 PUSH3 0x37 SWAP2 SWAP1 PUSH3 0x179 JUMP JUMPDEST DUP1 PUSH1 0x0 SWAP1 DUP1 MLOAD SWAP1 PUSH1 0x20 ADD SWAP1 PUSH3 0x4F SWAP3 SWAP2 SWAP1 PUSH3 0x57 JUMP JUMPDEST POP POP PUSH3 0x2EF JUMP JUMPDEST DUP3 DUP1 SLOAD PUSH3 0x65 SWAP1 PUSH3 0x25B JUMP JUMPDEST SWAP1 PUSH1 0x0 MSTORE PUSH1 0x20 PUSH1 0x0 KECCAK256 SWAP1 PUSH1 0x1F ADD PUSH1 0x20 SWAP1 DIV DUP2 ADD SWAP3 DUP3 PUSH3 0x89 JUMPI PUSH1 0x0 DUP6 SSTORE PUSH3 0xD5 JUMP JUMPDEST DUP3 PUSH1 0x1F LT PUSH3 0xA4 JUMPI DUP1 MLOAD PUSH1 0xFF NOT AND DUP4 DUP1 ADD OR DUP6 SSTORE PUSH3 0xD5 JUMP JUMPDEST DUP3 DUP1 ADD PUSH1 0x1 ADD DUP6 SSTORE DUP3 ISZERO PUSH3 0xD5 JUMPI SWAP2 DUP3 ADD JUMPDEST DUP3 DUP2 GT ISZERO PUSH3 0xD4 JUMPI DUP3 MLOAD DUP3 SSTORE SWAP2 PUSH1 0x20 ADD SWAP2 SWAP1 PUSH1 0x1 ADD SWAP1 PUSH3 0xB7 JUMP JUMPDEST JUMPDEST POP SWAP1 POP PUSH3 0xE4 SWAP2 SWAP1 PUSH3 0xE8 JUMP JUMPDEST POP SWAP1 JUMP JUMPDEST JUMPDEST DUP1 DUP3 GT ISZERO PUSH3 0x103 JUMPI PUSH1 0x0 DUP2 PUSH1 0x0 SWAP1 SSTORE POP PUSH1 0x1 ADD PUSH3 0xE9 JUMP JUMPDEST POP SWAP1 JUMP JUMPDEST PUSH1 0x0 PUSH3 0x11E PUSH3 0x118 DUP5 PUSH3 0x1F2 JUMP JUMPDEST PUSH3 0x1BE JUMP JUMPDEST SWAP1 POP DUP3 DUP2 MSTORE PUSH1 0x20 DUP2 ADD DUP5 DUP5 DUP5 ADD GT ISZERO PUSH3 0x137 JUMPI PUSH1 0x0 DUP1 REVERT JUMPDEST PUSH3 0x144 DUP5 DUP3 DUP6 PUSH3 0x225 JUMP JUMPDEST POP SWAP4 SWAP3 POP POP POP JUMP JUMPDEST PUSH1 0x0 DUP3 PUSH1 0x1F DUP4 ADD SLT PUSH3 0x15E JUMPI PUSH1 0x0 DUP1 REVERT JUMPDEST DUP2 MLOAD PUSH3 0x170 DUP5 DUP3 PUSH1 0x20 DUP7 ADD PUSH3 0x107 JUMP JUMPDEST SWAP2 POP POP SWAP3 SWAP2 POP POP JUMP JUMPDEST PUSH1 0x0 PUSH1 0x20 DUP3 DUP5 SUB SLT ISZERO PUSH3 0x18C JUMPI PUSH1 0x0 DUP1 REVERT JUMPDEST PUSH1 0x0 DUP3 ADD MLOAD PUSH8 0xFFFFFFFFFFFFFFFF DUP2 GT ISZERO PUSH3 0x1A7 JUMPI PUSH1 0x0 DUP1 REVERT JUMPDEST PUSH3 0x1B5 DUP5 DUP3 DUP6 ADD PUSH3 0x14C JUMP JUMPDEST SWAP2 POP POP SWAP3 SWAP2 POP POP JUMP JUMPDEST PUSH1 0x0 PUSH1 0x40 MLOAD SWAP1 POP DUP2 DUP2 ADD DUP2 DUP2 LT PUSH8 0xFFFFFFFFFFFFFFFF DUP3 GT OR ISZERO PUSH3 0x1E8 JUMPI PUSH3 0x1E7 PUSH3 0x2C0 JUMP JUMPDEST JUMPDEST DUP1 PUSH1 0x40 MSTORE POP SWAP2 SWAP1 POP JUMP JUMPDEST PUSH1 0x0 PUSH8 0xFFFFFFFFFFFFFFFF DUP3 GT ISZERO PUSH3 0x210 JUMPI PUSH3 0x20F PUSH3 0x2C0 JUMP JUMPDEST JUMPDEST PUSH1 0x1F NOT PUSH1 0x1F DUP4 ADD AND SWAP1 POP PUSH1 0x20 DUP2 ADD SWAP1 POP SWAP2 SWAP1 POP JUMP JUMPDEST PUSH1 0x0 JUMPDEST DUP4 DUP2 LT ISZERO PUSH3 0x245 JUMPI DUP1 DUP3 ADD MLOAD DUP2 DUP5 ADD MSTORE PUSH1 0x20 DUP2 ADD SWAP1 POP PUSH3 0x228 JUMP JUMPDEST DUP4 DUP2 GT ISZERO PUSH3 0x255 JUMPI PUSH1 0x0 DUP5 DUP5 ADD MSTORE JUMPDEST POP POP POP POP JUMP JUMPDEST PUSH1 0x0 PUSH1 0x2 DUP3 DIV SWAP1 POP PUSH1 0x1 DUP3 AND DUP1 PUSH3 0x274 JUMPI PUSH1 0x7F DUP3 AND SWAP2 POP JUMPDEST PUSH1 0x20 DUP3 LT DUP2 EQ ISZERO PUSH3 0x28B JUMPI PUSH3 0x28A PUSH3 0x291 JUMP JUMPDEST JUMPDEST POP SWAP2 SWAP1 POP JUMP JUMPDEST PUSH32 0x4E487B7100000000000000000000000000000000000000000000000000000000 PUSH1 0x0 MSTORE PUSH1 0x22 PUSH1 0x4 MSTORE PUSH1 0x24 PUSH1 0x0 REVERT JUMPDEST PUSH32 0x4E487B7100000000000000000000000000000000000000000000000000000000 PUSH1 0x0 MSTORE PUSH1 0x41 PUSH1 0x4 MSTORE PUSH1 0x24 PUSH1 0x0 REVERT JUMPDEST PUSH2 0x13B2 DUP1 PUSH3 0x2FF PUSH1 0x0 CODECOPY PUSH1 0x0 RETURN INVALID PUSH1 0x80 PUSH1 0x40 MSTORE CALLVALUE DUP1 ISZERO PUSH2 0x10 JUMPI PUSH1 0x0 DUP1 REVERT JUMPDEST POP PUSH1 0x4 CALLDATASIZE LT PUSH2 0x10B JUMPI PUSH1 0x0 CALLDATALOAD PUSH1 0xE0 SHR DUP1 PUSH4 0x5E7E6E3D GT PUSH2 0xA2 JUMPI DUP1 PUSH4 0xA689F61B GT PUSH2 0x71 JUMPI DUP1 PUSH4 0xA689F61B EQ PUSH2 0x2B4 JUMPI DUP1 PUSH4 0xBF6A8F9C EQ PUSH2 0x2E4 JUMPI DUP1 PUSH4 0xC0A3C39C EQ PUSH2 0x314 JUMPI DUP1 PUSH4 0xD34DAA92 EQ PUSH2 0x344 JUMPI DUP1 PUSH4 0xF880A1BE EQ PUSH2 0x374 JUMPI PUSH2 0x10B JUMP JUMPDEST DUP1 PUSH4 0x5E7E6E3D EQ PUSH2 0x22E JUMPI DUP1 PUSH4 0x78D208FE EQ PUSH2 0x238 JUMPI DUP1 PUSH4 0x921FB249 EQ PUSH2 0x254 JUMPI DUP1 PUSH4 0x9C72B233 EQ PUSH2 0x284 JUMPI PUSH2 0x10B JUMP JUMPDEST DUP1 PUSH4 0x28565CC3 GT PUSH2 0xDE JUMPI DUP1 PUSH4 0x28565CC3 EQ PUSH2 0x1BC JUMPI DUP1 PUSH4 0x30DEA1F4 EQ PUSH2 0x1D8 JUMPI DUP1 PUSH4 0x32D73713 EQ PUSH2 0x1F4 JUMPI DUP1 PUSH4 0x4B5E8119 EQ PUSH2 0x224 JUMPI PUSH2 0x10B JUMP JUMPDEST DUP1 PUSH4 0x1DC7830 EQ PUSH2 0x110 JUMPI DUP1 PUSH4 0xB0EDF7D EQ PUSH2 0x140 JUMPI DUP1 PUSH4 0x1C661037 EQ PUSH2 0x15C JUMPI DUP1 PUSH4 0x1E98FD1C EQ PUSH2 0x18C JUMPI JUMPDEST PUSH1 0x0 DUP1 REVERT JUMPDEST PUSH2 0x12A PUSH1 0x4 DUP1 CALLDATASIZE SUB DUP2 ADD SWAP1 PUSH2 0x125 SWAP2 SWAP1 PUSH2 0xD4C JUMP JUMPDEST PUSH2 0x3A4 JUMP JUMPDEST PUSH1 0x40 MLOAD PUSH2 0x137 SWAP2 SWAP1 PUSH2 0xF8A JUMP JUMPDEST PUSH1 0x40 MLOAD DUP1 SWAP2 SUB SWAP1 RETURN JUMPDEST PUSH2 0x15A PUSH1 0x4 DUP1 CALLDATASIZE SUB DUP2 ADD SWAP1 PUSH2 0x155 SWAP2 SWAP1 PUSH2 0xD23 JUMP JUMPDEST PUSH2 0x3DB JUMP JUMPDEST STOP JUMPDEST PUSH2 0x176 PUSH1 0x4 DUP1 CALLDATASIZE SUB DUP2 ADD SWAP1 PUSH2 0x171 SWAP2 SWAP1 PUSH2 0xD23 JUMP JUMPDEST PUSH2 0x44C JUMP JUMPDEST PUSH1 0x40 MLOAD PUSH2 0x183 SWAP2 SWAP1 PUSH2 0xF8A JUMP JUMPDEST PUSH1 0x40 MLOAD DUP1 SWAP2 SUB SWAP1 RETURN JUMPDEST PUSH2 0x1A6 PUSH1 0x4 DUP1 CALLDATASIZE SUB DUP2 ADD SWAP1 PUSH2 0x1A1 SWAP2 SWAP1 PUSH2 0xDE1 JUMP JUMPDEST PUSH2 0x46C JUMP JUMPDEST PUSH1 0x40 MLOAD PUSH2 0x1B3 SWAP2 SWAP1 PUSH2 0xF17 JUMP JUMPDEST PUSH1 0x40 MLOAD DUP1 SWAP2 SUB SWAP1 RETURN JUMPDEST PUSH2 0x1D6 PUSH1 0x4 DUP1 CALLDATASIZE SUB DUP2 ADD SWAP1 PUSH2 0x1D1 SWAP2 SWAP1 PUSH2 0xDE1 JUMP JUMPDEST PUSH2 0x490 JUMP JUMPDEST STOP JUMPDEST PUSH2 0x1F2 PUSH1 0x4 DUP1 CALLDATASIZE SUB DUP2 ADD SWAP1 PUSH2 0x1ED SWAP2 SWAP1 PUSH2 0xD4C JUMP JUMPDEST PUSH2 0x4BC JUMP JUMPDEST STOP JUMPDEST PUSH2 0x20E PUSH1 0x4 DUP1 CALLDATASIZE SUB DUP2 ADD SWAP1 PUSH2 0x209 SWAP2 SWAP1 PUSH2 0xD23 JUMP JUMPDEST PUSH2 0x51B JUMP JUMPDEST PUSH1 0x40 MLOAD PUSH2 0x21B SWAP2 SWAP1 PUSH2 0xF32 JUMP JUMPDEST PUSH1 0x40 MLOAD DUP1 SWAP2 SUB SWAP1 RETURN JUMPDEST PUSH2 0x22C PUSH2 0x5C2 JUMP JUMPDEST STOP JUMPDEST PUSH2 0x236 PUSH2 0x837 JUMP JUMPDEST STOP JUMPDEST PUSH2 0x252 PUSH1 0x4 DUP1 CALLDATASIZE SUB DUP2 ADD SWAP1 PUSH2 0x24D SWAP2 SWAP1 PUSH2 0xD23 JUMP JUMPDEST PUSH2 0xA8C JUMP JUMPDEST STOP JUMPDEST PUSH2 0x26E PUSH1 0x4 DUP1 CALLDATASIZE SUB DUP2 ADD SWAP1 PUSH2 0x269 SWAP2 SWAP1 PUSH2 0xD23 JUMP JUMPDEST PUSH2 0xAEF JUMP JUMPDEST PUSH1 0x40 MLOAD PUSH2 0x27B SWAP2 SWAP1 PUSH2 0xEFC JUMP JUMPDEST PUSH1 0x40 MLOAD DUP1 SWAP2 SUB SWAP1 RETURN JUMPDEST PUSH2 0x29E PUSH1 0x4 DUP1 CALLDATASIZE SUB DUP2 ADD SWAP1 PUSH2 0x299 SWAP2 SWAP1 PUSH2 0xE0A JUMP JUMPDEST PUSH2 0xB3A JUMP JUMPDEST PUSH1 0x40 MLOAD PUSH2 0x2AB SWAP2 SWAP1 PUSH2 0xF17 JUMP JUMPDEST PUSH1 0x40 MLOAD DUP1 SWAP2 SUB SWAP1 RETURN JUMPDEST PUSH2 0x2CE PUSH1 0x4 DUP1 CALLDATASIZE SUB DUP2 ADD SWAP1 PUSH2 0x2C9 SWAP2 SWAP1 PUSH2 0xD23 JUMP JUMPDEST PUSH2 0xBAA JUMP JUMPDEST PUSH1 0x40 MLOAD PUSH2 0x2DB SWAP2 SWAP1 PUSH2 0xF6F JUMP JUMPDEST PUSH1 0x40 MLOAD DUP1 SWAP2 SUB SWAP1 RETURN JUMPDEST PUSH2 0x2FE PUSH1 0x4 DUP1 CALLDATASIZE SUB DUP2 ADD SWAP1 PUSH2 0x2F9 SWAP2 SWAP1 PUSH2 0xD4C JUMP JUMPDEST PUSH2 0xBC2 JUMP JUMPDEST PUSH1 0x40 MLOAD PUSH2 0x30B SWAP2 SWAP1 PUSH2 0xF17 JUMP JUMPDEST PUSH1 0x40 MLOAD DUP1 SWAP2 SUB SWAP1 RETURN JUMPDEST PUSH2 0x32E PUSH1 0x4 DUP1 CALLDATASIZE SUB DUP2 ADD SWAP1 PUSH2 0x329 SWAP2 SWAP1 PUSH2 0xDE1 JUMP JUMPDEST PUSH2 0xBEC JUMP JUMPDEST PUSH1 0x40 MLOAD PUSH2 0x33B SWAP2 SWAP1 PUSH2 0xEFC JUMP JUMPDEST PUSH1 0x40 MLOAD DUP1 SWAP2 SUB SWAP1 RETURN JUMPDEST PUSH2 0x35E PUSH1 0x4 DUP1 CALLDATASIZE SUB DUP2 ADD SWAP1 PUSH2 0x359 SWAP2 SWAP1 PUSH2 0xD8D JUMP JUMPDEST PUSH2 0xC15 JUMP JUMPDEST PUSH1 0x40 MLOAD PUSH2 0x36B SWAP2 SWAP1 PUSH2 0xF6F JUMP JUMPDEST PUSH1 0x40 MLOAD DUP1 SWAP2 SUB SWAP1 RETURN JUMPDEST PUSH2 0x38E PUSH1 0x4 DUP1 CALLDATASIZE SUB DUP2 ADD SWAP1 PUSH2 0x389 SWAP2 SWAP1 PUSH2 0xD23 JUMP JUMPDEST PUSH2 0xC62 JUMP JUMPDEST PUSH1 0x40 MLOAD PUSH2 0x39B SWAP2 SWAP1 PUSH2 0xF4D JUMP JUMPDEST PUSH1 0x40 MLOAD DUP1 SWAP2 SUB SWAP1 RETURN JUMPDEST PUSH1 0x0 DUP1 PUSH2 0x3B0 DUP4 PUSH2 0xBC2 JUMP JUMPDEST SWAP1 POP PUSH1 0x3 PUSH1 0x0 DUP3 DUP2 MSTORE PUSH1 0x20 ADD SWAP1 DUP2 MSTORE PUSH1 0x20 ADD PUSH1 0x0 KECCAK256 PUSH1 0x0 SWAP1 SLOAD SWAP1 PUSH2 0x100 EXP SWAP1 DIV PUSH1 0xFF AND SWAP2 POP POP SWAP2 SWAP1 POP JUMP JUMPDEST PUSH1 0x1 PUSH1 0x3 PUSH1 0x0 DUP4 DUP2 MSTORE PUSH1 0x20 ADD SWAP1 DUP2 MSTORE PUSH1 0x20 ADD PUSH1 0x0 KECCAK256 PUSH1 0x0 PUSH2 0x100 EXP DUP2 SLOAD DUP2 PUSH1 0xFF MUL NOT AND SWAP1 DUP4 PUSH1 0xFF AND MUL OR SWAP1 SSTORE POP PUSH1 0x1 DUP2 SWAP1 DUP1 PUSH1 0x1 DUP2 SLOAD ADD DUP1 DUP3 SSTORE DUP1 SWAP2 POP POP PUSH1 0x1 SWAP1 SUB SWAP1 PUSH1 0x0 MSTORE PUSH1 0x20 PUSH1 0x0 KECCAK256 ADD PUSH1 0x0 SWAP1 SWAP2 SWAP1 SWAP2 SWAP1 SWAP2 POP SSTORE TIMESTAMP PUSH1 0x2 PUSH1 0x0 DUP4 DUP2 MSTORE PUSH1 0x20 ADD SWAP1 DUP2 MSTORE PUSH1 0x20 ADD PUSH1 0x0 KECCAK256 DUP2 SWAP1 SSTORE POP POP JUMP JUMPDEST PUSH1 0x3 PUSH1 0x20 MSTORE DUP1 PUSH1 0x0 MSTORE PUSH1 0x40 PUSH1 0x0 KECCAK256 PUSH1 0x0 SWAP2 POP SLOAD SWAP1 PUSH2 0x100 EXP SWAP1 DIV PUSH1 0xFF AND DUP2 JUMP JUMPDEST PUSH1 0x1 DUP2 DUP2 SLOAD DUP2 LT PUSH2 0x47C JUMPI PUSH1 0x0 DUP1 REVERT JUMPDEST SWAP1 PUSH1 0x0 MSTORE PUSH1 0x20 PUSH1 0x0 KECCAK256 ADD PUSH1 0x0 SWAP2 POP SWAP1 POP SLOAD DUP2 JUMP JUMPDEST PUSH1 0x1 DUP2 EQ ISZERO PUSH2 0x4A6 JUMPI PUSH2 0x4A1 PUSH2 0x5C2 JUMP JUMPDEST PUSH2 0x4B9 JUMP JUMPDEST PUSH1 0x2 DUP2 EQ ISZERO PUSH2 0x4B8 JUMPI PUSH2 0x4B7 PUSH2 0x837 JUMP JUMPDEST JUMPDEST JUMPDEST POP JUMP JUMPDEST PUSH1 0x0 PUSH2 0x4C7 DUP3 PUSH2 0xBC2 JUMP JUMPDEST SWAP1 POP PUSH1 0x0 PUSH2 0x4D4 DUP3 PUSH2 0x51B JUMP JUMPDEST SWAP1 POP PUSH32 0xFFFFFFFFFFFFFFFFFFFFFFFFFFFFFFFFFFFFFFFFFFFFFFFFFFFFFFFFFFFFFFFF DUP2 EQ ISZERO PUSH2 0x50C JUMPI PUSH2 0x507 DUP3 PUSH2 0x3DB JUMP JUMPDEST PUSH2 0x516 JUMP JUMPDEST PUSH2 0x515 DUP3 PUSH2 0xA8C JUMP JUMPDEST JUMPDEST POP POP POP JUMP JUMPDEST PUSH1 0x0 DUP1 PUSH32 0xFFFFFFFFFFFFFFFFFFFFFFFFFFFFFFFFFFFFFFFFFFFFFFFFFFFFFFFFFFFFFFFF SWAP1 POP PUSH1 0x0 JUMPDEST PUSH1 0x1 DUP1 SLOAD SWAP1 POP DUP2 SLT ISZERO PUSH2 0x5B8 JUMPI DUP4 PUSH1 0x1 DUP3 DUP2 SLOAD DUP2 LT PUSH2 0x58C JUMPI PUSH32 0x4E487B7100000000000000000000000000000000000000000000000000000000 PUSH1 0x0 MSTORE PUSH1 0x32 PUSH1 0x4 MSTORE PUSH1 0x24 PUSH1 0x0 REVERT JUMPDEST SWAP1 PUSH1 0x0 MSTORE PUSH1 0x20 PUSH1 0x0 KECCAK256 ADD SLOAD EQ ISZERO PUSH2 0x5A5 JUMPI DUP1 SWAP2 POP PUSH2 0x5B8 JUMP JUMPDEST DUP1 DUP1 PUSH2 0x5B0 SWAP1 PUSH2 0x1243 JUMP JUMPDEST SWAP2 POP POP PUSH2 0x544 JUMP JUMPDEST POP DUP1 SWAP2 POP POP SWAP2 SWAP1 POP JUMP JUMPDEST PUSH1 0x0 PUSH1 0x1 DUP1 SLOAD SWAP1 POP SWAP1 POP PUSH1 0x0 PUSH1 0x1 SWAP1 POP JUMPDEST DUP2 DUP2 LT ISZERO PUSH2 0x833 JUMPI PUSH1 0x0 PUSH1 0x3 PUSH1 0x0 PUSH1 0x1 DUP5 DUP2 SLOAD DUP2 LT PUSH2 0x61B JUMPI PUSH32 0x4E487B7100000000000000000000000000000000000000000000000000000000 PUSH1 0x0 MSTORE PUSH1 0x32 PUSH1 0x4 MSTORE PUSH1 0x24 PUSH1 0x0 REVERT JUMPDEST SWAP1 PUSH1 0x0 MSTORE PUSH1 0x20 PUSH1 0x0 KECCAK256 ADD SLOAD DUP2 MSTORE PUSH1 0x20 ADD SWAP1 DUP2 MSTORE PUSH1 0x20 ADD PUSH1 0x0 KECCAK256 PUSH1 0x0 SWAP1 SLOAD SWAP1 PUSH2 0x100 EXP SWAP1 DIV PUSH1 0xFF AND PUSH1 0xFF AND SWAP1 POP PUSH1 0x0 PUSH1 0x1 DUP4 DUP2 SLOAD DUP2 LT PUSH2 0x683 JUMPI PUSH32 0x4E487B7100000000000000000000000000000000000000000000000000000000 PUSH1 0x0 MSTORE PUSH1 0x32 PUSH1 0x4 MSTORE PUSH1 0x24 PUSH1 0x0 REVERT JUMPDEST SWAP1 PUSH1 0x0 MSTORE PUSH1 0x20 PUSH1 0x0 KECCAK256 ADD SLOAD SWAP1 POP PUSH1 0x0 PUSH1 0x1 DUP5 PUSH2 0x69F SWAP2 SWAP1 PUSH2 0x10ED JUMP JUMPDEST SWAP1 POP JUMPDEST PUSH1 0x0 DUP2 SLT ISZERO DUP1 ISZERO PUSH2 0x719 JUMPI POP DUP3 PUSH1 0x3 PUSH1 0x0 PUSH1 0x1 DUP5 DUP2 SLOAD DUP2 LT PUSH2 0x6ED JUMPI PUSH32 0x4E487B7100000000000000000000000000000000000000000000000000000000 PUSH1 0x0 MSTORE PUSH1 0x32 PUSH1 0x4 MSTORE PUSH1 0x24 PUSH1 0x0 REVERT JUMPDEST SWAP1 PUSH1 0x0 MSTORE PUSH1 0x20 PUSH1 0x0 KECCAK256 ADD SLOAD DUP2 MSTORE PUSH1 0x20 ADD SWAP1 DUP2 MSTORE PUSH1 0x20 ADD PUSH1 0x0 KECCAK256 PUSH1 0x0 SWAP1 SLOAD SWAP1 PUSH2 0x100 EXP SWAP1 DIV PUSH1 0xFF AND PUSH1 0xFF AND LT JUMPDEST ISZERO PUSH2 0x7C9 JUMPI PUSH1 0x1 DUP2 DUP2 SLOAD DUP2 LT PUSH2 0x758 JUMPI PUSH32 0x4E487B7100000000000000000000000000000000000000000000000000000000 PUSH1 0x0 MSTORE PUSH1 0x32 PUSH1 0x4 MSTORE PUSH1 0x24 PUSH1 0x0 REVERT JUMPDEST SWAP1 PUSH1 0x0 MSTORE PUSH1 0x20 PUSH1 0x0 KECCAK256 ADD SLOAD PUSH1 0x1 DUP1 DUP4 PUSH2 0x771 SWAP2 SWAP1 PUSH2 0x1022 JUMP JUMPDEST DUP2 SLOAD DUP2 LT PUSH2 0x7A8 JUMPI PUSH32 0x4E487B7100000000000000000000000000000000000000000000000000000000 PUSH1 0x0 MSTORE PUSH1 0x32 PUSH1 0x4 MSTORE PUSH1 0x24 PUSH1 0x0 REVERT JUMPDEST SWAP1 PUSH1 0x0 MSTORE PUSH1 0x20 PUSH1 0x0 KECCAK256 ADD DUP2 SWAP1 SSTORE POP DUP1 DUP1 PUSH2 0x7C1 SWAP1 PUSH2 0x11FA JUMP JUMPDEST SWAP2 POP POP PUSH2 0x6A2 JUMP JUMPDEST DUP2 PUSH1 0x1 DUP1 DUP4 PUSH2 0x7D8 SWAP2 SWAP1 PUSH2 0x1022 JUMP JUMPDEST DUP2 SLOAD DUP2 LT PUSH2 0x80F JUMPI PUSH32 0x4E487B7100000000000000000000000000000000000000000000000000000000 PUSH1 0x0 MSTORE PUSH1 0x32 PUSH1 0x4 MSTORE PUSH1 0x24 PUSH1 0x0 REVERT JUMPDEST SWAP1 PUSH1 0x0 MSTORE PUSH1 0x20 PUSH1 0x0 KECCAK256 ADD DUP2 SWAP1 SSTORE POP POP POP POP DUP1 DUP1 PUSH2 0x82B SWAP1 PUSH2 0x128C JUMP JUMPDEST SWAP2 POP POP PUSH2 0x5D3 JUMP JUMPDEST POP POP JUMP JUMPDEST PUSH1 0x0 PUSH1 0x1 DUP1 SLOAD SWAP1 POP SWAP1 POP PUSH1 0x0 PUSH1 0x1 SWAP1 POP JUMPDEST DUP2 DUP2 LT ISZERO PUSH2 0xA88 JUMPI PUSH1 0x0 PUSH1 0x2 PUSH1 0x0 PUSH1 0x1 DUP5 DUP2 SLOAD DUP2 LT PUSH2 0x890 JUMPI PUSH32 0x4E487B7100000000000000000000000000000000000000000000000000000000 PUSH1 0x0 MSTORE PUSH1 0x32 PUSH1 0x4 MSTORE PUSH1 0x24 PUSH1 0x0 REVERT JUMPDEST SWAP1 PUSH1 0x0 MSTORE PUSH1 0x20 PUSH1 0x0 KECCAK256 ADD SLOAD DUP2 MSTORE PUSH1 0x20 ADD SWAP1 DUP2 MSTORE PUSH1 0x20 ADD PUSH1 0x0 KECCAK256 SLOAD SWAP1 POP PUSH1 0x0 PUSH1 0x1 DUP4 DUP2 SLOAD DUP2 LT PUSH2 0x8E8 JUMPI PUSH32 0x4E487B7100000000000000000000000000000000000000000000000000000000 PUSH1 0x0 MSTORE PUSH1 0x32 PUSH1 0x4 MSTORE PUSH1 0x24 PUSH1 0x0 REVERT JUMPDEST SWAP1 PUSH1 0x0 MSTORE PUSH1 0x20 PUSH1 0x0 KECCAK256 ADD SLOAD SWAP1 POP PUSH1 0x0 PUSH1 0x1 DUP5 PUSH2 0x904 SWAP2 SWAP1 PUSH2 0x10ED JUMP JUMPDEST SWAP1 POP JUMPDEST PUSH1 0x0 DUP2 SLT ISZERO DUP1 ISZERO PUSH2 0x96E JUMPI POP DUP3 PUSH1 0x2 PUSH1 0x0 PUSH1 0x1 DUP5 DUP2 SLOAD DUP2 LT PUSH2 0x952 JUMPI PUSH32 0x4E487B7100000000000000000000000000000000000000000000000000000000 PUSH1 0x0 MSTORE PUSH1 0x32 PUSH1 0x4 MSTORE PUSH1 0x24 PUSH1 0x0 REVERT JUMPDEST SWAP1 PUSH1 0x0 MSTORE PUSH1 0x20 PUSH1 0x0 KECCAK256 ADD SLOAD DUP2 MSTORE PUSH1 0x20 ADD SWAP1 DUP2 MSTORE PUSH1 0x20 ADD PUSH1 0x0 KECCAK256 SLOAD GT JUMPDEST ISZERO PUSH2 0xA1E JUMPI PUSH1 0x1 DUP2 DUP2 SLOAD DUP2 LT PUSH2 0x9AD JUMPI PUSH32 0x4E487B7100000000000000000000000000000000000000000000000000000000 PUSH1 0x0 MSTORE PUSH1 0x32 PUSH1 0x4 MSTORE PUSH1 0x24 PUSH1 0x0 REVERT JUMPDEST SWAP1 PUSH1 0x0 MSTORE PUSH1 0x20 PUSH1 0x0 KECCAK256 ADD SLOAD PUSH1 0x1 DUP1 DUP4 PUSH2 0x9C6 SWAP2 SWAP1 PUSH2 0x1022 JUMP JUMPDEST DUP2 SLOAD DUP2 LT PUSH2 0x9FD JUMPI PUSH32 0x4E487B7100000000000000000000000000000000000000000000000000000000 PUSH1 0x0 MSTORE PUSH1 0x32 PUSH1 0x4 MSTORE PUSH1 0x24 PUSH1 0x0 REVERT JUMPDEST SWAP1 PUSH1 0x0 MSTORE PUSH1 0x20 PUSH1 0x0 KECCAK256 ADD DUP2 SWAP1 SSTORE POP DUP1 DUP1 PUSH2 0xA16 SWAP1 PUSH2 0x11FA JUMP JUMPDEST SWAP2 POP POP PUSH2 0x907 JUMP JUMPDEST DUP2 PUSH1 0x1 DUP1 DUP4 PUSH2 0xA2D SWAP2 SWAP1 PUSH2 0x1022 JUMP JUMPDEST DUP2 SLOAD DUP2 LT PUSH2 0xA64 JUMPI PUSH32 0x4E487B7100000000000000000000000000000000000000000000000000000000 PUSH1 0x0 MSTORE PUSH1 0x32 PUSH1 0x4 MSTORE PUSH1 0x24 PUSH1 0x0 REVERT JUMPDEST SWAP1 PUSH1 0x0 MSTORE PUSH1 0x20 PUSH1 0x0 KECCAK256 ADD DUP2 SWAP1 SSTORE POP POP POP POP DUP1 DUP1 PUSH2 0xA80 SWAP1 PUSH2 0x128C JUMP JUMPDEST SWAP2 POP POP PUSH2 0x848 JUMP JUMPDEST POP POP JUMP JUMPDEST PUSH1 0x1 PUSH1 0x3 PUSH1 0x0 DUP4 DUP2 MSTORE PUSH1 0x20 ADD SWAP1 DUP2 MSTORE PUSH1 0x20 ADD PUSH1 0x0 KECCAK256 PUSH1 0x0 DUP3 DUP3 DUP3 SWAP1 SLOAD SWAP1 PUSH2 0x100 EXP SWAP1 DIV PUSH1 0xFF AND PUSH2 0xABC SWAP2 SWAP1 PUSH2 0x10B6 JUMP JUMPDEST SWAP3 POP PUSH2 0x100 EXP DUP2 SLOAD DUP2 PUSH1 0xFF MUL NOT AND SWAP1 DUP4 PUSH1 0xFF AND MUL OR SWAP1 SSTORE POP TIMESTAMP PUSH1 0x2 PUSH1 0x0 DUP4 DUP2 MSTORE PUSH1 0x20 ADD SWAP1 DUP2 MSTORE PUSH1 0x20 ADD PUSH1 0x0 KECCAK256 DUP2 SWAP1 SSTORE POP POP JUMP JUMPDEST PUSH1 0x0 DUP1 PUSH2 0xAFB DUP4 PUSH2 0x51B JUMP JUMPDEST SWAP1 POP PUSH32 0xFFFFFFFFFFFFFFFFFFFFFFFFFFFFFFFFFFFFFFFFFFFFFFFFFFFFFFFFFFFFFFFF DUP2 EQ ISZERO PUSH2 0xB2F JUMPI PUSH1 0x0 SWAP2 POP POP PUSH2 0xB35 JUMP JUMPDEST PUSH1 0x1 SWAP2 POP POP JUMPDEST SWAP2 SWAP1 POP JUMP JUMPDEST PUSH1 0x0 PUSH2 0xB45 DUP3 PUSH2 0xBEC JUMP JUMPDEST PUSH2 0xB4E JUMPI PUSH1 0x0 DUP1 REVERT JUMPDEST PUSH2 0xB57 DUP3 PUSH2 0x490 JUMP JUMPDEST PUSH1 0x0 PUSH1 0x1 DUP5 DUP2 SLOAD DUP2 LT PUSH2 0xB93 JUMPI PUSH32 0x4E487B7100000000000000000000000000000000000000000000000000000000 PUSH1 0x0 MSTORE PUSH1 0x32 PUSH1 0x4 MSTORE PUSH1 0x24 PUSH1 0x0 REVERT JUMPDEST SWAP1 PUSH1 0x0 MSTORE PUSH1 0x20 PUSH1 0x0 KECCAK256 ADD SLOAD SWAP1 POP DUP1 SWAP2 POP POP SWAP3 SWAP2 POP POP JUMP JUMPDEST PUSH1 0x2 PUSH1 0x20 MSTORE DUP1 PUSH1 0x0 MSTORE PUSH1 0x40 PUSH1 0x0 KECCAK256 PUSH1 0x0 SWAP2 POP SWAP1 POP SLOAD DUP2 JUMP JUMPDEST PUSH1 0x0 DUP1 DUP3 SWAP1 POP PUSH1 0x0 DUP2 MLOAD EQ ISZERO PUSH2 0xBDE JUMPI PUSH1 0x0 DUP1 SHL SWAP2 POP POP PUSH2 0xBE7 JUMP JUMPDEST PUSH1 0x20 DUP4 ADD MLOAD SWAP2 POP POP JUMPDEST SWAP2 SWAP1 POP JUMP JUMPDEST PUSH1 0x0 PUSH1 0x1 DUP3 EQ DUP1 PUSH2 0xBFD JUMPI POP PUSH1 0x2 DUP3 EQ JUMPDEST ISZERO PUSH2 0xC0B JUMPI PUSH1 0x1 SWAP1 POP PUSH2 0xC10 JUMP JUMPDEST PUSH1 0x0 SWAP1 POP JUMPDEST SWAP2 SWAP1 POP JUMP JUMPDEST PUSH1 0x0 DUP1 PUSH2 0xC21 DUP5 PUSH2 0xBC2 JUMP JUMPDEST SWAP1 POP PUSH2 0xC2C DUP2 PUSH2 0xAEF JUMP JUMPDEST PUSH2 0xC35 JUMPI PUSH1 0x0 DUP1 REVERT JUMPDEST PUSH2 0xC3E DUP4 PUSH2 0xBEC JUMP JUMPDEST PUSH2 0xC47 JUMPI PUSH1 0x0 DUP1 REVERT JUMPDEST PUSH2 0xC50 DUP4 PUSH2 0x490 JUMP JUMPDEST PUSH2 0xC59 DUP2 PUSH2 0x51B JUMP JUMPDEST SWAP2 POP POP SWAP3 SWAP2 POP POP JUMP JUMPDEST PUSH1 0x60 PUSH1 0x0 DUP3 PUSH1 0x40 MLOAD PUSH1 0x20 ADD PUSH2 0xC77 SWAP2 SWAP1 PUSH2 0xEE1 JUMP JUMPDEST PUSH1 0x40 MLOAD PUSH1 0x20 DUP2 DUP4 SUB SUB DUP2 MSTORE SWAP1 PUSH1 0x40 MSTORE SWAP1 POP DUP1 SWAP2 POP POP SWAP2 SWAP1 POP JUMP JUMPDEST PUSH1 0x0 PUSH2 0xCA4 PUSH2 0xC9F DUP5 PUSH2 0xFD6 JUMP JUMPDEST PUSH2 0xFA5 JUMP JUMPDEST SWAP1 POP DUP3 DUP2 MSTORE PUSH1 0x20 DUP2 ADD DUP5 DUP5 DUP5 ADD GT ISZERO PUSH2 0xCBC JUMPI PUSH1 0x0 DUP1 REVERT JUMPDEST PUSH2 0xCC7 DUP5 DUP3 DUP6 PUSH2 0x11B8 JUMP JUMPDEST POP SWAP4 SWAP3 POP POP POP JUMP JUMPDEST PUSH1 0x0 DUP2 CALLDATALOAD SWAP1 POP PUSH2 0xCDE DUP2 PUSH2 0x134E JUMP JUMPDEST SWAP3 SWAP2 POP POP JUMP JUMPDEST PUSH1 0x0 DUP3 PUSH1 0x1F DUP4 ADD SLT PUSH2 0xCF5 JUMPI PUSH1 0x0 DUP1 REVERT JUMPDEST DUP2 CALLDATALOAD PUSH2 0xD05 DUP5 DUP3 PUSH1 0x20 DUP7 ADD PUSH2 0xC91 JUMP JUMPDEST SWAP2 POP POP SWAP3 SWAP2 POP POP JUMP JUMPDEST PUSH1 0x0 DUP2 CALLDATALOAD SWAP1 POP PUSH2 0xD1D DUP2 PUSH2 0x1365 JUMP JUMPDEST SWAP3 SWAP2 POP POP JUMP JUMPDEST PUSH1 0x0 PUSH1 0x20 DUP3 DUP5 SUB SLT ISZERO PUSH2 0xD35 JUMPI PUSH1 0x0 DUP1 REVERT JUMPDEST PUSH1 0x0 PUSH2 0xD43 DUP5 DUP3 DUP6 ADD PUSH2 0xCCF JUMP JUMPDEST SWAP2 POP POP SWAP3 SWAP2 POP POP JUMP JUMPDEST PUSH1 0x0 PUSH1 0x20 DUP3 DUP5 SUB SLT ISZERO PUSH2 0xD5E JUMPI PUSH1 0x0 DUP1 REVERT JUMPDEST PUSH1 0x0 DUP3 ADD CALLDATALOAD PUSH8 0xFFFFFFFFFFFFFFFF DUP2 GT ISZERO PUSH2 0xD78 JUMPI PUSH1 0x0 DUP1 REVERT JUMPDEST PUSH2 0xD84 DUP5 DUP3 DUP6 ADD PUSH2 0xCE4 JUMP JUMPDEST SWAP2 POP POP SWAP3 SWAP2 POP POP JUMP JUMPDEST PUSH1 0x0 DUP1 PUSH1 0x40 DUP4 DUP6 SUB SLT ISZERO PUSH2 0xDA0 JUMPI PUSH1 0x0 DUP1 REVERT JUMPDEST PUSH1 0x0 DUP4 ADD CALLDATALOAD PUSH8 0xFFFFFFFFFFFFFFFF DUP2 GT ISZERO PUSH2 0xDBA JUMPI PUSH1 0x0 DUP1 REVERT JUMPDEST PUSH2 0xDC6 DUP6 DUP3 DUP7 ADD PUSH2 0xCE4 JUMP JUMPDEST SWAP3 POP POP PUSH1 0x20 PUSH2 0xDD7 DUP6 DUP3 DUP7 ADD PUSH2 0xD0E JUMP JUMPDEST SWAP2 POP POP SWAP3 POP SWAP3 SWAP1 POP JUMP JUMPDEST PUSH1 0x0 PUSH1 0x20 DUP3 DUP5 SUB SLT ISZERO PUSH2 0xDF3 JUMPI PUSH1 0x0 DUP1 REVERT JUMPDEST PUSH1 0x0 PUSH2 0xE01 DUP5 DUP3 DUP6 ADD PUSH2 0xD0E JUMP JUMPDEST SWAP2 POP POP SWAP3 SWAP2 POP POP JUMP JUMPDEST PUSH1 0x0 DUP1 PUSH1 0x40 DUP4 DUP6 SUB SLT ISZERO PUSH2 0xE1D JUMPI PUSH1 0x0 DUP1 REVERT JUMPDEST PUSH1 0x0 PUSH2 0xE2B DUP6 DUP3 DUP7 ADD PUSH2 0xD0E JUMP JUMPDEST SWAP3 POP POP PUSH1 0x20 PUSH2 0xE3C DUP6 DUP3 DUP7 ADD PUSH2 0xD0E JUMP JUMPDEST SWAP2 POP POP SWAP3 POP SWAP3 SWAP1 POP JUMP JUMPDEST PUSH2 0xE4F DUP2 PUSH2 0x1181 JUMP JUMPDEST DUP3 MSTORE POP POP JUMP JUMPDEST PUSH2 0xE5E DUP2 PUSH2 0x118D JUMP JUMPDEST DUP3 MSTORE POP POP JUMP JUMPDEST PUSH2 0xE75 PUSH2 0xE70 DUP3 PUSH2 0x118D JUMP JUMPDEST PUSH2 0x12D5 JUMP JUMPDEST DUP3 MSTORE POP POP JUMP JUMPDEST PUSH2 0xE84 DUP2 PUSH2 0x1197 JUMP JUMPDEST DUP3 MSTORE POP POP JUMP JUMPDEST PUSH1 0x0 PUSH2 0xE95 DUP3 PUSH2 0x1006 JUMP JUMPDEST PUSH2 0xE9F DUP2 DUP6 PUSH2 0x1011 JUMP JUMPDEST SWAP4 POP PUSH2 0xEAF DUP2 DUP6 PUSH1 0x20 DUP7 ADD PUSH2 0x11C7 JUMP JUMPDEST PUSH2 0xEB8 DUP2 PUSH2 0x133D JUMP JUMPDEST DUP5 ADD SWAP2 POP POP SWAP3 SWAP2 POP POP JUMP JUMPDEST PUSH2 0xECC DUP2 PUSH2 0x11A1 JUMP JUMPDEST DUP3 MSTORE POP POP JUMP JUMPDEST PUSH2 0xEDB DUP2 PUSH2 0x11AB JUMP JUMPDEST DUP3 MSTORE POP POP JUMP JUMPDEST PUSH1 0x0 PUSH2 0xEED DUP3 DUP5 PUSH2 0xE64 JUMP JUMPDEST PUSH1 0x20 DUP3 ADD SWAP2 POP DUP2 SWAP1 POP SWAP3 SWAP2 POP POP JUMP JUMPDEST PUSH1 0x0 PUSH1 0x20 DUP3 ADD SWAP1 POP PUSH2 0xF11 PUSH1 0x0 DUP4 ADD DUP5 PUSH2 0xE46 JUMP JUMPDEST SWAP3 SWAP2 POP POP JUMP JUMPDEST PUSH1 0x0 PUSH1 0x20 DUP3 ADD SWAP1 POP PUSH2 0xF2C PUSH1 0x0 DUP4 ADD DUP5 PUSH2 0xE55 JUMP JUMPDEST SWAP3 SWAP2 POP POP JUMP JUMPDEST PUSH1 0x0 PUSH1 0x20 DUP3 ADD SWAP1 POP PUSH2 0xF47 PUSH1 0x0 DUP4 ADD DUP5 PUSH2 0xE7B JUMP JUMPDEST SWAP3 SWAP2 POP POP JUMP JUMPDEST PUSH1 0x0 PUSH1 0x20 DUP3 ADD SWAP1 POP DUP2 DUP2 SUB PUSH1 0x0 DUP4 ADD MSTORE PUSH2 0xF67 DUP2 DUP5 PUSH2 0xE8A JUMP JUMPDEST SWAP1 POP SWAP3 SWAP2 POP POP JUMP JUMPDEST PUSH1 0x0 PUSH1 0x20 DUP3 ADD SWAP1 POP PUSH2 0xF84 PUSH1 0x0 DUP4 ADD DUP5 PUSH2 0xEC3 JUMP JUMPDEST SWAP3 SWAP2 POP POP JUMP JUMPDEST PUSH1 0x0 PUSH1 0x20 DUP3 ADD SWAP1 POP PUSH2 0xF9F PUSH1 0x0 DUP4 ADD DUP5 PUSH2 0xED2 JUMP JUMPDEST SWAP3 SWAP2 POP POP JUMP JUMPDEST PUSH1 0x0 PUSH1 0x40 MLOAD SWAP1 POP DUP2 DUP2 ADD DUP2 DUP2 LT PUSH8 0xFFFFFFFFFFFFFFFF DUP3 GT OR ISZERO PUSH2 0xFCC JUMPI PUSH2 0xFCB PUSH2 0x130E JUMP JUMPDEST JUMPDEST DUP1 PUSH1 0x40 MSTORE POP SWAP2 SWAP1 POP JUMP JUMPDEST PUSH1 0x0 PUSH8 0xFFFFFFFFFFFFFFFF DUP3 GT ISZERO PUSH2 0xFF1 JUMPI PUSH2 0xFF0 PUSH2 0x130E JUMP JUMPDEST JUMPDEST PUSH1 0x1F NOT PUSH1 0x1F DUP4 ADD AND SWAP1 POP PUSH1 0x20 DUP2 ADD SWAP1 POP SWAP2 SWAP1 POP JUMP JUMPDEST PUSH1 0x0 DUP2 MLOAD SWAP1 POP SWAP2 SWAP1 POP JUMP JUMPDEST PUSH1 0x0 DUP3 DUP3 MSTORE PUSH1 0x20 DUP3 ADD SWAP1 POP SWAP3 SWAP2 POP POP JUMP JUMPDEST PUSH1 0x0 PUSH2 0x102D DUP3 PUSH2 0x1197 JUMP JUMPDEST SWAP2 POP PUSH2 0x1038 DUP4 PUSH2 0x1197 JUMP JUMPDEST SWAP3 POP DUP2 PUSH32 0x7FFFFFFFFFFFFFFFFFFFFFFFFFFFFFFFFFFFFFFFFFFFFFFFFFFFFFFFFFFFFFFF SUB DUP4 SGT PUSH1 0x0 DUP4 SLT ISZERO AND ISZERO PUSH2 0x1073 JUMPI PUSH2 0x1072 PUSH2 0x12DF JUMP JUMPDEST JUMPDEST DUP2 PUSH32 0x8000000000000000000000000000000000000000000000000000000000000000 SUB DUP4 SLT PUSH1 0x0 DUP4 SLT AND ISZERO PUSH2 0x10AB JUMPI PUSH2 0x10AA PUSH2 0x12DF JUMP JUMPDEST JUMPDEST DUP3 DUP3 ADD SWAP1 POP SWAP3 SWAP2 POP POP JUMP JUMPDEST PUSH1 0x0 PUSH2 0x10C1 DUP3 PUSH2 0x11AB JUMP JUMPDEST SWAP2 POP PUSH2 0x10CC DUP4 PUSH2 0x11AB JUMP JUMPDEST SWAP3 POP DUP3 PUSH1 0xFF SUB DUP3 GT ISZERO PUSH2 0x10E2 JUMPI PUSH2 0x10E1 PUSH2 0x12DF JUMP JUMPDEST JUMPDEST DUP3 DUP3 ADD SWAP1 POP SWAP3 SWAP2 POP POP JUMP JUMPDEST PUSH1 0x0 PUSH2 0x10F8 DUP3 PUSH2 0x1197 JUMP JUMPDEST SWAP2 POP PUSH2 0x1103 DUP4 PUSH2 0x1197 JUMP JUMPDEST SWAP3 POP DUP3 PUSH32 0x8000000000000000000000000000000000000000000000000000000000000000 ADD DUP3 SLT PUSH1 0x0 DUP5 SLT ISZERO AND ISZERO PUSH2 0x113E JUMPI PUSH2 0x113D PUSH2 0x12DF JUMP JUMPDEST JUMPDEST DUP3 PUSH32 0x7FFFFFFFFFFFFFFFFFFFFFFFFFFFFFFFFFFFFFFFFFFFFFFFFFFFFFFFFFFFFFFF ADD DUP3 SGT PUSH1 0x0 DUP5 SLT AND ISZERO PUSH2 0x1176 JUMPI PUSH2 0x1175 PUSH2 0x12DF JUMP JUMPDEST JUMPDEST DUP3 DUP3 SUB SWAP1 POP SWAP3 SWAP2 POP POP JUMP JUMPDEST PUSH1 0x0 DUP2 ISZERO ISZERO SWAP1 POP SWAP2 SWAP1 POP JUMP JUMPDEST PUSH1 0x0 DUP2 SWAP1 POP SWAP2 SWAP1 POP JUMP JUMPDEST PUSH1 0x0 DUP2 SWAP1 POP SWAP2 SWAP1 POP JUMP JUMPDEST PUSH1 0x0 DUP2 SWAP1 POP SWAP2 SWAP1 POP JUMP JUMPDEST PUSH1 0x0 PUSH1 0xFF DUP3 AND SWAP1 POP SWAP2 SWAP1 POP JUMP JUMPDEST DUP3 DUP2 DUP4 CALLDATACOPY PUSH1 0x0 DUP4 DUP4 ADD MSTORE POP POP POP JUMP JUMPDEST PUSH1 0x0 JUMPDEST DUP4 DUP2 LT ISZERO PUSH2 0x11E5 JUMPI DUP1 DUP3 ADD MLOAD DUP2 DUP5 ADD MSTORE PUSH1 0x20 DUP2 ADD SWAP1 POP PUSH2 0x11CA JUMP JUMPDEST DUP4 DUP2 GT ISZERO PUSH2 0x11F4 JUMPI PUSH1 0x0 DUP5 DUP5 ADD MSTORE JUMPDEST POP POP POP POP JUMP JUMPDEST PUSH1 0x0 PUSH2 0x1205 DUP3 PUSH2 0x1197 JUMP JUMPDEST SWAP2 POP PUSH32 0x8000000000000000000000000000000000000000000000000000000000000000 DUP3 EQ ISZERO PUSH2 0x1238 JUMPI PUSH2 0x1237 PUSH2 0x12DF JUMP JUMPDEST JUMPDEST PUSH1 0x1 DUP3 SUB SWAP1 POP SWAP2 SWAP1 POP JUMP JUMPDEST PUSH1 0x0 PUSH2 0x124E DUP3 PUSH2 0x1197 JUMP JUMPDEST SWAP2 POP PUSH32 0x7FFFFFFFFFFFFFFFFFFFFFFFFFFFFFFFFFFFFFFFFFFFFFFFFFFFFFFFFFFFFFFF DUP3 EQ ISZERO PUSH2 0x1281 JUMPI PUSH2 0x1280 PUSH2 0x12DF JUMP JUMPDEST JUMPDEST PUSH1 0x1 DUP3 ADD SWAP1 POP SWAP2 SWAP1 POP JUMP JUMPDEST PUSH1 0x0 PUSH2 0x1297 DUP3 PUSH2 0x11A1 JUMP JUMPDEST SWAP2 POP PUSH32 0xFFFFFFFFFFFFFFFFFFFFFFFFFFFFFFFFFFFFFFFFFFFFFFFFFFFFFFFFFFFFFFFF DUP3 EQ ISZERO PUSH2 0x12CA JUMPI PUSH2 0x12C9 PUSH2 0x12DF JUMP JUMPDEST JUMPDEST PUSH1 0x1 DUP3 ADD SWAP1 POP SWAP2 SWAP1 POP JUMP JUMPDEST PUSH1 0x0 DUP2 SWAP1 POP SWAP2 SWAP1 POP JUMP JUMPDEST PUSH32 0x4E487B7100000000000000000000000000000000000000000000000000000000 PUSH1 0x0 MSTORE PUSH1 0x11 PUSH1 0x4 MSTORE PUSH1 0x24 PUSH1 0x0 REVERT JUMPDEST PUSH32 0x4E487B7100000000000000000000000000000000000000000000000000000000 PUSH1 0x0 MSTORE PUSH1 0x41 PUSH1 0x4 MSTORE PUSH1 0x24 PUSH1 0x0 REVERT JUMPDEST PUSH1 0x0 PUSH1 0x1F NOT PUSH1 0x1F DUP4 ADD AND SWAP1 POP SWAP2 SWAP1 POP JUMP JUMPDEST PUSH2 0x1357 DUP2 PUSH2 0x118D JUMP JUMPDEST DUP2 EQ PUSH2 0x1362 JUMPI PUSH1 0x0 DUP1 REVERT JUMPDEST POP JUMP JUMPDEST PUSH2 0x136E DUP2 PUSH2 0x11A1 JUMP JUMPDEST DUP2 EQ PUSH2 0x1379 JUMPI PUSH1 0x0 DUP1 REVERT JUMPDEST POP JUMP INVALID LOG2 PUSH5 0x6970667358 0x22 SLT KECCAK256 0xBF PUSH1 0x2C OR SWAP11 0xCE PUSH11 0x64D5112B94902616F591B8 SWAP14 PUSH7 0xA4C6DDF0581D66 PUSH10 0x8170B4E764736F6C6343 STOP ADDMOD STOP STOP CALLER "
				},
				"gasEstimates": {
					"creation": {
						"codeDepositCost": "1008400",
						"executionCost": "infinite",
						"totalCost": "infinite"
					},
					"external": {
						"Users(uint256)": "2372",
						"_Bytes32ToString(bytes32)": "infinite",
						"_createUserInfo(bytes32)": "82411",
						"_getUserIndexByName(bytes32)": "infinite",
						"_sortByScore()": "infinite",
						"_sortByTimestamp()": "infinite",
						"_sortUsers(uint256)": "infinite",
						"_stringToBytes32(string)": "infinite",
						"_updateUserInfo(bytes32)": "infinite",
						"getRankByName(string,uint256)": "infinite",
						"getRankerName(uint256,uint256)": "infinite",
						"lastModifiedTime(bytes32)": "1487",
						"numSolved(bytes32)": "1564",
						"numofSolved(string)": "infinite",
						"solvedProblem(string)": "infinite",
						"validMode(uint256)": "739",
						"validUser(bytes32)": "infinite"
					}
				},
				"methodIdentifiers": {
					"Users(uint256)": "1e98fd1c",
					"_Bytes32ToString(bytes32)": "f880a1be",
					"_createUserInfo(bytes32)": "0b0edf7d",
					"_getUserIndexByName(bytes32)": "32d73713",
					"_sortByScore()": "4b5e8119",
					"_sortByTimestamp()": "5e7e6e3d",
					"_sortUsers(uint256)": "28565cc3",
					"_stringToBytes32(string)": "bf6a8f9c",
					"_updateUserInfo(bytes32)": "78d208fe",
					"getRankByName(string,uint256)": "d34daa92",
					"getRankerName(uint256,uint256)": "9c72b233",
					"lastModifiedTime(bytes32)": "a689f61b",
					"numSolved(bytes32)": "1c661037",
					"numofSolved(string)": "01dc7830",
					"solvedProblem(string)": "30dea1f4",
					"validMode(uint256)": "c0a3c39c",
					"validUser(bytes32)": "921fb249"
				}
			},
			"storageLayout": {
				"storage": [
					{
						"astId": 3,
						"contract": "contracts/ranking.sol:Ranking",
						"label": "temp",
						"offset": 0,
						"slot": "0",
						"type": "t_string_storage"
					},
					{
						"astId": 6,
						"contract": "contracts/ranking.sol:Ranking",
						"label": "Users",
						"offset": 0,
						"slot": "1",
						"type": "t_array(t_bytes32)dyn_storage"
					},
					{
						"astId": 10,
						"contract": "contracts/ranking.sol:Ranking",
						"label": "lastModifiedTime",
						"offset": 0,
						"slot": "2",
						"type": "t_mapping(t_bytes32,t_uint256)"
					},
					{
						"astId": 14,
						"contract": "contracts/ranking.sol:Ranking",
						"label": "numSolved",
						"offset": 0,
						"slot": "3",
						"type": "t_mapping(t_bytes32,t_uint8)"
					}
				],
				"types": {
					"t_array(t_bytes32)dyn_storage": {
						"base": "t_bytes32",
						"encoding": "dynamic_array",
						"label": "bytes32[]",
						"numberOfBytes": "32"
					},
					"t_bytes32": {
						"encoding": "inplace",
						"label": "bytes32",
						"numberOfBytes": "32"
					},
					"t_mapping(t_bytes32,t_uint256)": {
						"encoding": "mapping",
						"key": "t_bytes32",
						"label": "mapping(bytes32 => uint256)",
						"numberOfBytes": "32",
						"value": "t_uint256"
					},
					"t_mapping(t_bytes32,t_uint8)": {
						"encoding": "mapping",
						"key": "t_bytes32",
						"label": "mapping(bytes32 => uint8)",
						"numberOfBytes": "32",
						"value": "t_uint8"
					},
					"t_string_storage": {
						"encoding": "bytes",
						"label": "string",
						"numberOfBytes": "32"
					},
					"t_uint256": {
						"encoding": "inplace",
						"label": "uint256",
						"numberOfBytes": "32"
					},
					"t_uint8": {
						"encoding": "inplace",
						"label": "uint8",
						"numberOfBytes": "1"
					}
				}
			},
			"userdoc": {
				"kind": "user",
				"methods": {},
				"version": 1
			}
		}
	}
}